{"abi":[{"inputs":[{"internalType":"uint256","name":"","type":"uint256"}],"name":"campaigns","outputs":[{"internalType":"contract CrowdfundCampaign","name":"","type":"address"}],"stateMutability":"view","type":"function"},{"inputs":[{"internalType":"uint256","name":"minimumContribution","type":"uint256"}],"name":"createCampaign","outputs":[],"stateMutability":"nonpayable","type":"function"},{"inputs":[],"name":"getCampaigns","outputs":[{"internalType":"contract CrowdfundCampaign[]","name":"","type":"address[]"}],"stateMutability":"view","type":"function"}],"devdoc":{"kind":"dev","methods":{},"version":1},"evm":{"assembly":"    /* \"/home/cuv/Work/blockchain/eth-crowdfund/ethereum/contracts/CampaignFactory.sol\":91:404  contract CampaignFactory {... */\n  mstore(0x40, 0x80)\n  callvalue\n  dup1\n  iszero\n  tag_1\n  jumpi\n  0x00\n  dup1\n  revert\ntag_1:\n  pop\n  dataSize(sub_0)\n  dup1\n  dataOffset(sub_0)\n  0x00\n  codecopy\n  0x00\n  return\nstop\n\nsub_0: assembly {\n        /* \"/home/cuv/Work/blockchain/eth-crowdfund/ethereum/contracts/CampaignFactory.sol\":91:404  contract CampaignFactory {... */\n      mstore(0x40, 0x80)\n      callvalue\n      dup1\n      iszero\n      tag_1\n      jumpi\n      0x00\n      dup1\n      revert\n    tag_1:\n      pop\n      jumpi(tag_2, lt(calldatasize, 0x04))\n      shr(0xe0, calldataload(0x00))\n      dup1\n      0x141961bc\n      eq\n      tag_3\n      jumpi\n      dup1\n      0xa3303a75\n      eq\n      tag_4\n      jumpi\n      dup1\n      0xa6b03633\n      eq\n      tag_5\n      jumpi\n    tag_2:\n      0x00\n      dup1\n      revert\n        /* \"/home/cuv/Work/blockchain/eth-crowdfund/ethereum/contracts/CampaignFactory.sol\":120:156  CrowdfundCampaign[] public campaigns */\n    tag_3:\n      tag_6\n      0x04\n      dup1\n      calldatasize\n      sub\n      dup2\n      add\n      swap1\n      tag_7\n      swap2\n      swap1\n      tag_8\n      jump\t// in\n    tag_7:\n      tag_9\n      jump\t// in\n    tag_6:\n      mload(0x40)\n      tag_10\n      swap2\n      swap1\n      tag_11\n      jump\t// in\n    tag_10:\n      mload(0x40)\n      dup1\n      swap2\n      sub\n      swap1\n      return\n        /* \"/home/cuv/Work/blockchain/eth-crowdfund/ethereum/contracts/CampaignFactory.sol\":161:299  function createCampaign(uint minimumContribution) public {... */\n    tag_4:\n      tag_12\n      0x04\n      dup1\n      calldatasize\n      sub\n      dup2\n      add\n      swap1\n      tag_13\n      swap2\n      swap1\n      tag_8\n      jump\t// in\n    tag_13:\n      tag_14\n      jump\t// in\n    tag_12:\n      stop\n        /* \"/home/cuv/Work/blockchain/eth-crowdfund/ethereum/contracts/CampaignFactory.sol\":303:402  function getCampaigns() public view returns(CrowdfundCampaign[] memory) {... */\n    tag_5:\n      tag_15\n      tag_16\n      jump\t// in\n    tag_15:\n      mload(0x40)\n      tag_17\n      swap2\n      swap1\n      tag_18\n      jump\t// in\n    tag_17:\n      mload(0x40)\n      dup1\n      swap2\n      sub\n      swap1\n      return\n        /* \"/home/cuv/Work/blockchain/eth-crowdfund/ethereum/contracts/CampaignFactory.sol\":120:156  CrowdfundCampaign[] public campaigns */\n    tag_9:\n      0x00\n      dup2\n      dup2\n      sload\n      dup2\n      lt\n      tag_19\n      jumpi\n      0x00\n      dup1\n      revert\n    tag_19:\n      swap1\n      0x00\n      mstore\n      keccak256(0x00, 0x20)\n      add\n      0x00\n      swap2\n      pop\n      sload\n      swap1\n      0x0100\n      exp\n      swap1\n      div\n      0xffffffffffffffffffffffffffffffffffffffff\n      and\n      dup2\n      jump\t// out\n        /* \"/home/cuv/Work/blockchain/eth-crowdfund/ethereum/contracts/CampaignFactory.sol\":161:299  function createCampaign(uint minimumContribution) public {... */\n    tag_14:\n        /* \"/home/cuv/Work/blockchain/eth-crowdfund/ethereum/contracts/CampaignFactory.sol\":224:233  campaigns */\n      0x00\n        /* \"/home/cuv/Work/blockchain/eth-crowdfund/ethereum/contracts/CampaignFactory.sol\":261:280  minimumContribution */\n      dup2\n        /* \"/home/cuv/Work/blockchain/eth-crowdfund/ethereum/contracts/CampaignFactory.sol\":282:292  msg.sender */\n      caller\n        /* \"/home/cuv/Work/blockchain/eth-crowdfund/ethereum/contracts/CampaignFactory.sol\":239:293  new CrowdfundCampaign(minimumContribution, msg.sender) */\n      mload(0x40)\n      tag_22\n      swap1\n      tag_23\n      jump\t// in\n    tag_22:\n      tag_24\n      swap3\n      swap2\n      swap1\n      tag_25\n      jump\t// in\n    tag_24:\n      mload(0x40)\n      dup1\n      swap2\n      sub\n      swap1\n      0x00\n      create\n      dup1\n      iszero\n      dup1\n      iszero\n      tag_26\n      jumpi\n      returndatasize\n      0x00\n      dup1\n      returndatacopy\n      revert(0x00, returndatasize)\n    tag_26:\n      pop\n        /* \"/home/cuv/Work/blockchain/eth-crowdfund/ethereum/contracts/CampaignFactory.sol\":224:294  campaigns.push(new CrowdfundCampaign(minimumContribution, msg.sender)) */\n      swap1\n      dup1\n      0x01\n      dup2\n      sload\n      add\n      dup1\n      dup3\n      sstore\n      dup1\n      swap2\n      pop\n      pop\n      0x01\n      swap1\n      sub\n      swap1\n      0x00\n      mstore\n      keccak256(0x00, 0x20)\n      add\n      0x00\n      swap1\n      swap2\n      swap1\n      swap2\n      swap1\n      swap2\n      0x0100\n      exp\n      dup2\n      sload\n      dup2\n      0xffffffffffffffffffffffffffffffffffffffff\n      mul\n      not\n      and\n      swap1\n      dup4\n      0xffffffffffffffffffffffffffffffffffffffff\n      and\n      mul\n      or\n      swap1\n      sstore\n      pop\n        /* \"/home/cuv/Work/blockchain/eth-crowdfund/ethereum/contracts/CampaignFactory.sol\":161:299  function createCampaign(uint minimumContribution) public {... */\n      pop\n      jump\t// out\n        /* \"/home/cuv/Work/blockchain/eth-crowdfund/ethereum/contracts/CampaignFactory.sol\":303:402  function getCampaigns() public view returns(CrowdfundCampaign[] memory) {... */\n    tag_16:\n        /* \"/home/cuv/Work/blockchain/eth-crowdfund/ethereum/contracts/CampaignFactory.sol\":347:373  CrowdfundCampaign[] memory */\n      0x60\n        /* \"/home/cuv/Work/blockchain/eth-crowdfund/ethereum/contracts/CampaignFactory.sol\":388:397  campaigns */\n      0x00\n        /* \"/home/cuv/Work/blockchain/eth-crowdfund/ethereum/contracts/CampaignFactory.sol\":381:397  return campaigns */\n      dup1\n      sload\n      dup1\n      0x20\n      mul\n      0x20\n      add\n      mload(0x40)\n      swap1\n      dup2\n      add\n      0x40\n      mstore\n      dup1\n      swap3\n      swap2\n      swap1\n      dup2\n      dup2\n      mstore\n      0x20\n      add\n      dup3\n      dup1\n      sload\n      dup1\n      iszero\n      tag_29\n      jumpi\n      0x20\n      mul\n      dup3\n      add\n      swap2\n      swap1\n      0x00\n      mstore\n      keccak256(0x00, 0x20)\n      swap1\n    tag_30:\n      dup2\n      0x00\n      swap1\n      sload\n      swap1\n      0x0100\n      exp\n      swap1\n      div\n      0xffffffffffffffffffffffffffffffffffffffff\n      and\n      0xffffffffffffffffffffffffffffffffffffffff\n      and\n      dup2\n      mstore\n      0x20\n      add\n      swap1\n      0x01\n      add\n      swap1\n      dup1\n      dup4\n      gt\n      tag_30\n      jumpi\n    tag_29:\n      pop\n      pop\n      pop\n      pop\n      pop\n      swap1\n      pop\n        /* \"/home/cuv/Work/blockchain/eth-crowdfund/ethereum/contracts/CampaignFactory.sol\":303:402  function getCampaigns() public view returns(CrowdfundCampaign[] memory) {... */\n      swap1\n      jump\t// out\n    tag_23:\n      dataSize(sub_0)\n      dup1\n      dataOffset(sub_0)\n      dup4\n      codecopy\n      add\n      swap1\n      jump\t// out\n        /* \"#utility.yul\":7:146   */\n    tag_32:\n      0x00\n        /* \"#utility.yul\":91:97   */\n      dup2\n        /* \"#utility.yul\":78:98   */\n      calldataload\n        /* \"#utility.yul\":69:98   */\n      swap1\n      pop\n        /* \"#utility.yul\":107:140   */\n      tag_34\n        /* \"#utility.yul\":134:139   */\n      dup2\n        /* \"#utility.yul\":107:140   */\n      tag_35\n      jump\t// in\n    tag_34:\n        /* \"#utility.yul\":59:146   */\n      swap3\n      swap2\n      pop\n      pop\n      jump\t// out\n        /* \"#utility.yul\":152:414   */\n    tag_8:\n      0x00\n        /* \"#utility.yul\":260:262   */\n      0x20\n        /* \"#utility.yul\":248:257   */\n      dup3\n        /* \"#utility.yul\":239:246   */\n      dup5\n        /* \"#utility.yul\":235:258   */\n      sub\n        /* \"#utility.yul\":231:263   */\n      slt\n        /* \"#utility.yul\":228:230   */\n      iszero\n      tag_37\n      jumpi\n        /* \"#utility.yul\":276:277   */\n      0x00\n        /* \"#utility.yul\":273:274   */\n      dup1\n        /* \"#utility.yul\":266:278   */\n      revert\n        /* \"#utility.yul\":228:230   */\n    tag_37:\n        /* \"#utility.yul\":319:320   */\n      0x00\n        /* \"#utility.yul\":344:397   */\n      tag_38\n        /* \"#utility.yul\":389:396   */\n      dup5\n        /* \"#utility.yul\":380:386   */\n      dup3\n        /* \"#utility.yul\":369:378   */\n      dup6\n        /* \"#utility.yul\":365:387   */\n      add\n        /* \"#utility.yul\":344:397   */\n      tag_32\n      jump\t// in\n    tag_38:\n        /* \"#utility.yul\":334:397   */\n      swap2\n      pop\n        /* \"#utility.yul\":290:407   */\n      pop\n        /* \"#utility.yul\":218:414   */\n      swap3\n      swap2\n      pop\n      pop\n      jump\t// out\n        /* \"#utility.yul\":420:649   */\n    tag_39:\n      0x00\n        /* \"#utility.yul\":535:606   */\n      tag_41\n        /* \"#utility.yul\":602:605   */\n      dup4\n        /* \"#utility.yul\":594:600   */\n      dup4\n        /* \"#utility.yul\":535:606   */\n      tag_42\n      jump\t// in\n    tag_41:\n        /* \"#utility.yul\":638:642   */\n      0x20\n        /* \"#utility.yul\":633:636   */\n      dup4\n        /* \"#utility.yul\":629:643   */\n      add\n        /* \"#utility.yul\":615:643   */\n      swap1\n      pop\n        /* \"#utility.yul\":525:649   */\n      swap3\n      swap2\n      pop\n      pop\n      jump\t// out\n        /* \"#utility.yul\":655:773   */\n    tag_43:\n        /* \"#utility.yul\":742:766   */\n      tag_45\n        /* \"#utility.yul\":760:765   */\n      dup2\n        /* \"#utility.yul\":742:766   */\n      tag_46\n      jump\t// in\n    tag_45:\n        /* \"#utility.yul\":737:740   */\n      dup3\n        /* \"#utility.yul\":730:767   */\n      mstore\n        /* \"#utility.yul\":720:773   */\n      pop\n      pop\n      jump\t// out\n        /* \"#utility.yul\":828:1685   */\n    tag_47:\n      0x00\n        /* \"#utility.yul\":1001:1080   */\n      tag_49\n        /* \"#utility.yul\":1074:1079   */\n      dup3\n        /* \"#utility.yul\":1001:1080   */\n      tag_50\n      jump\t// in\n    tag_49:\n        /* \"#utility.yul\":1096:1182   */\n      tag_51\n        /* \"#utility.yul\":1175:1181   */\n      dup2\n        /* \"#utility.yul\":1170:1173   */\n      dup6\n        /* \"#utility.yul\":1096:1182   */\n      tag_52\n      jump\t// in\n    tag_51:\n        /* \"#utility.yul\":1089:1182   */\n      swap4\n      pop\n        /* \"#utility.yul\":1206:1287   */\n      tag_53\n        /* \"#utility.yul\":1281:1286   */\n      dup4\n        /* \"#utility.yul\":1206:1287   */\n      tag_54\n      jump\t// in\n    tag_53:\n        /* \"#utility.yul\":1310:1317   */\n      dup1\n        /* \"#utility.yul\":1341:1342   */\n      0x00\n        /* \"#utility.yul\":1326:1660   */\n    tag_55:\n        /* \"#utility.yul\":1351:1357   */\n      dup4\n        /* \"#utility.yul\":1348:1349   */\n      dup2\n        /* \"#utility.yul\":1345:1358   */\n      lt\n        /* \"#utility.yul\":1326:1660   */\n      iszero\n      tag_57\n      jumpi\n        /* \"#utility.yul\":1427:1433   */\n      dup2\n        /* \"#utility.yul\":1421:1434   */\n      mload\n        /* \"#utility.yul\":1454:1542   */\n      tag_58\n        /* \"#utility.yul\":1538:1541   */\n      dup9\n        /* \"#utility.yul\":1523:1536   */\n      dup3\n        /* \"#utility.yul\":1454:1542   */\n      tag_39\n      jump\t// in\n    tag_58:\n        /* \"#utility.yul\":1447:1542   */\n      swap8\n      pop\n        /* \"#utility.yul\":1565:1650   */\n      tag_59\n        /* \"#utility.yul\":1643:1649   */\n      dup4\n        /* \"#utility.yul\":1565:1650   */\n      tag_60\n      jump\t// in\n    tag_59:\n        /* \"#utility.yul\":1555:1650   */\n      swap3\n      pop\n        /* \"#utility.yul\":1386:1660   */\n      pop\n        /* \"#utility.yul\":1373:1374   */\n      0x01\n        /* \"#utility.yul\":1370:1371   */\n      dup2\n        /* \"#utility.yul\":1366:1375   */\n      add\n        /* \"#utility.yul\":1361:1375   */\n      swap1\n      pop\n        /* \"#utility.yul\":1326:1660   */\n      jump(tag_55)\n    tag_57:\n        /* \"#utility.yul\":1330:1344   */\n      pop\n        /* \"#utility.yul\":1676:1679   */\n      dup6\n        /* \"#utility.yul\":1669:1679   */\n      swap4\n      pop\n        /* \"#utility.yul\":977:1685   */\n      pop\n      pop\n      pop\n      swap3\n      swap2\n      pop\n      pop\n      jump\t// out\n        /* \"#utility.yul\":1691:1862   */\n    tag_42:\n        /* \"#utility.yul\":1793:1855   */\n      tag_62\n        /* \"#utility.yul\":1849:1854   */\n      dup2\n        /* \"#utility.yul\":1793:1855   */\n      tag_63\n      jump\t// in\n    tag_62:\n        /* \"#utility.yul\":1788:1791   */\n      dup3\n        /* \"#utility.yul\":1781:1856   */\n      mstore\n        /* \"#utility.yul\":1771:1862   */\n      pop\n      pop\n      jump\t// out\n        /* \"#utility.yul\":1868:2049   */\n    tag_64:\n        /* \"#utility.yul\":1980:2042   */\n      tag_66\n        /* \"#utility.yul\":2036:2041   */\n      dup2\n        /* \"#utility.yul\":1980:2042   */\n      tag_63\n      jump\t// in\n    tag_66:\n        /* \"#utility.yul\":1975:1978   */\n      dup3\n        /* \"#utility.yul\":1968:2043   */\n      mstore\n        /* \"#utility.yul\":1958:2049   */\n      pop\n      pop\n      jump\t// out\n        /* \"#utility.yul\":2055:2173   */\n    tag_67:\n        /* \"#utility.yul\":2142:2166   */\n      tag_69\n        /* \"#utility.yul\":2160:2165   */\n      dup2\n        /* \"#utility.yul\":2142:2166   */\n      tag_70\n      jump\t// in\n    tag_69:\n        /* \"#utility.yul\":2137:2140   */\n      dup3\n        /* \"#utility.yul\":2130:2167   */\n      mstore\n        /* \"#utility.yul\":2120:2173   */\n      pop\n      pop\n      jump\t// out\n        /* \"#utility.yul\":2179:2602   */\n    tag_18:\n      0x00\n        /* \"#utility.yul\":2385:2387   */\n      0x20\n        /* \"#utility.yul\":2374:2383   */\n      dup3\n        /* \"#utility.yul\":2370:2388   */\n      add\n        /* \"#utility.yul\":2362:2388   */\n      swap1\n      pop\n        /* \"#utility.yul\":2434:2443   */\n      dup2\n        /* \"#utility.yul\":2428:2432   */\n      dup2\n        /* \"#utility.yul\":2424:2444   */\n      sub\n        /* \"#utility.yul\":2420:2421   */\n      0x00\n        /* \"#utility.yul\":2409:2418   */\n      dup4\n        /* \"#utility.yul\":2405:2422   */\n      add\n        /* \"#utility.yul\":2398:2445   */\n      mstore\n        /* \"#utility.yul\":2462:2595   */\n      tag_72\n        /* \"#utility.yul\":2590:2594   */\n      dup2\n        /* \"#utility.yul\":2581:2587   */\n      dup5\n        /* \"#utility.yul\":2462:2595   */\n      tag_47\n      jump\t// in\n    tag_72:\n        /* \"#utility.yul\":2454:2595   */\n      swap1\n      pop\n        /* \"#utility.yul\":2352:2602   */\n      swap3\n      swap2\n      pop\n      pop\n      jump\t// out\n        /* \"#utility.yul\":2608:2880   */\n    tag_11:\n      0x00\n        /* \"#utility.yul\":2764:2766   */\n      0x20\n        /* \"#utility.yul\":2753:2762   */\n      dup3\n        /* \"#utility.yul\":2749:2767   */\n      add\n        /* \"#utility.yul\":2741:2767   */\n      swap1\n      pop\n        /* \"#utility.yul\":2777:2873   */\n      tag_74\n        /* \"#utility.yul\":2870:2871   */\n      0x00\n        /* \"#utility.yul\":2859:2868   */\n      dup4\n        /* \"#utility.yul\":2855:2872   */\n      add\n        /* \"#utility.yul\":2846:2852   */\n      dup5\n        /* \"#utility.yul\":2777:2873   */\n      tag_64\n      jump\t// in\n    tag_74:\n        /* \"#utility.yul\":2731:2880   */\n      swap3\n      swap2\n      pop\n      pop\n      jump\t// out\n        /* \"#utility.yul\":2886:3218   */\n    tag_25:\n      0x00\n        /* \"#utility.yul\":3045:3047   */\n      0x40\n        /* \"#utility.yul\":3034:3043   */\n      dup3\n        /* \"#utility.yul\":3030:3048   */\n      add\n        /* \"#utility.yul\":3022:3048   */\n      swap1\n      pop\n        /* \"#utility.yul\":3058:3129   */\n      tag_76\n        /* \"#utility.yul\":3126:3127   */\n      0x00\n        /* \"#utility.yul\":3115:3124   */\n      dup4\n        /* \"#utility.yul\":3111:3128   */\n      add\n        /* \"#utility.yul\":3102:3108   */\n      dup6\n        /* \"#utility.yul\":3058:3129   */\n      tag_67\n      jump\t// in\n    tag_76:\n        /* \"#utility.yul\":3139:3211   */\n      tag_77\n        /* \"#utility.yul\":3207:3209   */\n      0x20\n        /* \"#utility.yul\":3196:3205   */\n      dup4\n        /* \"#utility.yul\":3192:3210   */\n      add\n        /* \"#utility.yul\":3183:3189   */\n      dup5\n        /* \"#utility.yul\":3139:3211   */\n      tag_43\n      jump\t// in\n    tag_77:\n        /* \"#utility.yul\":3012:3218   */\n      swap4\n      swap3\n      pop\n      pop\n      pop\n      jump\t// out\n        /* \"#utility.yul\":3224:3381   */\n    tag_54:\n      0x00\n        /* \"#utility.yul\":3339:3342   */\n      dup2\n        /* \"#utility.yul\":3331:3342   */\n      swap1\n      pop\n        /* \"#utility.yul\":3369:3373   */\n      0x20\n        /* \"#utility.yul\":3364:3367   */\n      dup3\n        /* \"#utility.yul\":3360:3374   */\n      add\n        /* \"#utility.yul\":3352:3374   */\n      swap1\n      pop\n        /* \"#utility.yul\":3321:3381   */\n      swap2\n      swap1\n      pop\n      jump\t// out\n        /* \"#utility.yul\":3387:3526   */\n    tag_50:\n      0x00\n        /* \"#utility.yul\":3513:3518   */\n      dup2\n        /* \"#utility.yul\":3507:3519   */\n      mload\n        /* \"#utility.yul\":3497:3519   */\n      swap1\n      pop\n        /* \"#utility.yul\":3486:3526   */\n      swap2\n      swap1\n      pop\n      jump\t// out\n        /* \"#utility.yul\":3532:3670   */\n    tag_60:\n      0x00\n        /* \"#utility.yul\":3659:3663   */\n      0x20\n        /* \"#utility.yul\":3654:3657   */\n      dup3\n        /* \"#utility.yul\":3650:3664   */\n      add\n        /* \"#utility.yul\":3642:3664   */\n      swap1\n      pop\n        /* \"#utility.yul\":3632:3670   */\n      swap2\n      swap1\n      pop\n      jump\t// out\n        /* \"#utility.yul\":3676:3860   */\n    tag_52:\n      0x00\n        /* \"#utility.yul\":3809:3815   */\n      dup3\n        /* \"#utility.yul\":3804:3807   */\n      dup3\n        /* \"#utility.yul\":3797:3816   */\n      mstore\n        /* \"#utility.yul\":3849:3853   */\n      0x20\n        /* \"#utility.yul\":3844:3847   */\n      dup3\n        /* \"#utility.yul\":3840:3854   */\n      add\n        /* \"#utility.yul\":3825:3854   */\n      swap1\n      pop\n        /* \"#utility.yul\":3787:3860   */\n      swap3\n      swap2\n      pop\n      pop\n      jump\t// out\n        /* \"#utility.yul\":3866:3962   */\n    tag_46:\n      0x00\n        /* \"#utility.yul\":3932:3956   */\n      tag_83\n        /* \"#utility.yul\":3950:3955   */\n      dup3\n        /* \"#utility.yul\":3932:3956   */\n      tag_84\n      jump\t// in\n    tag_83:\n        /* \"#utility.yul\":3921:3956   */\n      swap1\n      pop\n        /* \"#utility.yul\":3911:3962   */\n      swap2\n      swap1\n      pop\n      jump\t// out\n        /* \"#utility.yul\":3968:4094   */\n    tag_84:\n      0x00\n        /* \"#utility.yul\":4045:4087   */\n      0xffffffffffffffffffffffffffffffffffffffff\n        /* \"#utility.yul\":4038:4043   */\n      dup3\n        /* \"#utility.yul\":4034:4088   */\n      and\n        /* \"#utility.yul\":4023:4088   */\n      swap1\n      pop\n        /* \"#utility.yul\":4013:4094   */\n      swap2\n      swap1\n      pop\n      jump\t// out\n        /* \"#utility.yul\":4100:4177   */\n    tag_70:\n      0x00\n        /* \"#utility.yul\":4166:4171   */\n      dup2\n        /* \"#utility.yul\":4155:4171   */\n      swap1\n      pop\n        /* \"#utility.yul\":4145:4177   */\n      swap2\n      swap1\n      pop\n      jump\t// out\n        /* \"#utility.yul\":4183:4359   */\n    tag_63:\n      0x00\n        /* \"#utility.yul\":4291:4353   */\n      tag_88\n        /* \"#utility.yul\":4347:4352   */\n      dup3\n        /* \"#utility.yul\":4291:4353   */\n      tag_89\n      jump\t// in\n    tag_88:\n        /* \"#utility.yul\":4278:4353   */\n      swap1\n      pop\n        /* \"#utility.yul\":4268:4359   */\n      swap2\n      swap1\n      pop\n      jump\t// out\n        /* \"#utility.yul\":4365:4503   */\n    tag_89:\n      0x00\n        /* \"#utility.yul\":4473:4497   */\n      tag_91\n        /* \"#utility.yul\":4491:4496   */\n      dup3\n        /* \"#utility.yul\":4473:4497   */\n      tag_84\n      jump\t// in\n    tag_91:\n        /* \"#utility.yul\":4460:4497   */\n      swap1\n      pop\n        /* \"#utility.yul\":4450:4503   */\n      swap2\n      swap1\n      pop\n      jump\t// out\n        /* \"#utility.yul\":4509:4631   */\n    tag_35:\n        /* \"#utility.yul\":4582:4606   */\n      tag_93\n        /* \"#utility.yul\":4600:4605   */\n      dup2\n        /* \"#utility.yul\":4582:4606   */\n      tag_70\n      jump\t// in\n    tag_93:\n        /* \"#utility.yul\":4575:4580   */\n      dup2\n        /* \"#utility.yul\":4572:4607   */\n      eq\n        /* \"#utility.yul\":4562:4564   */\n      tag_94\n      jumpi\n        /* \"#utility.yul\":4621:4622   */\n      0x00\n        /* \"#utility.yul\":4618:4619   */\n      dup1\n        /* \"#utility.yul\":4611:4623   */\n      revert\n        /* \"#utility.yul\":4562:4564   */\n    tag_94:\n        /* \"#utility.yul\":4552:4631   */\n      pop\n      jump\t// out\n    stop\n\n    sub_0: assembly {\n            /* \"/home/cuv/Work/blockchain/eth-crowdfund/ethereum/contracts/CrowdfundCampaign.sol\":56:1973  contract CrowdfundCampaign {... */\n          mstore(0x40, 0x80)\n            /* \"/home/cuv/Work/blockchain/eth-crowdfund/ethereum/contracts/CrowdfundCampaign.sol\":559:675  constructor(uint minimum, address campaignOwner) {... */\n          callvalue\n          dup1\n          iszero\n          tag_1\n          jumpi\n          0x00\n          dup1\n          revert\n        tag_1:\n          pop\n          mload(0x40)\n          sub(codesize, bytecodeSize)\n          dup1\n          bytecodeSize\n          dup4\n          codecopy\n          dup2\n          dup2\n          add\n          0x40\n          mstore\n          dup2\n          add\n          swap1\n          tag_2\n          swap2\n          swap1\n          tag_3\n          jump\t// in\n        tag_2:\n            /* \"/home/cuv/Work/blockchain/eth-crowdfund/ethereum/contracts/CrowdfundCampaign.sol\":636:643  minimum */\n          dup2\n            /* \"/home/cuv/Work/blockchain/eth-crowdfund/ethereum/contracts/CrowdfundCampaign.sol\":614:633  minimumContribution */\n          0x01\n            /* \"/home/cuv/Work/blockchain/eth-crowdfund/ethereum/contracts/CrowdfundCampaign.sol\":614:643  minimumContribution = minimum */\n          dup2\n          swap1\n          sstore\n          pop\n            /* \"/home/cuv/Work/blockchain/eth-crowdfund/ethereum/contracts/CrowdfundCampaign.sol\":657:670  campaignOwner */\n          dup1\n            /* \"/home/cuv/Work/blockchain/eth-crowdfund/ethereum/contracts/CrowdfundCampaign.sol\":649:654  owner */\n          0x00\n          dup1\n            /* \"/home/cuv/Work/blockchain/eth-crowdfund/ethereum/contracts/CrowdfundCampaign.sol\":649:670  owner = campaignOwner */\n          0x0100\n          exp\n          dup2\n          sload\n          dup2\n          0xffffffffffffffffffffffffffffffffffffffff\n          mul\n          not\n          and\n          swap1\n          dup4\n          0xffffffffffffffffffffffffffffffffffffffff\n          and\n          mul\n          or\n          swap1\n          sstore\n          pop\n            /* \"/home/cuv/Work/blockchain/eth-crowdfund/ethereum/contracts/CrowdfundCampaign.sol\":559:675  constructor(uint minimum, address campaignOwner) {... */\n          pop\n          pop\n            /* \"/home/cuv/Work/blockchain/eth-crowdfund/ethereum/contracts/CrowdfundCampaign.sol\":56:1973  contract CrowdfundCampaign {... */\n          jump(tag_6)\n            /* \"#utility.yul\":7:150   */\n        tag_8:\n          0x00\n            /* \"#utility.yul\":95:101   */\n          dup2\n            /* \"#utility.yul\":89:102   */\n          mload\n            /* \"#utility.yul\":80:102   */\n          swap1\n          pop\n            /* \"#utility.yul\":111:144   */\n          tag_10\n            /* \"#utility.yul\":138:143   */\n          dup2\n            /* \"#utility.yul\":111:144   */\n          tag_11\n          jump\t// in\n        tag_10:\n            /* \"#utility.yul\":70:150   */\n          swap3\n          swap2\n          pop\n          pop\n          jump\t// out\n            /* \"#utility.yul\":156:299   */\n        tag_12:\n          0x00\n            /* \"#utility.yul\":244:250   */\n          dup2\n            /* \"#utility.yul\":238:251   */\n          mload\n            /* \"#utility.yul\":229:251   */\n          swap1\n          pop\n            /* \"#utility.yul\":260:293   */\n          tag_14\n            /* \"#utility.yul\":287:292   */\n          dup2\n            /* \"#utility.yul\":260:293   */\n          tag_15\n          jump\t// in\n        tag_14:\n            /* \"#utility.yul\":219:299   */\n          swap3\n          swap2\n          pop\n          pop\n          jump\t// out\n            /* \"#utility.yul\":305:745   */\n        tag_3:\n          0x00\n          dup1\n            /* \"#utility.yul\":441:443   */\n          0x40\n            /* \"#utility.yul\":429:438   */\n          dup4\n            /* \"#utility.yul\":420:427   */\n          dup6\n            /* \"#utility.yul\":416:439   */\n          sub\n            /* \"#utility.yul\":412:444   */\n          slt\n            /* \"#utility.yul\":409:411   */\n          iszero\n          tag_17\n          jumpi\n            /* \"#utility.yul\":457:458   */\n          0x00\n            /* \"#utility.yul\":454:455   */\n          dup1\n            /* \"#utility.yul\":447:459   */\n          revert\n            /* \"#utility.yul\":409:411   */\n        tag_17:\n            /* \"#utility.yul\":500:501   */\n          0x00\n            /* \"#utility.yul\":525:589   */\n          tag_18\n            /* \"#utility.yul\":581:588   */\n          dup6\n            /* \"#utility.yul\":572:578   */\n          dup3\n            /* \"#utility.yul\":561:570   */\n          dup7\n            /* \"#utility.yul\":557:579   */\n          add\n            /* \"#utility.yul\":525:589   */\n          tag_12\n          jump\t// in\n        tag_18:\n            /* \"#utility.yul\":515:589   */\n          swap3\n          pop\n            /* \"#utility.yul\":471:599   */\n          pop\n            /* \"#utility.yul\":638:640   */\n          0x20\n            /* \"#utility.yul\":664:728   */\n          tag_19\n            /* \"#utility.yul\":720:727   */\n          dup6\n            /* \"#utility.yul\":711:717   */\n          dup3\n            /* \"#utility.yul\":700:709   */\n          dup7\n            /* \"#utility.yul\":696:718   */\n          add\n            /* \"#utility.yul\":664:728   */\n          tag_8\n          jump\t// in\n        tag_19:\n            /* \"#utility.yul\":654:728   */\n          swap2\n          pop\n            /* \"#utility.yul\":609:738   */\n          pop\n            /* \"#utility.yul\":399:745   */\n          swap3\n          pop\n          swap3\n          swap1\n          pop\n          jump\t// out\n            /* \"#utility.yul\":751:847   */\n        tag_20:\n          0x00\n            /* \"#utility.yul\":817:841   */\n          tag_22\n            /* \"#utility.yul\":835:840   */\n          dup3\n            /* \"#utility.yul\":817:841   */\n          tag_23\n          jump\t// in\n        tag_22:\n            /* \"#utility.yul\":806:841   */\n          swap1\n          pop\n            /* \"#utility.yul\":796:847   */\n          swap2\n          swap1\n          pop\n          jump\t// out\n            /* \"#utility.yul\":853:979   */\n        tag_23:\n          0x00\n            /* \"#utility.yul\":930:972   */\n          0xffffffffffffffffffffffffffffffffffffffff\n            /* \"#utility.yul\":923:928   */\n          dup3\n            /* \"#utility.yul\":919:973   */\n          and\n            /* \"#utility.yul\":908:973   */\n          swap1\n          pop\n            /* \"#utility.yul\":898:979   */\n          swap2\n          swap1\n          pop\n          jump\t// out\n            /* \"#utility.yul\":985:1062   */\n        tag_25:\n          0x00\n            /* \"#utility.yul\":1051:1056   */\n          dup2\n            /* \"#utility.yul\":1040:1056   */\n          swap1\n          pop\n            /* \"#utility.yul\":1030:1062   */\n          swap2\n          swap1\n          pop\n          jump\t// out\n            /* \"#utility.yul\":1068:1190   */\n        tag_11:\n            /* \"#utility.yul\":1141:1165   */\n          tag_28\n            /* \"#utility.yul\":1159:1164   */\n          dup2\n            /* \"#utility.yul\":1141:1165   */\n          tag_20\n          jump\t// in\n        tag_28:\n            /* \"#utility.yul\":1134:1139   */\n          dup2\n            /* \"#utility.yul\":1131:1166   */\n          eq\n            /* \"#utility.yul\":1121:1123   */\n          tag_29\n          jumpi\n            /* \"#utility.yul\":1180:1181   */\n          0x00\n            /* \"#utility.yul\":1177:1178   */\n          dup1\n            /* \"#utility.yul\":1170:1182   */\n          revert\n            /* \"#utility.yul\":1121:1123   */\n        tag_29:\n            /* \"#utility.yul\":1111:1190   */\n          pop\n          jump\t// out\n            /* \"#utility.yul\":1196:1318   */\n        tag_15:\n            /* \"#utility.yul\":1269:1293   */\n          tag_31\n            /* \"#utility.yul\":1287:1292   */\n          dup2\n            /* \"#utility.yul\":1269:1293   */\n          tag_25\n          jump\t// in\n        tag_31:\n            /* \"#utility.yul\":1262:1267   */\n          dup2\n            /* \"#utility.yul\":1259:1294   */\n          eq\n            /* \"#utility.yul\":1249:1251   */\n          tag_32\n          jumpi\n            /* \"#utility.yul\":1308:1309   */\n          0x00\n            /* \"#utility.yul\":1305:1306   */\n          dup1\n            /* \"#utility.yul\":1298:1310   */\n          revert\n            /* \"#utility.yul\":1249:1251   */\n        tag_32:\n            /* \"#utility.yul\":1239:1318   */\n          pop\n          jump\t// out\n            /* \"/home/cuv/Work/blockchain/eth-crowdfund/ethereum/contracts/CrowdfundCampaign.sol\":56:1973  contract CrowdfundCampaign {... */\n        tag_6:\n          dataSize(sub_0)\n          dup1\n          dataOffset(sub_0)\n          0x00\n          codecopy\n          0x00\n          return\n        stop\n\n        sub_0: assembly {\n                /* \"/home/cuv/Work/blockchain/eth-crowdfund/ethereum/contracts/CrowdfundCampaign.sol\":56:1973  contract CrowdfundCampaign {... */\n              mstore(0x40, 0x80)\n              jumpi(tag_1, lt(calldatasize, 0x04))\n              shr(0xe0, calldataload(0x00))\n              dup1\n              0x8a9cfd55\n              gt\n              tag_11\n              jumpi\n              dup1\n              0x8a9cfd55\n              eq\n              tag_6\n              jumpi\n              dup1\n              0x8da5cb5b\n              eq\n              tag_7\n              jumpi\n              dup1\n              0x937e09b1\n              eq\n              tag_8\n              jumpi\n              dup1\n              0xd7bb99ba\n              eq\n              tag_9\n              jumpi\n              dup1\n              0xd7d1bbdb\n              eq\n              tag_10\n              jumpi\n              jump(tag_1)\n            tag_11:\n              dup1\n              0x03441006\n              eq\n              tag_2\n              jumpi\n              dup1\n              0x1f6d4942\n              eq\n              tag_3\n              jumpi\n              dup1\n              0x7569b3d7\n              eq\n              tag_4\n              jumpi\n              dup1\n              0x81d12c58\n              eq\n              tag_5\n              jumpi\n            tag_1:\n              0x00\n              dup1\n              revert\n                /* \"/home/cuv/Work/blockchain/eth-crowdfund/ethereum/contracts/CrowdfundCampaign.sol\":1631:1971  function finalizeRequest(uint id) public payable ownerOnly {... */\n            tag_2:\n              tag_12\n              0x04\n              dup1\n              calldatasize\n              sub\n              dup2\n              add\n              swap1\n              tag_13\n              swap2\n              swap1\n              tag_14\n              jump\t// in\n            tag_13:\n              tag_15\n              jump\t// in\n            tag_12:\n              stop\n                /* \"/home/cuv/Work/blockchain/eth-crowdfund/ethereum/contracts/CrowdfundCampaign.sol\":440:484  mapping(address => bool) public contributors */\n            tag_3:\n              callvalue\n              dup1\n              iszero\n              tag_16\n              jumpi\n              0x00\n              dup1\n              revert\n            tag_16:\n              pop\n              tag_17\n              0x04\n              dup1\n              calldatasize\n              sub\n              dup2\n              add\n              swap1\n              tag_18\n              swap2\n              swap1\n              tag_19\n              jump\t// in\n            tag_18:\n              tag_20\n              jump\t// in\n            tag_17:\n              mload(0x40)\n              tag_21\n              swap2\n              swap1\n              tag_22\n              jump\t// in\n            tag_21:\n              mload(0x40)\n              dup1\n              swap2\n              sub\n              swap1\n              return\n                /* \"/home/cuv/Work/blockchain/eth-crowdfund/ethereum/contracts/CrowdfundCampaign.sol\":488:517  uint public contributorsCount */\n            tag_4:\n              callvalue\n              dup1\n              iszero\n              tag_23\n              jumpi\n              0x00\n              dup1\n              revert\n            tag_23:\n              pop\n              tag_24\n              tag_25\n              jump\t// in\n            tag_24:\n              mload(0x40)\n              tag_26\n              swap2\n              swap1\n              tag_27\n              jump\t// in\n            tag_26:\n              mload(0x40)\n              dup1\n              swap2\n              sub\n              swap1\n              return\n                /* \"/home/cuv/Work/blockchain/eth-crowdfund/ethereum/contracts/CrowdfundCampaign.sol\":521:554  SpendingRequest[] public requests */\n            tag_5:\n              callvalue\n              dup1\n              iszero\n              tag_28\n              jumpi\n              0x00\n              dup1\n              revert\n            tag_28:\n              pop\n              tag_29\n              0x04\n              dup1\n              calldatasize\n              sub\n              dup2\n              add\n              swap1\n              tag_30\n              swap2\n              swap1\n              tag_14\n              jump\t// in\n            tag_30:\n              tag_31\n              jump\t// in\n            tag_29:\n              mload(0x40)\n              tag_32\n              swap6\n              swap5\n              swap4\n              swap3\n              swap2\n              swap1\n              tag_33\n              jump\t// in\n            tag_32:\n              mload(0x40)\n              dup1\n              swap2\n              sub\n              swap1\n              return\n                /* \"/home/cuv/Work/blockchain/eth-crowdfund/ethereum/contracts/CrowdfundCampaign.sol\":941:1271  function createRequest(string memory description, uint value, address payable recipient) public ownerOnly {... */\n            tag_6:\n              callvalue\n              dup1\n              iszero\n              tag_34\n              jumpi\n              0x00\n              dup1\n              revert\n            tag_34:\n              pop\n              tag_35\n              0x04\n              dup1\n              calldatasize\n              sub\n              dup2\n              add\n              swap1\n              tag_36\n              swap2\n              swap1\n              tag_37\n              jump\t// in\n            tag_36:\n              tag_38\n              jump\t// in\n            tag_35:\n              stop\n                /* \"/home/cuv/Work/blockchain/eth-crowdfund/ethereum/contracts/CrowdfundCampaign.sol\":381:401  address public owner */\n            tag_7:\n              callvalue\n              dup1\n              iszero\n              tag_39\n              jumpi\n              0x00\n              dup1\n              revert\n            tag_39:\n              pop\n              tag_40\n              tag_41\n              jump\t// in\n            tag_40:\n              mload(0x40)\n              tag_42\n              swap2\n              swap1\n              tag_43\n              jump\t// in\n            tag_42:\n              mload(0x40)\n              dup1\n              swap2\n              sub\n              swap1\n              return\n                /* \"/home/cuv/Work/blockchain/eth-crowdfund/ethereum/contracts/CrowdfundCampaign.sol\":405:436  uint public minimumContribution */\n            tag_8:\n              callvalue\n              dup1\n              iszero\n              tag_44\n              jumpi\n              0x00\n              dup1\n              revert\n            tag_44:\n              pop\n              tag_45\n              tag_46\n              jump\t// in\n            tag_45:\n              mload(0x40)\n              tag_47\n              swap2\n              swap1\n              tag_27\n              jump\t// in\n            tag_47:\n              mload(0x40)\n              dup1\n              swap2\n              sub\n              swap1\n              return\n                /* \"/home/cuv/Work/blockchain/eth-crowdfund/ethereum/contracts/CrowdfundCampaign.sol\":679:937  function contribute() public payable {... */\n            tag_9:\n              tag_48\n              tag_49\n              jump\t// in\n            tag_48:\n              stop\n                /* \"/home/cuv/Work/blockchain/eth-crowdfund/ethereum/contracts/CrowdfundCampaign.sol\":1275:1627  function approveRequest(uint id) public {... */\n            tag_10:\n              callvalue\n              dup1\n              iszero\n              tag_50\n              jumpi\n              0x00\n              dup1\n              revert\n            tag_50:\n              pop\n              tag_51\n              0x04\n              dup1\n              calldatasize\n              sub\n              dup2\n              add\n              swap1\n              tag_52\n              swap2\n              swap1\n              tag_14\n              jump\t// in\n            tag_52:\n              tag_53\n              jump\t// in\n            tag_51:\n              stop\n                /* \"/home/cuv/Work/blockchain/eth-crowdfund/ethereum/contracts/CrowdfundCampaign.sol\":1631:1971  function finalizeRequest(uint id) public payable ownerOnly {... */\n            tag_15:\n                /* \"/home/cuv/Work/blockchain/eth-crowdfund/ethereum/contracts/CrowdfundCampaign.sol\":322:327  owner */\n              0x00\n              dup1\n              sload\n              swap1\n              0x0100\n              exp\n              swap1\n              div\n              0xffffffffffffffffffffffffffffffffffffffff\n              and\n                /* \"/home/cuv/Work/blockchain/eth-crowdfund/ethereum/contracts/CrowdfundCampaign.sol\":308:327  msg.sender == owner */\n              0xffffffffffffffffffffffffffffffffffffffff\n              and\n                /* \"/home/cuv/Work/blockchain/eth-crowdfund/ethereum/contracts/CrowdfundCampaign.sol\":308:318  msg.sender */\n              caller\n                /* \"/home/cuv/Work/blockchain/eth-crowdfund/ethereum/contracts/CrowdfundCampaign.sol\":308:327  msg.sender == owner */\n              0xffffffffffffffffffffffffffffffffffffffff\n              and\n              eq\n                /* \"/home/cuv/Work/blockchain/eth-crowdfund/ethereum/contracts/CrowdfundCampaign.sol\":300:365  require(msg.sender == owner, \"Operation reserved for owner only\") */\n              tag_55\n              jumpi\n              mload(0x40)\n              0x08c379a000000000000000000000000000000000000000000000000000000000\n              dup2\n              mstore\n              0x04\n              add\n              tag_56\n              swap1\n              tag_57\n              jump\t// in\n            tag_56:\n              mload(0x40)\n              dup1\n              swap2\n              sub\n              swap1\n              revert\n            tag_55:\n                /* \"/home/cuv/Work/blockchain/eth-crowdfund/ethereum/contracts/CrowdfundCampaign.sol\":1696:1727  SpendingRequest storage request */\n              0x00\n                /* \"/home/cuv/Work/blockchain/eth-crowdfund/ethereum/contracts/CrowdfundCampaign.sol\":1730:1738  requests */\n              0x04\n                /* \"/home/cuv/Work/blockchain/eth-crowdfund/ethereum/contracts/CrowdfundCampaign.sol\":1739:1741  id */\n              dup3\n                /* \"/home/cuv/Work/blockchain/eth-crowdfund/ethereum/contracts/CrowdfundCampaign.sol\":1730:1742  requests[id] */\n              dup2\n              sload\n              dup2\n              lt\n              tag_59\n              jumpi\n              mstore(0x00, 0x4e487b7100000000000000000000000000000000000000000000000000000000)\n              mstore(0x04, 0x32)\n              revert(0x00, 0x24)\n            tag_59:\n              swap1\n              0x00\n              mstore\n              keccak256(0x00, 0x20)\n              swap1\n              0x06\n              mul\n              add\n                /* \"/home/cuv/Work/blockchain/eth-crowdfund/ethereum/contracts/CrowdfundCampaign.sol\":1696:1742  SpendingRequest storage request = requests[id] */\n              swap1\n              pop\n                /* \"/home/cuv/Work/blockchain/eth-crowdfund/ethereum/contracts/CrowdfundCampaign.sol\":1801:1802  2 */\n              0x02\n                /* \"/home/cuv/Work/blockchain/eth-crowdfund/ethereum/contracts/CrowdfundCampaign.sol\":1781:1798  contributorsCount */\n              sload(0x03)\n                /* \"/home/cuv/Work/blockchain/eth-crowdfund/ethereum/contracts/CrowdfundCampaign.sol\":1781:1802  contributorsCount / 2 */\n              tag_61\n              swap2\n              swap1\n              tag_62\n              jump\t// in\n            tag_61:\n                /* \"/home/cuv/Work/blockchain/eth-crowdfund/ethereum/contracts/CrowdfundCampaign.sol\":1756:1763  request */\n              dup2\n                /* \"/home/cuv/Work/blockchain/eth-crowdfund/ethereum/contracts/CrowdfundCampaign.sol\":1756:1778  request.approvalsCount */\n              0x04\n              add\n              sload\n                /* \"/home/cuv/Work/blockchain/eth-crowdfund/ethereum/contracts/CrowdfundCampaign.sol\":1756:1802  request.approvalsCount > contributorsCount / 2 */\n              gt\n                /* \"/home/cuv/Work/blockchain/eth-crowdfund/ethereum/contracts/CrowdfundCampaign.sol\":1748:1827  require(request.approvalsCount > contributorsCount / 2, \"Not enough approvals\") */\n              tag_63\n              jumpi\n              mload(0x40)\n              0x08c379a000000000000000000000000000000000000000000000000000000000\n              dup2\n              mstore\n              0x04\n              add\n              tag_64\n              swap1\n              tag_65\n              jump\t// in\n            tag_64:\n              mload(0x40)\n              dup1\n              swap2\n              sub\n              swap1\n              revert\n            tag_63:\n                /* \"/home/cuv/Work/blockchain/eth-crowdfund/ethereum/contracts/CrowdfundCampaign.sol\":1842:1849  request */\n              dup1\n                /* \"/home/cuv/Work/blockchain/eth-crowdfund/ethereum/contracts/CrowdfundCampaign.sol\":1842:1859  request.completed */\n              0x05\n              add\n              0x00\n              swap1\n              sload\n              swap1\n              0x0100\n              exp\n              swap1\n              div\n              0xff\n              and\n                /* \"/home/cuv/Work/blockchain/eth-crowdfund/ethereum/contracts/CrowdfundCampaign.sol\":1841:1859  !request.completed */\n              iszero\n                /* \"/home/cuv/Work/blockchain/eth-crowdfund/ethereum/contracts/CrowdfundCampaign.sol\":1833:1889  require(!request.completed, \"Request already completed\") */\n              tag_66\n              jumpi\n              mload(0x40)\n              0x08c379a000000000000000000000000000000000000000000000000000000000\n              dup2\n              mstore\n              0x04\n              add\n              tag_67\n              swap1\n              tag_68\n              jump\t// in\n            tag_67:\n              mload(0x40)\n              dup1\n              swap2\n              sub\n              swap1\n              revert\n            tag_66:\n                /* \"/home/cuv/Work/blockchain/eth-crowdfund/ethereum/contracts/CrowdfundCampaign.sol\":1895:1902  request */\n              dup1\n                /* \"/home/cuv/Work/blockchain/eth-crowdfund/ethereum/contracts/CrowdfundCampaign.sol\":1895:1912  request.recipient */\n              0x02\n              add\n              0x00\n              swap1\n              sload\n              swap1\n              0x0100\n              exp\n              swap1\n              div\n              0xffffffffffffffffffffffffffffffffffffffff\n              and\n                /* \"/home/cuv/Work/blockchain/eth-crowdfund/ethereum/contracts/CrowdfundCampaign.sol\":1895:1921  request.recipient.transfer */\n              0xffffffffffffffffffffffffffffffffffffffff\n              and\n                /* \"/home/cuv/Work/blockchain/eth-crowdfund/ethereum/contracts/CrowdfundCampaign.sol\":1895:1936  request.recipient.transfer(request.value) */\n              0x08fc\n                /* \"/home/cuv/Work/blockchain/eth-crowdfund/ethereum/contracts/CrowdfundCampaign.sol\":1922:1929  request */\n              dup3\n                /* \"/home/cuv/Work/blockchain/eth-crowdfund/ethereum/contracts/CrowdfundCampaign.sol\":1922:1935  request.value */\n              0x01\n              add\n              sload\n                /* \"/home/cuv/Work/blockchain/eth-crowdfund/ethereum/contracts/CrowdfundCampaign.sol\":1895:1936  request.recipient.transfer(request.value) */\n              swap1\n              dup2\n              iszero\n              mul\n              swap1\n              mload(0x40)\n              0x00\n              mload(0x40)\n              dup1\n              dup4\n              sub\n              dup2\n              dup6\n              dup9\n              dup9\n              call\n              swap4\n              pop\n              pop\n              pop\n              pop\n              iszero\n              dup1\n              iszero\n              tag_70\n              jumpi\n              returndatasize\n              0x00\n              dup1\n              returndatacopy\n              revert(0x00, returndatasize)\n            tag_70:\n              pop\n                /* \"/home/cuv/Work/blockchain/eth-crowdfund/ethereum/contracts/CrowdfundCampaign.sol\":1962:1966  true */\n              0x01\n                /* \"/home/cuv/Work/blockchain/eth-crowdfund/ethereum/contracts/CrowdfundCampaign.sol\":1942:1949  request */\n              dup2\n                /* \"/home/cuv/Work/blockchain/eth-crowdfund/ethereum/contracts/CrowdfundCampaign.sol\":1942:1959  request.completed */\n              0x05\n              add\n              0x00\n                /* \"/home/cuv/Work/blockchain/eth-crowdfund/ethereum/contracts/CrowdfundCampaign.sol\":1942:1966  request.completed = true */\n              0x0100\n              exp\n              dup2\n              sload\n              dup2\n              0xff\n              mul\n              not\n              and\n              swap1\n              dup4\n              iszero\n              iszero\n              mul\n              or\n              swap1\n              sstore\n              pop\n                /* \"/home/cuv/Work/blockchain/eth-crowdfund/ethereum/contracts/CrowdfundCampaign.sol\":371:372  _ */\n              pop\n                /* \"/home/cuv/Work/blockchain/eth-crowdfund/ethereum/contracts/CrowdfundCampaign.sol\":1631:1971  function finalizeRequest(uint id) public payable ownerOnly {... */\n              pop\n              jump\t// out\n                /* \"/home/cuv/Work/blockchain/eth-crowdfund/ethereum/contracts/CrowdfundCampaign.sol\":440:484  mapping(address => bool) public contributors */\n            tag_20:\n              mstore(0x20, 0x02)\n              dup1\n              0x00\n              mstore\n              keccak256(0x00, 0x40)\n              0x00\n              swap2\n              pop\n              sload\n              swap1\n              0x0100\n              exp\n              swap1\n              div\n              0xff\n              and\n              dup2\n              jump\t// out\n                /* \"/home/cuv/Work/blockchain/eth-crowdfund/ethereum/contracts/CrowdfundCampaign.sol\":488:517  uint public contributorsCount */\n            tag_25:\n              sload(0x03)\n              dup2\n              jump\t// out\n                /* \"/home/cuv/Work/blockchain/eth-crowdfund/ethereum/contracts/CrowdfundCampaign.sol\":521:554  SpendingRequest[] public requests */\n            tag_31:\n              0x04\n              dup2\n              dup2\n              sload\n              dup2\n              lt\n              tag_71\n              jumpi\n              0x00\n              dup1\n              revert\n            tag_71:\n              swap1\n              0x00\n              mstore\n              keccak256(0x00, 0x20)\n              swap1\n              0x06\n              mul\n              add\n              0x00\n              swap2\n              pop\n              swap1\n              pop\n              dup1\n              0x00\n              add\n              dup1\n              sload\n              tag_73\n              swap1\n              tag_74\n              jump\t// in\n            tag_73:\n              dup1\n              0x1f\n              add\n              0x20\n              dup1\n              swap2\n              div\n              mul\n              0x20\n              add\n              mload(0x40)\n              swap1\n              dup2\n              add\n              0x40\n              mstore\n              dup1\n              swap3\n              swap2\n              swap1\n              dup2\n              dup2\n              mstore\n              0x20\n              add\n              dup3\n              dup1\n              sload\n              tag_75\n              swap1\n              tag_74\n              jump\t// in\n            tag_75:\n              dup1\n              iszero\n              tag_76\n              jumpi\n              dup1\n              0x1f\n              lt\n              tag_77\n              jumpi\n              0x0100\n              dup1\n              dup4\n              sload\n              div\n              mul\n              dup4\n              mstore\n              swap2\n              0x20\n              add\n              swap2\n              jump(tag_76)\n            tag_77:\n              dup3\n              add\n              swap2\n              swap1\n              0x00\n              mstore\n              keccak256(0x00, 0x20)\n              swap1\n            tag_78:\n              dup2\n              sload\n              dup2\n              mstore\n              swap1\n              0x01\n              add\n              swap1\n              0x20\n              add\n              dup1\n              dup4\n              gt\n              tag_78\n              jumpi\n              dup3\n              swap1\n              sub\n              0x1f\n              and\n              dup3\n              add\n              swap2\n            tag_76:\n              pop\n              pop\n              pop\n              pop\n              pop\n              swap1\n              dup1\n              0x01\n              add\n              sload\n              swap1\n              dup1\n              0x02\n              add\n              0x00\n              swap1\n              sload\n              swap1\n              0x0100\n              exp\n              swap1\n              div\n              0xffffffffffffffffffffffffffffffffffffffff\n              and\n              swap1\n              dup1\n              0x04\n              add\n              sload\n              swap1\n              dup1\n              0x05\n              add\n              0x00\n              swap1\n              sload\n              swap1\n              0x0100\n              exp\n              swap1\n              div\n              0xff\n              and\n              swap1\n              pop\n              dup6\n              jump\t// out\n                /* \"/home/cuv/Work/blockchain/eth-crowdfund/ethereum/contracts/CrowdfundCampaign.sol\":941:1271  function createRequest(string memory description, uint value, address payable recipient) public ownerOnly {... */\n            tag_38:\n                /* \"/home/cuv/Work/blockchain/eth-crowdfund/ethereum/contracts/CrowdfundCampaign.sol\":322:327  owner */\n              0x00\n              dup1\n              sload\n              swap1\n              0x0100\n              exp\n              swap1\n              div\n              0xffffffffffffffffffffffffffffffffffffffff\n              and\n                /* \"/home/cuv/Work/blockchain/eth-crowdfund/ethereum/contracts/CrowdfundCampaign.sol\":308:327  msg.sender == owner */\n              0xffffffffffffffffffffffffffffffffffffffff\n              and\n                /* \"/home/cuv/Work/blockchain/eth-crowdfund/ethereum/contracts/CrowdfundCampaign.sol\":308:318  msg.sender */\n              caller\n                /* \"/home/cuv/Work/blockchain/eth-crowdfund/ethereum/contracts/CrowdfundCampaign.sol\":308:327  msg.sender == owner */\n              0xffffffffffffffffffffffffffffffffffffffff\n              and\n              eq\n                /* \"/home/cuv/Work/blockchain/eth-crowdfund/ethereum/contracts/CrowdfundCampaign.sol\":300:365  require(msg.sender == owner, \"Operation reserved for owner only\") */\n              tag_80\n              jumpi\n              mload(0x40)\n              0x08c379a000000000000000000000000000000000000000000000000000000000\n              dup2\n              mstore\n              0x04\n              add\n              tag_81\n              swap1\n              tag_57\n              jump\t// in\n            tag_81:\n              mload(0x40)\n              dup1\n              swap2\n              sub\n              swap1\n              revert\n            tag_80:\n                /* \"/home/cuv/Work/blockchain/eth-crowdfund/ethereum/contracts/CrowdfundCampaign.sol\":1053:1084  SpendingRequest storage request */\n              0x00\n                /* \"/home/cuv/Work/blockchain/eth-crowdfund/ethereum/contracts/CrowdfundCampaign.sol\":1087:1095  requests */\n              0x04\n                /* \"/home/cuv/Work/blockchain/eth-crowdfund/ethereum/contracts/CrowdfundCampaign.sol\":1087:1102  requests.push() */\n              0x01\n              dup2\n              0x01\n              dup2\n              sload\n              add\n              dup1\n              dup3\n              sstore\n              dup1\n              swap2\n              pop\n              pop\n              sub\n              swap1\n              0x00\n              mstore\n              keccak256(0x00, 0x20)\n              swap1\n              0x06\n              mul\n              add\n                /* \"/home/cuv/Work/blockchain/eth-crowdfund/ethereum/contracts/CrowdfundCampaign.sol\":1053:1102  SpendingRequest storage request = requests.push() */\n              swap1\n              pop\n                /* \"/home/cuv/Work/blockchain/eth-crowdfund/ethereum/contracts/CrowdfundCampaign.sol\":1130:1141  description */\n              dup4\n                /* \"/home/cuv/Work/blockchain/eth-crowdfund/ethereum/contracts/CrowdfundCampaign.sol\":1108:1115  request */\n              dup2\n                /* \"/home/cuv/Work/blockchain/eth-crowdfund/ethereum/contracts/CrowdfundCampaign.sol\":1108:1127  request.description */\n              0x00\n              add\n                /* \"/home/cuv/Work/blockchain/eth-crowdfund/ethereum/contracts/CrowdfundCampaign.sol\":1108:1141  request.description = description */\n              swap1\n              dup1\n              mload\n              swap1\n              0x20\n              add\n              swap1\n              tag_84\n              swap3\n              swap2\n              swap1\n              tag_85\n              jump\t// in\n            tag_84:\n              pop\n                /* \"/home/cuv/Work/blockchain/eth-crowdfund/ethereum/contracts/CrowdfundCampaign.sol\":1163:1168  value */\n              dup3\n                /* \"/home/cuv/Work/blockchain/eth-crowdfund/ethereum/contracts/CrowdfundCampaign.sol\":1147:1154  request */\n              dup2\n                /* \"/home/cuv/Work/blockchain/eth-crowdfund/ethereum/contracts/CrowdfundCampaign.sol\":1147:1160  request.value */\n              0x01\n              add\n                /* \"/home/cuv/Work/blockchain/eth-crowdfund/ethereum/contracts/CrowdfundCampaign.sol\":1147:1168  request.value = value */\n              dup2\n              swap1\n              sstore\n              pop\n                /* \"/home/cuv/Work/blockchain/eth-crowdfund/ethereum/contracts/CrowdfundCampaign.sol\":1194:1203  recipient */\n              dup2\n                /* \"/home/cuv/Work/blockchain/eth-crowdfund/ethereum/contracts/CrowdfundCampaign.sol\":1174:1181  request */\n              dup2\n                /* \"/home/cuv/Work/blockchain/eth-crowdfund/ethereum/contracts/CrowdfundCampaign.sol\":1174:1191  request.recipient */\n              0x02\n              add\n              0x00\n                /* \"/home/cuv/Work/blockchain/eth-crowdfund/ethereum/contracts/CrowdfundCampaign.sol\":1174:1203  request.recipient = recipient */\n              0x0100\n              exp\n              dup2\n              sload\n              dup2\n              0xffffffffffffffffffffffffffffffffffffffff\n              mul\n              not\n              and\n              swap1\n              dup4\n              0xffffffffffffffffffffffffffffffffffffffff\n              and\n              mul\n              or\n              swap1\n              sstore\n              pop\n                /* \"/home/cuv/Work/blockchain/eth-crowdfund/ethereum/contracts/CrowdfundCampaign.sol\":1234:1235  0 */\n              0x00\n                /* \"/home/cuv/Work/blockchain/eth-crowdfund/ethereum/contracts/CrowdfundCampaign.sol\":1209:1216  request */\n              dup2\n                /* \"/home/cuv/Work/blockchain/eth-crowdfund/ethereum/contracts/CrowdfundCampaign.sol\":1209:1231  request.approvalsCount */\n              0x04\n              add\n                /* \"/home/cuv/Work/blockchain/eth-crowdfund/ethereum/contracts/CrowdfundCampaign.sol\":1209:1235  request.approvalsCount = 0 */\n              dup2\n              swap1\n              sstore\n              pop\n                /* \"/home/cuv/Work/blockchain/eth-crowdfund/ethereum/contracts/CrowdfundCampaign.sol\":1261:1266  false */\n              0x00\n                /* \"/home/cuv/Work/blockchain/eth-crowdfund/ethereum/contracts/CrowdfundCampaign.sol\":1241:1248  request */\n              dup2\n                /* \"/home/cuv/Work/blockchain/eth-crowdfund/ethereum/contracts/CrowdfundCampaign.sol\":1241:1258  request.completed */\n              0x05\n              add\n              0x00\n                /* \"/home/cuv/Work/blockchain/eth-crowdfund/ethereum/contracts/CrowdfundCampaign.sol\":1241:1266  request.completed = false */\n              0x0100\n              exp\n              dup2\n              sload\n              dup2\n              0xff\n              mul\n              not\n              and\n              swap1\n              dup4\n              iszero\n              iszero\n              mul\n              or\n              swap1\n              sstore\n              pop\n                /* \"/home/cuv/Work/blockchain/eth-crowdfund/ethereum/contracts/CrowdfundCampaign.sol\":371:372  _ */\n              pop\n                /* \"/home/cuv/Work/blockchain/eth-crowdfund/ethereum/contracts/CrowdfundCampaign.sol\":941:1271  function createRequest(string memory description, uint value, address payable recipient) public ownerOnly {... */\n              pop\n              pop\n              pop\n              jump\t// out\n                /* \"/home/cuv/Work/blockchain/eth-crowdfund/ethereum/contracts/CrowdfundCampaign.sol\":381:401  address public owner */\n            tag_41:\n              0x00\n              dup1\n              sload\n              swap1\n              0x0100\n              exp\n              swap1\n              div\n              0xffffffffffffffffffffffffffffffffffffffff\n              and\n              dup2\n              jump\t// out\n                /* \"/home/cuv/Work/blockchain/eth-crowdfund/ethereum/contracts/CrowdfundCampaign.sol\":405:436  uint public minimumContribution */\n            tag_46:\n              sload(0x01)\n              dup2\n              jump\t// out\n                /* \"/home/cuv/Work/blockchain/eth-crowdfund/ethereum/contracts/CrowdfundCampaign.sol\":679:937  function contribute() public payable {... */\n            tag_49:\n                /* \"/home/cuv/Work/blockchain/eth-crowdfund/ethereum/contracts/CrowdfundCampaign.sol\":743:762  minimumContribution */\n              sload(0x01)\n                /* \"/home/cuv/Work/blockchain/eth-crowdfund/ethereum/contracts/CrowdfundCampaign.sol\":730:739  msg.value */\n              callvalue\n                /* \"/home/cuv/Work/blockchain/eth-crowdfund/ethereum/contracts/CrowdfundCampaign.sol\":730:762  msg.value >= minimumContribution */\n              lt\n              iszero\n                /* \"/home/cuv/Work/blockchain/eth-crowdfund/ethereum/contracts/CrowdfundCampaign.sol\":722:794  require(msg.value >= minimumContribution, \"Contribution amount too low\") */\n              tag_87\n              jumpi\n              mload(0x40)\n              0x08c379a000000000000000000000000000000000000000000000000000000000\n              dup2\n              mstore\n              0x04\n              add\n              tag_88\n              swap1\n              tag_89\n              jump\t// in\n            tag_88:\n              mload(0x40)\n              dup1\n              swap2\n              sub\n              swap1\n              revert\n            tag_87:\n                /* \"/home/cuv/Work/blockchain/eth-crowdfund/ethereum/contracts/CrowdfundCampaign.sol\":809:821  contributors */\n              0x02\n                /* \"/home/cuv/Work/blockchain/eth-crowdfund/ethereum/contracts/CrowdfundCampaign.sol\":809:833  contributors[msg.sender] */\n              0x00\n                /* \"/home/cuv/Work/blockchain/eth-crowdfund/ethereum/contracts/CrowdfundCampaign.sol\":822:832  msg.sender */\n              caller\n                /* \"/home/cuv/Work/blockchain/eth-crowdfund/ethereum/contracts/CrowdfundCampaign.sol\":809:833  contributors[msg.sender] */\n              0xffffffffffffffffffffffffffffffffffffffff\n              and\n              0xffffffffffffffffffffffffffffffffffffffff\n              and\n              dup2\n              mstore\n              0x20\n              add\n              swap1\n              dup2\n              mstore\n              0x20\n              add\n              0x00\n              keccak256\n              0x00\n              swap1\n              sload\n              swap1\n              0x0100\n              exp\n              swap1\n              div\n              0xff\n              and\n                /* \"/home/cuv/Work/blockchain/eth-crowdfund/ethereum/contracts/CrowdfundCampaign.sol\":808:833  !contributors[msg.sender] */\n              iszero\n                /* \"/home/cuv/Work/blockchain/eth-crowdfund/ethereum/contracts/CrowdfundCampaign.sol\":800:870  require(!contributors[msg.sender], \"You already funded this campaign\") */\n              tag_90\n              jumpi\n              mload(0x40)\n              0x08c379a000000000000000000000000000000000000000000000000000000000\n              dup2\n              mstore\n              0x04\n              add\n              tag_91\n              swap1\n              tag_92\n              jump\t// in\n            tag_91:\n              mload(0x40)\n              dup1\n              swap2\n              sub\n              swap1\n              revert\n            tag_90:\n                /* \"/home/cuv/Work/blockchain/eth-crowdfund/ethereum/contracts/CrowdfundCampaign.sol\":903:907  true */\n              0x01\n                /* \"/home/cuv/Work/blockchain/eth-crowdfund/ethereum/contracts/CrowdfundCampaign.sol\":876:888  contributors */\n              0x02\n                /* \"/home/cuv/Work/blockchain/eth-crowdfund/ethereum/contracts/CrowdfundCampaign.sol\":876:900  contributors[msg.sender] */\n              0x00\n                /* \"/home/cuv/Work/blockchain/eth-crowdfund/ethereum/contracts/CrowdfundCampaign.sol\":889:899  msg.sender */\n              caller\n                /* \"/home/cuv/Work/blockchain/eth-crowdfund/ethereum/contracts/CrowdfundCampaign.sol\":876:900  contributors[msg.sender] */\n              0xffffffffffffffffffffffffffffffffffffffff\n              and\n              0xffffffffffffffffffffffffffffffffffffffff\n              and\n              dup2\n              mstore\n              0x20\n              add\n              swap1\n              dup2\n              mstore\n              0x20\n              add\n              0x00\n              keccak256\n              0x00\n                /* \"/home/cuv/Work/blockchain/eth-crowdfund/ethereum/contracts/CrowdfundCampaign.sol\":876:907  contributors[msg.sender] = true */\n              0x0100\n              exp\n              dup2\n              sload\n              dup2\n              0xff\n              mul\n              not\n              and\n              swap1\n              dup4\n              iszero\n              iszero\n              mul\n              or\n              swap1\n              sstore\n              pop\n                /* \"/home/cuv/Work/blockchain/eth-crowdfund/ethereum/contracts/CrowdfundCampaign.sol\":913:930  contributorsCount */\n              0x03\n              0x00\n                /* \"/home/cuv/Work/blockchain/eth-crowdfund/ethereum/contracts/CrowdfundCampaign.sol\":913:932  contributorsCount++ */\n              dup2\n              sload\n              dup1\n              swap3\n              swap2\n              swap1\n              tag_93\n              swap1\n              tag_94\n              jump\t// in\n            tag_93:\n              swap2\n              swap1\n              pop\n              sstore\n              pop\n                /* \"/home/cuv/Work/blockchain/eth-crowdfund/ethereum/contracts/CrowdfundCampaign.sol\":679:937  function contribute() public payable {... */\n              jump\t// out\n                /* \"/home/cuv/Work/blockchain/eth-crowdfund/ethereum/contracts/CrowdfundCampaign.sol\":1275:1627  function approveRequest(uint id) public {... */\n            tag_53:\n                /* \"/home/cuv/Work/blockchain/eth-crowdfund/ethereum/contracts/CrowdfundCampaign.sol\":1321:1352  SpendingRequest storage request */\n              0x00\n                /* \"/home/cuv/Work/blockchain/eth-crowdfund/ethereum/contracts/CrowdfundCampaign.sol\":1355:1363  requests */\n              0x04\n                /* \"/home/cuv/Work/blockchain/eth-crowdfund/ethereum/contracts/CrowdfundCampaign.sol\":1364:1366  id */\n              dup3\n                /* \"/home/cuv/Work/blockchain/eth-crowdfund/ethereum/contracts/CrowdfundCampaign.sol\":1355:1367  requests[id] */\n              dup2\n              sload\n              dup2\n              lt\n              tag_96\n              jumpi\n              mstore(0x00, 0x4e487b7100000000000000000000000000000000000000000000000000000000)\n              mstore(0x04, 0x32)\n              revert(0x00, 0x24)\n            tag_96:\n              swap1\n              0x00\n              mstore\n              keccak256(0x00, 0x20)\n              swap1\n              0x06\n              mul\n              add\n                /* \"/home/cuv/Work/blockchain/eth-crowdfund/ethereum/contracts/CrowdfundCampaign.sol\":1321:1367  SpendingRequest storage request = requests[id] */\n              swap1\n              pop\n                /* \"/home/cuv/Work/blockchain/eth-crowdfund/ethereum/contracts/CrowdfundCampaign.sol\":1381:1393  contributors */\n              0x02\n                /* \"/home/cuv/Work/blockchain/eth-crowdfund/ethereum/contracts/CrowdfundCampaign.sol\":1381:1405  contributors[msg.sender] */\n              0x00\n                /* \"/home/cuv/Work/blockchain/eth-crowdfund/ethereum/contracts/CrowdfundCampaign.sol\":1394:1404  msg.sender */\n              caller\n                /* \"/home/cuv/Work/blockchain/eth-crowdfund/ethereum/contracts/CrowdfundCampaign.sol\":1381:1405  contributors[msg.sender] */\n              0xffffffffffffffffffffffffffffffffffffffff\n              and\n              0xffffffffffffffffffffffffffffffffffffffff\n              and\n              dup2\n              mstore\n              0x20\n              add\n              swap1\n              dup2\n              mstore\n              0x20\n              add\n              0x00\n              keccak256\n              0x00\n              swap1\n              sload\n              swap1\n              0x0100\n              exp\n              swap1\n              div\n              0xff\n              and\n                /* \"/home/cuv/Work/blockchain/eth-crowdfund/ethereum/contracts/CrowdfundCampaign.sol\":1373:1468  require(contributors[msg.sender], \"You need to contribute to the campaign before you can vote\") */\n              tag_98\n              jumpi\n              mload(0x40)\n              0x08c379a000000000000000000000000000000000000000000000000000000000\n              dup2\n              mstore\n              0x04\n              add\n              tag_99\n              swap1\n              tag_100\n              jump\t// in\n            tag_99:\n              mload(0x40)\n              dup1\n              swap2\n              sub\n              swap1\n              revert\n            tag_98:\n                /* \"/home/cuv/Work/blockchain/eth-crowdfund/ethereum/contracts/CrowdfundCampaign.sol\":1483:1490  request */\n              dup1\n                /* \"/home/cuv/Work/blockchain/eth-crowdfund/ethereum/contracts/CrowdfundCampaign.sol\":1483:1500  request.approvals */\n              0x03\n              add\n                /* \"/home/cuv/Work/blockchain/eth-crowdfund/ethereum/contracts/CrowdfundCampaign.sol\":1483:1512  request.approvals[msg.sender] */\n              0x00\n                /* \"/home/cuv/Work/blockchain/eth-crowdfund/ethereum/contracts/CrowdfundCampaign.sol\":1501:1511  msg.sender */\n              caller\n                /* \"/home/cuv/Work/blockchain/eth-crowdfund/ethereum/contracts/CrowdfundCampaign.sol\":1483:1512  request.approvals[msg.sender] */\n              0xffffffffffffffffffffffffffffffffffffffff\n              and\n              0xffffffffffffffffffffffffffffffffffffffff\n              and\n              dup2\n              mstore\n              0x20\n              add\n              swap1\n              dup2\n              mstore\n              0x20\n              add\n              0x00\n              keccak256\n              0x00\n              swap1\n              sload\n              swap1\n              0x0100\n              exp\n              swap1\n              div\n              0xff\n              and\n                /* \"/home/cuv/Work/blockchain/eth-crowdfund/ethereum/contracts/CrowdfundCampaign.sol\":1482:1512  !request.approvals[msg.sender] */\n              iszero\n                /* \"/home/cuv/Work/blockchain/eth-crowdfund/ethereum/contracts/CrowdfundCampaign.sol\":1474:1550  require(!request.approvals[msg.sender], \"You already approved this request\") */\n              tag_101\n              jumpi\n              mload(0x40)\n              0x08c379a000000000000000000000000000000000000000000000000000000000\n              dup2\n              mstore\n              0x04\n              add\n              tag_102\n              swap1\n              tag_103\n              jump\t// in\n            tag_102:\n              mload(0x40)\n              dup1\n              swap2\n              sub\n              swap1\n              revert\n            tag_101:\n                /* \"/home/cuv/Work/blockchain/eth-crowdfund/ethereum/contracts/CrowdfundCampaign.sol\":1588:1592  true */\n              0x01\n                /* \"/home/cuv/Work/blockchain/eth-crowdfund/ethereum/contracts/CrowdfundCampaign.sol\":1556:1563  request */\n              dup2\n                /* \"/home/cuv/Work/blockchain/eth-crowdfund/ethereum/contracts/CrowdfundCampaign.sol\":1556:1573  request.approvals */\n              0x03\n              add\n                /* \"/home/cuv/Work/blockchain/eth-crowdfund/ethereum/contracts/CrowdfundCampaign.sol\":1556:1585  request.approvals[msg.sender] */\n              0x00\n                /* \"/home/cuv/Work/blockchain/eth-crowdfund/ethereum/contracts/CrowdfundCampaign.sol\":1574:1584  msg.sender */\n              caller\n                /* \"/home/cuv/Work/blockchain/eth-crowdfund/ethereum/contracts/CrowdfundCampaign.sol\":1556:1585  request.approvals[msg.sender] */\n              0xffffffffffffffffffffffffffffffffffffffff\n              and\n              0xffffffffffffffffffffffffffffffffffffffff\n              and\n              dup2\n              mstore\n              0x20\n              add\n              swap1\n              dup2\n              mstore\n              0x20\n              add\n              0x00\n              keccak256\n              0x00\n                /* \"/home/cuv/Work/blockchain/eth-crowdfund/ethereum/contracts/CrowdfundCampaign.sol\":1556:1592  request.approvals[msg.sender] = true */\n              0x0100\n              exp\n              dup2\n              sload\n              dup2\n              0xff\n              mul\n              not\n              and\n              swap1\n              dup4\n              iszero\n              iszero\n              mul\n              or\n              swap1\n              sstore\n              pop\n                /* \"/home/cuv/Work/blockchain/eth-crowdfund/ethereum/contracts/CrowdfundCampaign.sol\":1598:1605  request */\n              dup1\n                /* \"/home/cuv/Work/blockchain/eth-crowdfund/ethereum/contracts/CrowdfundCampaign.sol\":1598:1620  request.approvalsCount */\n              0x04\n              add\n              0x00\n                /* \"/home/cuv/Work/blockchain/eth-crowdfund/ethereum/contracts/CrowdfundCampaign.sol\":1598:1622  request.approvalsCount++ */\n              dup2\n              sload\n              dup1\n              swap3\n              swap2\n              swap1\n              tag_104\n              swap1\n              tag_94\n              jump\t// in\n            tag_104:\n              swap2\n              swap1\n              pop\n              sstore\n              pop\n                /* \"/home/cuv/Work/blockchain/eth-crowdfund/ethereum/contracts/CrowdfundCampaign.sol\":1275:1627  function approveRequest(uint id) public {... */\n              pop\n              pop\n              jump\t// out\n            tag_85:\n              dup3\n              dup1\n              sload\n              tag_105\n              swap1\n              tag_74\n              jump\t// in\n            tag_105:\n              swap1\n              0x00\n              mstore\n              keccak256(0x00, 0x20)\n              swap1\n              0x1f\n              add\n              0x20\n              swap1\n              div\n              dup2\n              add\n              swap3\n              dup3\n              tag_107\n              jumpi\n              0x00\n              dup6\n              sstore\n              jump(tag_106)\n            tag_107:\n              dup3\n              0x1f\n              lt\n              tag_108\n              jumpi\n              dup1\n              mload\n              not(0xff)\n              and\n              dup4\n              dup1\n              add\n              or\n              dup6\n              sstore\n              jump(tag_106)\n            tag_108:\n              dup3\n              dup1\n              add\n              0x01\n              add\n              dup6\n              sstore\n              dup3\n              iszero\n              tag_106\n              jumpi\n              swap2\n              dup3\n              add\n            tag_109:\n              dup3\n              dup2\n              gt\n              iszero\n              tag_110\n              jumpi\n              dup3\n              mload\n              dup3\n              sstore\n              swap2\n              0x20\n              add\n              swap2\n              swap1\n              0x01\n              add\n              swap1\n              jump(tag_109)\n            tag_110:\n            tag_106:\n              pop\n              swap1\n              pop\n              tag_111\n              swap2\n              swap1\n              tag_112\n              jump\t// in\n            tag_111:\n              pop\n              swap1\n              jump\t// out\n            tag_112:\n            tag_113:\n              dup1\n              dup3\n              gt\n              iszero\n              tag_114\n              jumpi\n              0x00\n              dup2\n              0x00\n              swap1\n              sstore\n              pop\n              0x01\n              add\n              jump(tag_113)\n            tag_114:\n              pop\n              swap1\n              jump\t// out\n                /* \"#utility.yul\":7:352   */\n            tag_116:\n              0x00\n                /* \"#utility.yul\":110:176   */\n              tag_118\n                /* \"#utility.yul\":126:175   */\n              tag_119\n                /* \"#utility.yul\":168:174   */\n              dup5\n                /* \"#utility.yul\":126:175   */\n              tag_120\n              jump\t// in\n            tag_119:\n                /* \"#utility.yul\":110:176   */\n              tag_121\n              jump\t// in\n            tag_118:\n                /* \"#utility.yul\":101:176   */\n              swap1\n              pop\n                /* \"#utility.yul\":199:205   */\n              dup3\n                /* \"#utility.yul\":192:197   */\n              dup2\n                /* \"#utility.yul\":185:206   */\n              mstore\n                /* \"#utility.yul\":237:241   */\n              0x20\n                /* \"#utility.yul\":230:235   */\n              dup2\n                /* \"#utility.yul\":226:242   */\n              add\n                /* \"#utility.yul\":275:278   */\n              dup5\n                /* \"#utility.yul\":266:272   */\n              dup5\n                /* \"#utility.yul\":261:264   */\n              dup5\n                /* \"#utility.yul\":257:273   */\n              add\n                /* \"#utility.yul\":254:279   */\n              gt\n                /* \"#utility.yul\":251:253   */\n              iszero\n              tag_122\n              jumpi\n                /* \"#utility.yul\":292:293   */\n              0x00\n                /* \"#utility.yul\":289:290   */\n              dup1\n                /* \"#utility.yul\":282:294   */\n              revert\n                /* \"#utility.yul\":251:253   */\n            tag_122:\n                /* \"#utility.yul\":305:346   */\n              tag_123\n                /* \"#utility.yul\":339:345   */\n              dup5\n                /* \"#utility.yul\":334:337   */\n              dup3\n                /* \"#utility.yul\":329:332   */\n              dup6\n                /* \"#utility.yul\":305:346   */\n              tag_124\n              jump\t// in\n            tag_123:\n                /* \"#utility.yul\":91:352   */\n              pop\n              swap4\n              swap3\n              pop\n              pop\n              pop\n              jump\t// out\n                /* \"#utility.yul\":358:497   */\n            tag_125:\n              0x00\n                /* \"#utility.yul\":442:448   */\n              dup2\n                /* \"#utility.yul\":429:449   */\n              calldataload\n                /* \"#utility.yul\":420:449   */\n              swap1\n              pop\n                /* \"#utility.yul\":458:491   */\n              tag_127\n                /* \"#utility.yul\":485:490   */\n              dup2\n                /* \"#utility.yul\":458:491   */\n              tag_128\n              jump\t// in\n            tag_127:\n                /* \"#utility.yul\":410:497   */\n              swap3\n              swap2\n              pop\n              pop\n              jump\t// out\n                /* \"#utility.yul\":503:658   */\n            tag_129:\n              0x00\n                /* \"#utility.yul\":595:601   */\n              dup2\n                /* \"#utility.yul\":582:602   */\n              calldataload\n                /* \"#utility.yul\":573:602   */\n              swap1\n              pop\n                /* \"#utility.yul\":611:652   */\n              tag_131\n                /* \"#utility.yul\":646:651   */\n              dup2\n                /* \"#utility.yul\":611:652   */\n              tag_132\n              jump\t// in\n            tag_131:\n                /* \"#utility.yul\":563:658   */\n              swap3\n              swap2\n              pop\n              pop\n              jump\t// out\n                /* \"#utility.yul\":678:951   */\n            tag_133:\n              0x00\n                /* \"#utility.yul\":783:786   */\n              dup3\n                /* \"#utility.yul\":776:780   */\n              0x1f\n                /* \"#utility.yul\":768:774   */\n              dup4\n                /* \"#utility.yul\":764:781   */\n              add\n                /* \"#utility.yul\":760:787   */\n              slt\n                /* \"#utility.yul\":750:752   */\n              tag_135\n              jumpi\n                /* \"#utility.yul\":801:802   */\n              0x00\n                /* \"#utility.yul\":798:799   */\n              dup1\n                /* \"#utility.yul\":791:803   */\n              revert\n                /* \"#utility.yul\":750:752   */\n            tag_135:\n                /* \"#utility.yul\":841:847   */\n              dup2\n                /* \"#utility.yul\":828:848   */\n              calldataload\n                /* \"#utility.yul\":866:945   */\n              tag_136\n                /* \"#utility.yul\":941:944   */\n              dup5\n                /* \"#utility.yul\":933:939   */\n              dup3\n                /* \"#utility.yul\":926:930   */\n              0x20\n                /* \"#utility.yul\":918:924   */\n              dup7\n                /* \"#utility.yul\":914:931   */\n              add\n                /* \"#utility.yul\":866:945   */\n              tag_116\n              jump\t// in\n            tag_136:\n                /* \"#utility.yul\":857:945   */\n              swap2\n              pop\n                /* \"#utility.yul\":740:951   */\n              pop\n              swap3\n              swap2\n              pop\n              pop\n              jump\t// out\n                /* \"#utility.yul\":957:1096   */\n            tag_137:\n              0x00\n                /* \"#utility.yul\":1041:1047   */\n              dup2\n                /* \"#utility.yul\":1028:1048   */\n              calldataload\n                /* \"#utility.yul\":1019:1048   */\n              swap1\n              pop\n                /* \"#utility.yul\":1057:1090   */\n              tag_139\n                /* \"#utility.yul\":1084:1089   */\n              dup2\n                /* \"#utility.yul\":1057:1090   */\n              tag_140\n              jump\t// in\n            tag_139:\n                /* \"#utility.yul\":1009:1096   */\n              swap3\n              swap2\n              pop\n              pop\n              jump\t// out\n                /* \"#utility.yul\":1102:1364   */\n            tag_19:\n              0x00\n                /* \"#utility.yul\":1210:1212   */\n              0x20\n                /* \"#utility.yul\":1198:1207   */\n              dup3\n                /* \"#utility.yul\":1189:1196   */\n              dup5\n                /* \"#utility.yul\":1185:1208   */\n              sub\n                /* \"#utility.yul\":1181:1213   */\n              slt\n                /* \"#utility.yul\":1178:1180   */\n              iszero\n              tag_142\n              jumpi\n                /* \"#utility.yul\":1226:1227   */\n              0x00\n                /* \"#utility.yul\":1223:1224   */\n              dup1\n                /* \"#utility.yul\":1216:1228   */\n              revert\n                /* \"#utility.yul\":1178:1180   */\n            tag_142:\n                /* \"#utility.yul\":1269:1270   */\n              0x00\n                /* \"#utility.yul\":1294:1347   */\n              tag_143\n                /* \"#utility.yul\":1339:1346   */\n              dup5\n                /* \"#utility.yul\":1330:1336   */\n              dup3\n                /* \"#utility.yul\":1319:1328   */\n              dup6\n                /* \"#utility.yul\":1315:1337   */\n              add\n                /* \"#utility.yul\":1294:1347   */\n              tag_125\n              jump\t// in\n            tag_143:\n                /* \"#utility.yul\":1284:1347   */\n              swap2\n              pop\n                /* \"#utility.yul\":1240:1357   */\n              pop\n                /* \"#utility.yul\":1168:1364   */\n              swap3\n              swap2\n              pop\n              pop\n              jump\t// out\n                /* \"#utility.yul\":1370:2051   */\n            tag_37:\n              0x00\n              dup1\n              0x00\n                /* \"#utility.yul\":1530:1532   */\n              0x60\n                /* \"#utility.yul\":1518:1527   */\n              dup5\n                /* \"#utility.yul\":1509:1516   */\n              dup7\n                /* \"#utility.yul\":1505:1528   */\n              sub\n                /* \"#utility.yul\":1501:1533   */\n              slt\n                /* \"#utility.yul\":1498:1500   */\n              iszero\n              tag_145\n              jumpi\n                /* \"#utility.yul\":1546:1547   */\n              0x00\n                /* \"#utility.yul\":1543:1544   */\n              dup1\n                /* \"#utility.yul\":1536:1548   */\n              revert\n                /* \"#utility.yul\":1498:1500   */\n            tag_145:\n                /* \"#utility.yul\":1617:1618   */\n              0x00\n                /* \"#utility.yul\":1606:1615   */\n              dup5\n                /* \"#utility.yul\":1602:1619   */\n              add\n                /* \"#utility.yul\":1589:1620   */\n              calldataload\n                /* \"#utility.yul\":1647:1665   */\n              0xffffffffffffffff\n                /* \"#utility.yul\":1639:1645   */\n              dup2\n                /* \"#utility.yul\":1636:1666   */\n              gt\n                /* \"#utility.yul\":1633:1635   */\n              iszero\n              tag_146\n              jumpi\n                /* \"#utility.yul\":1679:1680   */\n              0x00\n                /* \"#utility.yul\":1676:1677   */\n              dup1\n                /* \"#utility.yul\":1669:1681   */\n              revert\n                /* \"#utility.yul\":1633:1635   */\n            tag_146:\n                /* \"#utility.yul\":1707:1770   */\n              tag_147\n                /* \"#utility.yul\":1762:1769   */\n              dup7\n                /* \"#utility.yul\":1753:1759   */\n              dup3\n                /* \"#utility.yul\":1742:1751   */\n              dup8\n                /* \"#utility.yul\":1738:1760   */\n              add\n                /* \"#utility.yul\":1707:1770   */\n              tag_133\n              jump\t// in\n            tag_147:\n                /* \"#utility.yul\":1697:1770   */\n              swap4\n              pop\n                /* \"#utility.yul\":1560:1780   */\n              pop\n                /* \"#utility.yul\":1819:1821   */\n              0x20\n                /* \"#utility.yul\":1845:1898   */\n              tag_148\n                /* \"#utility.yul\":1890:1897   */\n              dup7\n                /* \"#utility.yul\":1881:1887   */\n              dup3\n                /* \"#utility.yul\":1870:1879   */\n              dup8\n                /* \"#utility.yul\":1866:1888   */\n              add\n                /* \"#utility.yul\":1845:1898   */\n              tag_137\n              jump\t// in\n            tag_148:\n                /* \"#utility.yul\":1835:1898   */\n              swap3\n              pop\n                /* \"#utility.yul\":1790:1908   */\n              pop\n                /* \"#utility.yul\":1947:1949   */\n              0x40\n                /* \"#utility.yul\":1973:2034   */\n              tag_149\n                /* \"#utility.yul\":2026:2033   */\n              dup7\n                /* \"#utility.yul\":2017:2023   */\n              dup3\n                /* \"#utility.yul\":2006:2015   */\n              dup8\n                /* \"#utility.yul\":2002:2024   */\n              add\n                /* \"#utility.yul\":1973:2034   */\n              tag_129\n              jump\t// in\n            tag_149:\n                /* \"#utility.yul\":1963:2034   */\n              swap2\n              pop\n                /* \"#utility.yul\":1918:2044   */\n              pop\n                /* \"#utility.yul\":1488:2051   */\n              swap3\n              pop\n              swap3\n              pop\n              swap3\n              jump\t// out\n                /* \"#utility.yul\":2057:2319   */\n            tag_14:\n              0x00\n                /* \"#utility.yul\":2165:2167   */\n              0x20\n                /* \"#utility.yul\":2153:2162   */\n              dup3\n                /* \"#utility.yul\":2144:2151   */\n              dup5\n                /* \"#utility.yul\":2140:2163   */\n              sub\n                /* \"#utility.yul\":2136:2168   */\n              slt\n                /* \"#utility.yul\":2133:2135   */\n              iszero\n              tag_151\n              jumpi\n                /* \"#utility.yul\":2181:2182   */\n              0x00\n                /* \"#utility.yul\":2178:2179   */\n              dup1\n                /* \"#utility.yul\":2171:2183   */\n              revert\n                /* \"#utility.yul\":2133:2135   */\n            tag_151:\n                /* \"#utility.yul\":2224:2225   */\n              0x00\n                /* \"#utility.yul\":2249:2302   */\n              tag_152\n                /* \"#utility.yul\":2294:2301   */\n              dup5\n                /* \"#utility.yul\":2285:2291   */\n              dup3\n                /* \"#utility.yul\":2274:2283   */\n              dup6\n                /* \"#utility.yul\":2270:2292   */\n              add\n                /* \"#utility.yul\":2249:2302   */\n              tag_137\n              jump\t// in\n            tag_152:\n                /* \"#utility.yul\":2239:2302   */\n              swap2\n              pop\n                /* \"#utility.yul\":2195:2312   */\n              pop\n                /* \"#utility.yul\":2123:2319   */\n              swap3\n              swap2\n              pop\n              pop\n              jump\t// out\n                /* \"#utility.yul\":2325:2467   */\n            tag_153:\n                /* \"#utility.yul\":2428:2460   */\n              tag_155\n                /* \"#utility.yul\":2454:2459   */\n              dup2\n                /* \"#utility.yul\":2428:2460   */\n              tag_156\n              jump\t// in\n            tag_155:\n                /* \"#utility.yul\":2423:2426   */\n              dup3\n                /* \"#utility.yul\":2416:2461   */\n              mstore\n                /* \"#utility.yul\":2406:2467   */\n              pop\n              pop\n              jump\t// out\n                /* \"#utility.yul\":2473:2591   */\n            tag_157:\n                /* \"#utility.yul\":2560:2584   */\n              tag_159\n                /* \"#utility.yul\":2578:2583   */\n              dup2\n                /* \"#utility.yul\":2560:2584   */\n              tag_160\n              jump\t// in\n            tag_159:\n                /* \"#utility.yul\":2555:2558   */\n              dup3\n                /* \"#utility.yul\":2548:2585   */\n              mstore\n                /* \"#utility.yul\":2538:2591   */\n              pop\n              pop\n              jump\t// out\n                /* \"#utility.yul\":2597:2706   */\n            tag_161:\n                /* \"#utility.yul\":2678:2699   */\n              tag_163\n                /* \"#utility.yul\":2693:2698   */\n              dup2\n                /* \"#utility.yul\":2678:2699   */\n              tag_164\n              jump\t// in\n            tag_163:\n                /* \"#utility.yul\":2673:2676   */\n              dup3\n                /* \"#utility.yul\":2666:2700   */\n              mstore\n                /* \"#utility.yul\":2656:2706   */\n              pop\n              pop\n              jump\t// out\n                /* \"#utility.yul\":2712:3076   */\n            tag_165:\n              0x00\n                /* \"#utility.yul\":2828:2867   */\n              tag_167\n                /* \"#utility.yul\":2861:2866   */\n              dup3\n                /* \"#utility.yul\":2828:2867   */\n              tag_168\n              jump\t// in\n            tag_167:\n                /* \"#utility.yul\":2883:2954   */\n              tag_169\n                /* \"#utility.yul\":2947:2953   */\n              dup2\n                /* \"#utility.yul\":2942:2945   */\n              dup6\n                /* \"#utility.yul\":2883:2954   */\n              tag_170\n              jump\t// in\n            tag_169:\n                /* \"#utility.yul\":2876:2954   */\n              swap4\n              pop\n                /* \"#utility.yul\":2963:3015   */\n              tag_171\n                /* \"#utility.yul\":3008:3014   */\n              dup2\n                /* \"#utility.yul\":3003:3006   */\n              dup6\n                /* \"#utility.yul\":2996:3000   */\n              0x20\n                /* \"#utility.yul\":2989:2994   */\n              dup7\n                /* \"#utility.yul\":2985:3001   */\n              add\n                /* \"#utility.yul\":2963:3015   */\n              tag_172\n              jump\t// in\n            tag_171:\n                /* \"#utility.yul\":3040:3069   */\n              tag_173\n                /* \"#utility.yul\":3062:3068   */\n              dup2\n                /* \"#utility.yul\":3040:3069   */\n              tag_174\n              jump\t// in\n            tag_173:\n                /* \"#utility.yul\":3035:3038   */\n              dup5\n                /* \"#utility.yul\":3031:3070   */\n              add\n                /* \"#utility.yul\":3024:3070   */\n              swap2\n              pop\n                /* \"#utility.yul\":2804:3076   */\n              pop\n              swap3\n              swap2\n              pop\n              pop\n              jump\t// out\n                /* \"#utility.yul\":3082:3448   */\n            tag_175:\n              0x00\n                /* \"#utility.yul\":3245:3312   */\n              tag_177\n                /* \"#utility.yul\":3309:3311   */\n              0x21\n                /* \"#utility.yul\":3304:3307   */\n              dup4\n                /* \"#utility.yul\":3245:3312   */\n              tag_170\n              jump\t// in\n            tag_177:\n                /* \"#utility.yul\":3238:3312   */\n              swap2\n              pop\n                /* \"#utility.yul\":3321:3414   */\n              tag_178\n                /* \"#utility.yul\":3410:3413   */\n              dup3\n                /* \"#utility.yul\":3321:3414   */\n              tag_179\n              jump\t// in\n            tag_178:\n                /* \"#utility.yul\":3439:3441   */\n              0x40\n                /* \"#utility.yul\":3434:3437   */\n              dup3\n                /* \"#utility.yul\":3430:3442   */\n              add\n                /* \"#utility.yul\":3423:3442   */\n              swap1\n              pop\n                /* \"#utility.yul\":3228:3448   */\n              swap2\n              swap1\n              pop\n              jump\t// out\n                /* \"#utility.yul\":3454:3820   */\n            tag_180:\n              0x00\n                /* \"#utility.yul\":3617:3684   */\n              tag_182\n                /* \"#utility.yul\":3681:3683   */\n              0x3a\n                /* \"#utility.yul\":3676:3679   */\n              dup4\n                /* \"#utility.yul\":3617:3684   */\n              tag_170\n              jump\t// in\n            tag_182:\n                /* \"#utility.yul\":3610:3684   */\n              swap2\n              pop\n                /* \"#utility.yul\":3693:3786   */\n              tag_183\n                /* \"#utility.yul\":3782:3785   */\n              dup3\n                /* \"#utility.yul\":3693:3786   */\n              tag_184\n              jump\t// in\n            tag_183:\n                /* \"#utility.yul\":3811:3813   */\n              0x40\n                /* \"#utility.yul\":3806:3809   */\n              dup3\n                /* \"#utility.yul\":3802:3814   */\n              add\n                /* \"#utility.yul\":3795:3814   */\n              swap1\n              pop\n                /* \"#utility.yul\":3600:3820   */\n              swap2\n              swap1\n              pop\n              jump\t// out\n                /* \"#utility.yul\":3826:4192   */\n            tag_185:\n              0x00\n                /* \"#utility.yul\":3989:4056   */\n              tag_187\n                /* \"#utility.yul\":4053:4055   */\n              0x20\n                /* \"#utility.yul\":4048:4051   */\n              dup4\n                /* \"#utility.yul\":3989:4056   */\n              tag_170\n              jump\t// in\n            tag_187:\n                /* \"#utility.yul\":3982:4056   */\n              swap2\n              pop\n                /* \"#utility.yul\":4065:4158   */\n              tag_188\n                /* \"#utility.yul\":4154:4157   */\n              dup3\n                /* \"#utility.yul\":4065:4158   */\n              tag_189\n              jump\t// in\n            tag_188:\n                /* \"#utility.yul\":4183:4185   */\n              0x20\n                /* \"#utility.yul\":4178:4181   */\n              dup3\n                /* \"#utility.yul\":4174:4186   */\n              add\n                /* \"#utility.yul\":4167:4186   */\n              swap1\n              pop\n                /* \"#utility.yul\":3972:4192   */\n              swap2\n              swap1\n              pop\n              jump\t// out\n                /* \"#utility.yul\":4198:4564   */\n            tag_190:\n              0x00\n                /* \"#utility.yul\":4361:4428   */\n              tag_192\n                /* \"#utility.yul\":4425:4427   */\n              0x1b\n                /* \"#utility.yul\":4420:4423   */\n              dup4\n                /* \"#utility.yul\":4361:4428   */\n              tag_170\n              jump\t// in\n            tag_192:\n                /* \"#utility.yul\":4354:4428   */\n              swap2\n              pop\n                /* \"#utility.yul\":4437:4530   */\n              tag_193\n                /* \"#utility.yul\":4526:4529   */\n              dup3\n                /* \"#utility.yul\":4437:4530   */\n              tag_194\n              jump\t// in\n            tag_193:\n                /* \"#utility.yul\":4555:4557   */\n              0x20\n                /* \"#utility.yul\":4550:4553   */\n              dup3\n                /* \"#utility.yul\":4546:4558   */\n              add\n                /* \"#utility.yul\":4539:4558   */\n              swap1\n              pop\n                /* \"#utility.yul\":4344:4564   */\n              swap2\n              swap1\n              pop\n              jump\t// out\n                /* \"#utility.yul\":4570:4936   */\n            tag_195:\n              0x00\n                /* \"#utility.yul\":4733:4800   */\n              tag_197\n                /* \"#utility.yul\":4797:4799   */\n              0x19\n                /* \"#utility.yul\":4792:4795   */\n              dup4\n                /* \"#utility.yul\":4733:4800   */\n              tag_170\n              jump\t// in\n            tag_197:\n                /* \"#utility.yul\":4726:4800   */\n              swap2\n              pop\n                /* \"#utility.yul\":4809:4902   */\n              tag_198\n                /* \"#utility.yul\":4898:4901   */\n              dup3\n                /* \"#utility.yul\":4809:4902   */\n              tag_199\n              jump\t// in\n            tag_198:\n                /* \"#utility.yul\":4927:4929   */\n              0x20\n                /* \"#utility.yul\":4922:4925   */\n              dup3\n                /* \"#utility.yul\":4918:4930   */\n              add\n                /* \"#utility.yul\":4911:4930   */\n              swap1\n              pop\n                /* \"#utility.yul\":4716:4936   */\n              swap2\n              swap1\n              pop\n              jump\t// out\n                /* \"#utility.yul\":4942:5308   */\n            tag_200:\n              0x00\n                /* \"#utility.yul\":5105:5172   */\n              tag_202\n                /* \"#utility.yul\":5169:5171   */\n              0x21\n                /* \"#utility.yul\":5164:5167   */\n              dup4\n                /* \"#utility.yul\":5105:5172   */\n              tag_170\n              jump\t// in\n            tag_202:\n                /* \"#utility.yul\":5098:5172   */\n              swap2\n              pop\n                /* \"#utility.yul\":5181:5274   */\n              tag_203\n                /* \"#utility.yul\":5270:5273   */\n              dup3\n                /* \"#utility.yul\":5181:5274   */\n              tag_204\n              jump\t// in\n            tag_203:\n                /* \"#utility.yul\":5299:5301   */\n              0x40\n                /* \"#utility.yul\":5294:5297   */\n              dup3\n                /* \"#utility.yul\":5290:5302   */\n              add\n                /* \"#utility.yul\":5283:5302   */\n              swap1\n              pop\n                /* \"#utility.yul\":5088:5308   */\n              swap2\n              swap1\n              pop\n              jump\t// out\n                /* \"#utility.yul\":5314:5680   */\n            tag_205:\n              0x00\n                /* \"#utility.yul\":5477:5544   */\n              tag_207\n                /* \"#utility.yul\":5541:5543   */\n              0x14\n                /* \"#utility.yul\":5536:5539   */\n              dup4\n                /* \"#utility.yul\":5477:5544   */\n              tag_170\n              jump\t// in\n            tag_207:\n                /* \"#utility.yul\":5470:5544   */\n              swap2\n              pop\n                /* \"#utility.yul\":5553:5646   */\n              tag_208\n                /* \"#utility.yul\":5642:5645   */\n              dup3\n                /* \"#utility.yul\":5553:5646   */\n              tag_209\n              jump\t// in\n            tag_208:\n                /* \"#utility.yul\":5671:5673   */\n              0x20\n                /* \"#utility.yul\":5666:5669   */\n              dup3\n                /* \"#utility.yul\":5662:5674   */\n              add\n                /* \"#utility.yul\":5655:5674   */\n              swap1\n              pop\n                /* \"#utility.yul\":5460:5680   */\n              swap2\n              swap1\n              pop\n              jump\t// out\n                /* \"#utility.yul\":5686:5804   */\n            tag_210:\n                /* \"#utility.yul\":5773:5797   */\n              tag_212\n                /* \"#utility.yul\":5791:5796   */\n              dup2\n                /* \"#utility.yul\":5773:5797   */\n              tag_213\n              jump\t// in\n            tag_212:\n                /* \"#utility.yul\":5768:5771   */\n              dup3\n                /* \"#utility.yul\":5761:5798   */\n              mstore\n                /* \"#utility.yul\":5751:5804   */\n              pop\n              pop\n              jump\t// out\n                /* \"#utility.yul\":5810:6032   */\n            tag_43:\n              0x00\n                /* \"#utility.yul\":5941:5943   */\n              0x20\n                /* \"#utility.yul\":5930:5939   */\n              dup3\n                /* \"#utility.yul\":5926:5944   */\n              add\n                /* \"#utility.yul\":5918:5944   */\n              swap1\n              pop\n                /* \"#utility.yul\":5954:6025   */\n              tag_215\n                /* \"#utility.yul\":6022:6023   */\n              0x00\n                /* \"#utility.yul\":6011:6020   */\n              dup4\n                /* \"#utility.yul\":6007:6024   */\n              add\n                /* \"#utility.yul\":5998:6004   */\n              dup5\n                /* \"#utility.yul\":5954:6025   */\n              tag_157\n              jump\t// in\n            tag_215:\n                /* \"#utility.yul\":5908:6032   */\n              swap3\n              swap2\n              pop\n              pop\n              jump\t// out\n                /* \"#utility.yul\":6038:6248   */\n            tag_22:\n              0x00\n                /* \"#utility.yul\":6163:6165   */\n              0x20\n                /* \"#utility.yul\":6152:6161   */\n              dup3\n                /* \"#utility.yul\":6148:6166   */\n              add\n                /* \"#utility.yul\":6140:6166   */\n              swap1\n              pop\n                /* \"#utility.yul\":6176:6241   */\n              tag_217\n                /* \"#utility.yul\":6238:6239   */\n              0x00\n                /* \"#utility.yul\":6227:6236   */\n              dup4\n                /* \"#utility.yul\":6223:6240   */\n              add\n                /* \"#utility.yul\":6214:6220   */\n              dup5\n                /* \"#utility.yul\":6176:6241   */\n              tag_161\n              jump\t// in\n            tag_217:\n                /* \"#utility.yul\":6130:6248   */\n              swap3\n              swap2\n              pop\n              pop\n              jump\t// out\n                /* \"#utility.yul\":6254:7029   */\n            tag_33:\n              0x00\n                /* \"#utility.yul\":6527:6530   */\n              0xa0\n                /* \"#utility.yul\":6516:6525   */\n              dup3\n                /* \"#utility.yul\":6512:6531   */\n              add\n                /* \"#utility.yul\":6504:6531   */\n              swap1\n              pop\n                /* \"#utility.yul\":6577:6586   */\n              dup2\n                /* \"#utility.yul\":6571:6575   */\n              dup2\n                /* \"#utility.yul\":6567:6587   */\n              sub\n                /* \"#utility.yul\":6563:6564   */\n              0x00\n                /* \"#utility.yul\":6552:6561   */\n              dup4\n                /* \"#utility.yul\":6548:6565   */\n              add\n                /* \"#utility.yul\":6541:6588   */\n              mstore\n                /* \"#utility.yul\":6605:6683   */\n              tag_219\n                /* \"#utility.yul\":6678:6682   */\n              dup2\n                /* \"#utility.yul\":6669:6675   */\n              dup9\n                /* \"#utility.yul\":6605:6683   */\n              tag_165\n              jump\t// in\n            tag_219:\n                /* \"#utility.yul\":6597:6683   */\n              swap1\n              pop\n                /* \"#utility.yul\":6693:6765   */\n              tag_220\n                /* \"#utility.yul\":6761:6763   */\n              0x20\n                /* \"#utility.yul\":6750:6759   */\n              dup4\n                /* \"#utility.yul\":6746:6764   */\n              add\n                /* \"#utility.yul\":6737:6743   */\n              dup8\n                /* \"#utility.yul\":6693:6765   */\n              tag_210\n              jump\t// in\n            tag_220:\n                /* \"#utility.yul\":6775:6863   */\n              tag_221\n                /* \"#utility.yul\":6859:6861   */\n              0x40\n                /* \"#utility.yul\":6848:6857   */\n              dup4\n                /* \"#utility.yul\":6844:6862   */\n              add\n                /* \"#utility.yul\":6835:6841   */\n              dup7\n                /* \"#utility.yul\":6775:6863   */\n              tag_153\n              jump\t// in\n            tag_221:\n                /* \"#utility.yul\":6873:6945   */\n              tag_222\n                /* \"#utility.yul\":6941:6943   */\n              0x60\n                /* \"#utility.yul\":6930:6939   */\n              dup4\n                /* \"#utility.yul\":6926:6944   */\n              add\n                /* \"#utility.yul\":6917:6923   */\n              dup6\n                /* \"#utility.yul\":6873:6945   */\n              tag_210\n              jump\t// in\n            tag_222:\n                /* \"#utility.yul\":6955:7022   */\n              tag_223\n                /* \"#utility.yul\":7017:7020   */\n              0x80\n                /* \"#utility.yul\":7006:7015   */\n              dup4\n                /* \"#utility.yul\":7002:7021   */\n              add\n                /* \"#utility.yul\":6993:6999   */\n              dup5\n                /* \"#utility.yul\":6955:7022   */\n              tag_161\n              jump\t// in\n            tag_223:\n                /* \"#utility.yul\":6494:7029   */\n              swap7\n              swap6\n              pop\n              pop\n              pop\n              pop\n              pop\n              pop\n              jump\t// out\n                /* \"#utility.yul\":7035:7454   */\n            tag_57:\n              0x00\n                /* \"#utility.yul\":7239:7241   */\n              0x20\n                /* \"#utility.yul\":7228:7237   */\n              dup3\n                /* \"#utility.yul\":7224:7242   */\n              add\n                /* \"#utility.yul\":7216:7242   */\n              swap1\n              pop\n                /* \"#utility.yul\":7288:7297   */\n              dup2\n                /* \"#utility.yul\":7282:7286   */\n              dup2\n                /* \"#utility.yul\":7278:7298   */\n              sub\n                /* \"#utility.yul\":7274:7275   */\n              0x00\n                /* \"#utility.yul\":7263:7272   */\n              dup4\n                /* \"#utility.yul\":7259:7276   */\n              add\n                /* \"#utility.yul\":7252:7299   */\n              mstore\n                /* \"#utility.yul\":7316:7447   */\n              tag_225\n                /* \"#utility.yul\":7442:7446   */\n              dup2\n                /* \"#utility.yul\":7316:7447   */\n              tag_175\n              jump\t// in\n            tag_225:\n                /* \"#utility.yul\":7308:7447   */\n              swap1\n              pop\n                /* \"#utility.yul\":7206:7454   */\n              swap2\n              swap1\n              pop\n              jump\t// out\n                /* \"#utility.yul\":7460:7879   */\n            tag_100:\n              0x00\n                /* \"#utility.yul\":7664:7666   */\n              0x20\n                /* \"#utility.yul\":7653:7662   */\n              dup3\n                /* \"#utility.yul\":7649:7667   */\n              add\n                /* \"#utility.yul\":7641:7667   */\n              swap1\n              pop\n                /* \"#utility.yul\":7713:7722   */\n              dup2\n                /* \"#utility.yul\":7707:7711   */\n              dup2\n                /* \"#utility.yul\":7703:7723   */\n              sub\n                /* \"#utility.yul\":7699:7700   */\n              0x00\n                /* \"#utility.yul\":7688:7697   */\n              dup4\n                /* \"#utility.yul\":7684:7701   */\n              add\n                /* \"#utility.yul\":7677:7724   */\n              mstore\n                /* \"#utility.yul\":7741:7872   */\n              tag_227\n                /* \"#utility.yul\":7867:7871   */\n              dup2\n                /* \"#utility.yul\":7741:7872   */\n              tag_180\n              jump\t// in\n            tag_227:\n                /* \"#utility.yul\":7733:7872   */\n              swap1\n              pop\n                /* \"#utility.yul\":7631:7879   */\n              swap2\n              swap1\n              pop\n              jump\t// out\n                /* \"#utility.yul\":7885:8304   */\n            tag_92:\n              0x00\n                /* \"#utility.yul\":8089:8091   */\n              0x20\n                /* \"#utility.yul\":8078:8087   */\n              dup3\n                /* \"#utility.yul\":8074:8092   */\n              add\n                /* \"#utility.yul\":8066:8092   */\n              swap1\n              pop\n                /* \"#utility.yul\":8138:8147   */\n              dup2\n                /* \"#utility.yul\":8132:8136   */\n              dup2\n                /* \"#utility.yul\":8128:8148   */\n              sub\n                /* \"#utility.yul\":8124:8125   */\n              0x00\n                /* \"#utility.yul\":8113:8122   */\n              dup4\n                /* \"#utility.yul\":8109:8126   */\n              add\n                /* \"#utility.yul\":8102:8149   */\n              mstore\n                /* \"#utility.yul\":8166:8297   */\n              tag_229\n                /* \"#utility.yul\":8292:8296   */\n              dup2\n                /* \"#utility.yul\":8166:8297   */\n              tag_185\n              jump\t// in\n            tag_229:\n                /* \"#utility.yul\":8158:8297   */\n              swap1\n              pop\n                /* \"#utility.yul\":8056:8304   */\n              swap2\n              swap1\n              pop\n              jump\t// out\n                /* \"#utility.yul\":8310:8729   */\n            tag_89:\n              0x00\n                /* \"#utility.yul\":8514:8516   */\n              0x20\n                /* \"#utility.yul\":8503:8512   */\n              dup3\n                /* \"#utility.yul\":8499:8517   */\n              add\n                /* \"#utility.yul\":8491:8517   */\n              swap1\n              pop\n                /* \"#utility.yul\":8563:8572   */\n              dup2\n                /* \"#utility.yul\":8557:8561   */\n              dup2\n                /* \"#utility.yul\":8553:8573   */\n              sub\n                /* \"#utility.yul\":8549:8550   */\n              0x00\n                /* \"#utility.yul\":8538:8547   */\n              dup4\n                /* \"#utility.yul\":8534:8551   */\n              add\n                /* \"#utility.yul\":8527:8574   */\n              mstore\n                /* \"#utility.yul\":8591:8722   */\n              tag_231\n                /* \"#utility.yul\":8717:8721   */\n              dup2\n                /* \"#utility.yul\":8591:8722   */\n              tag_190\n              jump\t// in\n            tag_231:\n                /* \"#utility.yul\":8583:8722   */\n              swap1\n              pop\n                /* \"#utility.yul\":8481:8729   */\n              swap2\n              swap1\n              pop\n              jump\t// out\n                /* \"#utility.yul\":8735:9154   */\n            tag_68:\n              0x00\n                /* \"#utility.yul\":8939:8941   */\n              0x20\n                /* \"#utility.yul\":8928:8937   */\n              dup3\n                /* \"#utility.yul\":8924:8942   */\n              add\n                /* \"#utility.yul\":8916:8942   */\n              swap1\n              pop\n                /* \"#utility.yul\":8988:8997   */\n              dup2\n                /* \"#utility.yul\":8982:8986   */\n              dup2\n                /* \"#utility.yul\":8978:8998   */\n              sub\n                /* \"#utility.yul\":8974:8975   */\n              0x00\n                /* \"#utility.yul\":8963:8972   */\n              dup4\n                /* \"#utility.yul\":8959:8976   */\n              add\n                /* \"#utility.yul\":8952:8999   */\n              mstore\n                /* \"#utility.yul\":9016:9147   */\n              tag_233\n                /* \"#utility.yul\":9142:9146   */\n              dup2\n                /* \"#utility.yul\":9016:9147   */\n              tag_195\n              jump\t// in\n            tag_233:\n                /* \"#utility.yul\":9008:9147   */\n              swap1\n              pop\n                /* \"#utility.yul\":8906:9154   */\n              swap2\n              swap1\n              pop\n              jump\t// out\n                /* \"#utility.yul\":9160:9579   */\n            tag_103:\n              0x00\n                /* \"#utility.yul\":9364:9366   */\n              0x20\n                /* \"#utility.yul\":9353:9362   */\n              dup3\n                /* \"#utility.yul\":9349:9367   */\n              add\n                /* \"#utility.yul\":9341:9367   */\n              swap1\n              pop\n                /* \"#utility.yul\":9413:9422   */\n              dup2\n                /* \"#utility.yul\":9407:9411   */\n              dup2\n                /* \"#utility.yul\":9403:9423   */\n              sub\n                /* \"#utility.yul\":9399:9400   */\n              0x00\n                /* \"#utility.yul\":9388:9397   */\n              dup4\n                /* \"#utility.yul\":9384:9401   */\n              add\n                /* \"#utility.yul\":9377:9424   */\n              mstore\n                /* \"#utility.yul\":9441:9572   */\n              tag_235\n                /* \"#utility.yul\":9567:9571   */\n              dup2\n                /* \"#utility.yul\":9441:9572   */\n              tag_200\n              jump\t// in\n            tag_235:\n                /* \"#utility.yul\":9433:9572   */\n              swap1\n              pop\n                /* \"#utility.yul\":9331:9579   */\n              swap2\n              swap1\n              pop\n              jump\t// out\n                /* \"#utility.yul\":9585:10004   */\n            tag_65:\n              0x00\n                /* \"#utility.yul\":9789:9791   */\n              0x20\n                /* \"#utility.yul\":9778:9787   */\n              dup3\n                /* \"#utility.yul\":9774:9792   */\n              add\n                /* \"#utility.yul\":9766:9792   */\n              swap1\n              pop\n                /* \"#utility.yul\":9838:9847   */\n              dup2\n                /* \"#utility.yul\":9832:9836   */\n              dup2\n                /* \"#utility.yul\":9828:9848   */\n              sub\n                /* \"#utility.yul\":9824:9825   */\n              0x00\n                /* \"#utility.yul\":9813:9822   */\n              dup4\n                /* \"#utility.yul\":9809:9826   */\n              add\n                /* \"#utility.yul\":9802:9849   */\n              mstore\n                /* \"#utility.yul\":9866:9997   */\n              tag_237\n                /* \"#utility.yul\":9992:9996   */\n              dup2\n                /* \"#utility.yul\":9866:9997   */\n              tag_205\n              jump\t// in\n            tag_237:\n                /* \"#utility.yul\":9858:9997   */\n              swap1\n              pop\n                /* \"#utility.yul\":9756:10004   */\n              swap2\n              swap1\n              pop\n              jump\t// out\n                /* \"#utility.yul\":10010:10232   */\n            tag_27:\n              0x00\n                /* \"#utility.yul\":10141:10143   */\n              0x20\n                /* \"#utility.yul\":10130:10139   */\n              dup3\n                /* \"#utility.yul\":10126:10144   */\n              add\n                /* \"#utility.yul\":10118:10144   */\n              swap1\n              pop\n                /* \"#utility.yul\":10154:10225   */\n              tag_239\n                /* \"#utility.yul\":10222:10223   */\n              0x00\n                /* \"#utility.yul\":10211:10220   */\n              dup4\n                /* \"#utility.yul\":10207:10224   */\n              add\n                /* \"#utility.yul\":10198:10204   */\n              dup5\n                /* \"#utility.yul\":10154:10225   */\n              tag_210\n              jump\t// in\n            tag_239:\n                /* \"#utility.yul\":10108:10232   */\n              swap3\n              swap2\n              pop\n              pop\n              jump\t// out\n                /* \"#utility.yul\":10238:10367   */\n            tag_121:\n              0x00\n                /* \"#utility.yul\":10299:10319   */\n              tag_241\n              tag_242\n              jump\t// in\n            tag_241:\n                /* \"#utility.yul\":10289:10319   */\n              swap1\n              pop\n                /* \"#utility.yul\":10328:10361   */\n              tag_243\n                /* \"#utility.yul\":10356:10360   */\n              dup3\n                /* \"#utility.yul\":10348:10354   */\n              dup3\n                /* \"#utility.yul\":10328:10361   */\n              tag_244\n              jump\t// in\n            tag_243:\n                /* \"#utility.yul\":10279:10367   */\n              swap2\n              swap1\n              pop\n              jump\t// out\n                /* \"#utility.yul\":10373:10448   */\n            tag_242:\n              0x00\n                /* \"#utility.yul\":10439:10441   */\n              0x40\n                /* \"#utility.yul\":10433:10442   */\n              mload\n                /* \"#utility.yul\":10423:10442   */\n              swap1\n              pop\n                /* \"#utility.yul\":10413:10448   */\n              swap1\n              jump\t// out\n                /* \"#utility.yul\":10454:10762   */\n            tag_120:\n              0x00\n                /* \"#utility.yul\":10606:10624   */\n              0xffffffffffffffff\n                /* \"#utility.yul\":10598:10604   */\n              dup3\n                /* \"#utility.yul\":10595:10625   */\n              gt\n                /* \"#utility.yul\":10592:10594   */\n              iszero\n              tag_247\n              jumpi\n                /* \"#utility.yul\":10628:10646   */\n              tag_248\n              tag_249\n              jump\t// in\n            tag_248:\n                /* \"#utility.yul\":10592:10594   */\n            tag_247:\n                /* \"#utility.yul\":10666:10695   */\n              tag_250\n                /* \"#utility.yul\":10688:10694   */\n              dup3\n                /* \"#utility.yul\":10666:10695   */\n              tag_174\n              jump\t// in\n            tag_250:\n                /* \"#utility.yul\":10658:10695   */\n              swap1\n              pop\n                /* \"#utility.yul\":10750:10754   */\n              0x20\n                /* \"#utility.yul\":10744:10748   */\n              dup2\n                /* \"#utility.yul\":10740:10755   */\n              add\n                /* \"#utility.yul\":10732:10755   */\n              swap1\n              pop\n                /* \"#utility.yul\":10521:10762   */\n              swap2\n              swap1\n              pop\n              jump\t// out\n                /* \"#utility.yul\":10768:10867   */\n            tag_168:\n              0x00\n                /* \"#utility.yul\":10854:10859   */\n              dup2\n                /* \"#utility.yul\":10848:10860   */\n              mload\n                /* \"#utility.yul\":10838:10860   */\n              swap1\n              pop\n                /* \"#utility.yul\":10827:10867   */\n              swap2\n              swap1\n              pop\n              jump\t// out\n                /* \"#utility.yul\":10873:11042   */\n            tag_170:\n              0x00\n                /* \"#utility.yul\":10991:10997   */\n              dup3\n                /* \"#utility.yul\":10986:10989   */\n              dup3\n                /* \"#utility.yul\":10979:10998   */\n              mstore\n                /* \"#utility.yul\":11031:11035   */\n              0x20\n                /* \"#utility.yul\":11026:11029   */\n              dup3\n                /* \"#utility.yul\":11022:11036   */\n              add\n                /* \"#utility.yul\":11007:11036   */\n              swap1\n              pop\n                /* \"#utility.yul\":10969:11042   */\n              swap3\n              swap2\n              pop\n              pop\n              jump\t// out\n                /* \"#utility.yul\":11048:11233   */\n            tag_62:\n              0x00\n                /* \"#utility.yul\":11105:11125   */\n              tag_254\n                /* \"#utility.yul\":11123:11124   */\n              dup3\n                /* \"#utility.yul\":11105:11125   */\n              tag_213\n              jump\t// in\n            tag_254:\n                /* \"#utility.yul\":11100:11125   */\n              swap2\n              pop\n                /* \"#utility.yul\":11139:11159   */\n              tag_255\n                /* \"#utility.yul\":11157:11158   */\n              dup4\n                /* \"#utility.yul\":11139:11159   */\n              tag_213\n              jump\t// in\n            tag_255:\n                /* \"#utility.yul\":11134:11159   */\n              swap3\n              pop\n                /* \"#utility.yul\":11178:11179   */\n              dup3\n                /* \"#utility.yul\":11168:11170   */\n              tag_256\n              jumpi\n                /* \"#utility.yul\":11183:11201   */\n              tag_257\n              tag_258\n              jump\t// in\n            tag_257:\n                /* \"#utility.yul\":11168:11170   */\n            tag_256:\n                /* \"#utility.yul\":11225:11226   */\n              dup3\n                /* \"#utility.yul\":11222:11223   */\n              dup3\n                /* \"#utility.yul\":11218:11227   */\n              div\n                /* \"#utility.yul\":11213:11227   */\n              swap1\n              pop\n                /* \"#utility.yul\":11090:11233   */\n              swap3\n              swap2\n              pop\n              pop\n              jump\t// out\n                /* \"#utility.yul\":11239:11335   */\n            tag_160:\n              0x00\n                /* \"#utility.yul\":11305:11329   */\n              tag_260\n                /* \"#utility.yul\":11323:11328   */\n              dup3\n                /* \"#utility.yul\":11305:11329   */\n              tag_261\n              jump\t// in\n            tag_260:\n                /* \"#utility.yul\":11294:11329   */\n              swap1\n              pop\n                /* \"#utility.yul\":11284:11335   */\n              swap2\n              swap1\n              pop\n              jump\t// out\n                /* \"#utility.yul\":11341:11445   */\n            tag_156:\n              0x00\n                /* \"#utility.yul\":11415:11439   */\n              tag_263\n                /* \"#utility.yul\":11433:11438   */\n              dup3\n                /* \"#utility.yul\":11415:11439   */\n              tag_261\n              jump\t// in\n            tag_263:\n                /* \"#utility.yul\":11404:11439   */\n              swap1\n              pop\n                /* \"#utility.yul\":11394:11445   */\n              swap2\n              swap1\n              pop\n              jump\t// out\n                /* \"#utility.yul\":11451:11541   */\n            tag_164:\n              0x00\n                /* \"#utility.yul\":11528:11533   */\n              dup2\n                /* \"#utility.yul\":11521:11534   */\n              iszero\n                /* \"#utility.yul\":11514:11535   */\n              iszero\n                /* \"#utility.yul\":11503:11535   */\n              swap1\n              pop\n                /* \"#utility.yul\":11493:11541   */\n              swap2\n              swap1\n              pop\n              jump\t// out\n                /* \"#utility.yul\":11547:11673   */\n            tag_261:\n              0x00\n                /* \"#utility.yul\":11624:11666   */\n              0xffffffffffffffffffffffffffffffffffffffff\n                /* \"#utility.yul\":11617:11622   */\n              dup3\n                /* \"#utility.yul\":11613:11667   */\n              and\n                /* \"#utility.yul\":11602:11667   */\n              swap1\n              pop\n                /* \"#utility.yul\":11592:11673   */\n              swap2\n              swap1\n              pop\n              jump\t// out\n                /* \"#utility.yul\":11679:11756   */\n            tag_213:\n              0x00\n                /* \"#utility.yul\":11745:11750   */\n              dup2\n                /* \"#utility.yul\":11734:11750   */\n              swap1\n              pop\n                /* \"#utility.yul\":11724:11756   */\n              swap2\n              swap1\n              pop\n              jump\t// out\n                /* \"#utility.yul\":11762:11916   */\n            tag_124:\n                /* \"#utility.yul\":11846:11852   */\n              dup3\n                /* \"#utility.yul\":11841:11844   */\n              dup2\n                /* \"#utility.yul\":11836:11839   */\n              dup4\n                /* \"#utility.yul\":11823:11853   */\n              calldatacopy\n                /* \"#utility.yul\":11908:11909   */\n              0x00\n                /* \"#utility.yul\":11899:11905   */\n              dup4\n                /* \"#utility.yul\":11894:11897   */\n              dup4\n                /* \"#utility.yul\":11890:11906   */\n              add\n                /* \"#utility.yul\":11883:11910   */\n              mstore\n                /* \"#utility.yul\":11813:11916   */\n              pop\n              pop\n              pop\n              jump\t// out\n                /* \"#utility.yul\":11922:12229   */\n            tag_172:\n                /* \"#utility.yul\":11990:11991   */\n              0x00\n                /* \"#utility.yul\":12000:12113   */\n            tag_269:\n                /* \"#utility.yul\":12014:12020   */\n              dup4\n                /* \"#utility.yul\":12011:12012   */\n              dup2\n                /* \"#utility.yul\":12008:12021   */\n              lt\n                /* \"#utility.yul\":12000:12113   */\n              iszero\n              tag_271\n              jumpi\n                /* \"#utility.yul\":12099:12100   */\n              dup1\n                /* \"#utility.yul\":12094:12097   */\n              dup3\n                /* \"#utility.yul\":12090:12101   */\n              add\n                /* \"#utility.yul\":12084:12102   */\n              mload\n                /* \"#utility.yul\":12080:12081   */\n              dup2\n                /* \"#utility.yul\":12075:12078   */\n              dup5\n                /* \"#utility.yul\":12071:12082   */\n              add\n                /* \"#utility.yul\":12064:12103   */\n              mstore\n                /* \"#utility.yul\":12036:12038   */\n              0x20\n                /* \"#utility.yul\":12033:12034   */\n              dup2\n                /* \"#utility.yul\":12029:12039   */\n              add\n                /* \"#utility.yul\":12024:12039   */\n              swap1\n              pop\n                /* \"#utility.yul\":12000:12113   */\n              jump(tag_269)\n            tag_271:\n                /* \"#utility.yul\":12131:12137   */\n              dup4\n                /* \"#utility.yul\":12128:12129   */\n              dup2\n                /* \"#utility.yul\":12125:12138   */\n              gt\n                /* \"#utility.yul\":12122:12124   */\n              iszero\n              tag_272\n              jumpi\n                /* \"#utility.yul\":12211:12212   */\n              0x00\n                /* \"#utility.yul\":12202:12208   */\n              dup5\n                /* \"#utility.yul\":12197:12200   */\n              dup5\n                /* \"#utility.yul\":12193:12209   */\n              add\n                /* \"#utility.yul\":12186:12213   */\n              mstore\n                /* \"#utility.yul\":12122:12124   */\n            tag_272:\n                /* \"#utility.yul\":11971:12229   */\n              pop\n              pop\n              pop\n              pop\n              jump\t// out\n                /* \"#utility.yul\":12235:12555   */\n            tag_74:\n              0x00\n                /* \"#utility.yul\":12316:12317   */\n              0x02\n                /* \"#utility.yul\":12310:12314   */\n              dup3\n                /* \"#utility.yul\":12306:12318   */\n              div\n                /* \"#utility.yul\":12296:12318   */\n              swap1\n              pop\n                /* \"#utility.yul\":12363:12364   */\n              0x01\n                /* \"#utility.yul\":12357:12361   */\n              dup3\n                /* \"#utility.yul\":12353:12365   */\n              and\n                /* \"#utility.yul\":12384:12402   */\n              dup1\n                /* \"#utility.yul\":12374:12376   */\n              tag_274\n              jumpi\n                /* \"#utility.yul\":12440:12444   */\n              0x7f\n                /* \"#utility.yul\":12432:12438   */\n              dup3\n                /* \"#utility.yul\":12428:12445   */\n              and\n                /* \"#utility.yul\":12418:12445   */\n              swap2\n              pop\n                /* \"#utility.yul\":12374:12376   */\n            tag_274:\n                /* \"#utility.yul\":12502:12504   */\n              0x20\n                /* \"#utility.yul\":12494:12500   */\n              dup3\n                /* \"#utility.yul\":12491:12505   */\n              lt\n                /* \"#utility.yul\":12471:12489   */\n              dup2\n                /* \"#utility.yul\":12468:12506   */\n              eq\n                /* \"#utility.yul\":12465:12467   */\n              iszero\n              tag_275\n              jumpi\n                /* \"#utility.yul\":12521:12539   */\n              tag_276\n              tag_277\n              jump\t// in\n            tag_276:\n                /* \"#utility.yul\":12465:12467   */\n            tag_275:\n                /* \"#utility.yul\":12286:12555   */\n              pop\n              swap2\n              swap1\n              pop\n              jump\t// out\n                /* \"#utility.yul\":12561:12842   */\n            tag_244:\n                /* \"#utility.yul\":12644:12671   */\n              tag_279\n                /* \"#utility.yul\":12666:12670   */\n              dup3\n                /* \"#utility.yul\":12644:12671   */\n              tag_174\n              jump\t// in\n            tag_279:\n                /* \"#utility.yul\":12636:12642   */\n              dup2\n                /* \"#utility.yul\":12632:12672   */\n              add\n                /* \"#utility.yul\":12774:12780   */\n              dup2\n                /* \"#utility.yul\":12762:12772   */\n              dup2\n                /* \"#utility.yul\":12759:12781   */\n              lt\n                /* \"#utility.yul\":12738:12756   */\n              0xffffffffffffffff\n                /* \"#utility.yul\":12726:12736   */\n              dup3\n                /* \"#utility.yul\":12723:12757   */\n              gt\n                /* \"#utility.yul\":12720:12782   */\n              or\n                /* \"#utility.yul\":12717:12719   */\n              iszero\n              tag_280\n              jumpi\n                /* \"#utility.yul\":12785:12803   */\n              tag_281\n              tag_249\n              jump\t// in\n            tag_281:\n                /* \"#utility.yul\":12717:12719   */\n            tag_280:\n                /* \"#utility.yul\":12825:12835   */\n              dup1\n                /* \"#utility.yul\":12821:12823   */\n              0x40\n                /* \"#utility.yul\":12814:12836   */\n              mstore\n                /* \"#utility.yul\":12604:12842   */\n              pop\n              pop\n              pop\n              jump\t// out\n                /* \"#utility.yul\":12848:13081   */\n            tag_94:\n              0x00\n                /* \"#utility.yul\":12910:12934   */\n              tag_283\n                /* \"#utility.yul\":12928:12933   */\n              dup3\n                /* \"#utility.yul\":12910:12934   */\n              tag_213\n              jump\t// in\n            tag_283:\n                /* \"#utility.yul\":12901:12934   */\n              swap2\n              pop\n                /* \"#utility.yul\":12956:13022   */\n              0xffffffffffffffffffffffffffffffffffffffffffffffffffffffffffffffff\n                /* \"#utility.yul\":12949:12954   */\n              dup3\n                /* \"#utility.yul\":12946:13023   */\n              eq\n                /* \"#utility.yul\":12943:12945   */\n              iszero\n              tag_284\n              jumpi\n                /* \"#utility.yul\":13026:13044   */\n              tag_285\n              tag_286\n              jump\t// in\n            tag_285:\n                /* \"#utility.yul\":12943:12945   */\n            tag_284:\n                /* \"#utility.yul\":13073:13074   */\n              0x01\n                /* \"#utility.yul\":13066:13071   */\n              dup3\n                /* \"#utility.yul\":13062:13075   */\n              add\n                /* \"#utility.yul\":13055:13075   */\n              swap1\n              pop\n                /* \"#utility.yul\":12891:13081   */\n              swap2\n              swap1\n              pop\n              jump\t// out\n                /* \"#utility.yul\":13087:13267   */\n            tag_286:\n                /* \"#utility.yul\":13135:13212   */\n              0x4e487b7100000000000000000000000000000000000000000000000000000000\n                /* \"#utility.yul\":13132:13133   */\n              0x00\n                /* \"#utility.yul\":13125:13213   */\n              mstore\n                /* \"#utility.yul\":13232:13236   */\n              0x11\n                /* \"#utility.yul\":13229:13230   */\n              0x04\n                /* \"#utility.yul\":13222:13237   */\n              mstore\n                /* \"#utility.yul\":13256:13260   */\n              0x24\n                /* \"#utility.yul\":13253:13254   */\n              0x00\n                /* \"#utility.yul\":13246:13261   */\n              revert\n                /* \"#utility.yul\":13273:13453   */\n            tag_258:\n                /* \"#utility.yul\":13321:13398   */\n              0x4e487b7100000000000000000000000000000000000000000000000000000000\n                /* \"#utility.yul\":13318:13319   */\n              0x00\n                /* \"#utility.yul\":13311:13399   */\n              mstore\n                /* \"#utility.yul\":13418:13422   */\n              0x12\n                /* \"#utility.yul\":13415:13416   */\n              0x04\n                /* \"#utility.yul\":13408:13423   */\n              mstore\n                /* \"#utility.yul\":13442:13446   */\n              0x24\n                /* \"#utility.yul\":13439:13440   */\n              0x00\n                /* \"#utility.yul\":13432:13447   */\n              revert\n                /* \"#utility.yul\":13459:13639   */\n            tag_277:\n                /* \"#utility.yul\":13507:13584   */\n              0x4e487b7100000000000000000000000000000000000000000000000000000000\n                /* \"#utility.yul\":13504:13505   */\n              0x00\n                /* \"#utility.yul\":13497:13585   */\n              mstore\n                /* \"#utility.yul\":13604:13608   */\n              0x22\n                /* \"#utility.yul\":13601:13602   */\n              0x04\n                /* \"#utility.yul\":13594:13609   */\n              mstore\n                /* \"#utility.yul\":13628:13632   */\n              0x24\n                /* \"#utility.yul\":13625:13626   */\n              0x00\n                /* \"#utility.yul\":13618:13633   */\n              revert\n                /* \"#utility.yul\":13645:13825   */\n            tag_249:\n                /* \"#utility.yul\":13693:13770   */\n              0x4e487b7100000000000000000000000000000000000000000000000000000000\n                /* \"#utility.yul\":13690:13691   */\n              0x00\n                /* \"#utility.yul\":13683:13771   */\n              mstore\n                /* \"#utility.yul\":13790:13794   */\n              0x41\n                /* \"#utility.yul\":13787:13788   */\n              0x04\n                /* \"#utility.yul\":13780:13795   */\n              mstore\n                /* \"#utility.yul\":13814:13818   */\n              0x24\n                /* \"#utility.yul\":13811:13812   */\n              0x00\n                /* \"#utility.yul\":13804:13819   */\n              revert\n                /* \"#utility.yul\":13831:13933   */\n            tag_174:\n              0x00\n                /* \"#utility.yul\":13923:13925   */\n              0x1f\n                /* \"#utility.yul\":13919:13926   */\n              not\n                /* \"#utility.yul\":13914:13916   */\n              0x1f\n                /* \"#utility.yul\":13907:13912   */\n              dup4\n                /* \"#utility.yul\":13903:13917   */\n              add\n                /* \"#utility.yul\":13899:13927   */\n              and\n                /* \"#utility.yul\":13889:13927   */\n              swap1\n              pop\n                /* \"#utility.yul\":13879:13933   */\n              swap2\n              swap1\n              pop\n              jump\t// out\n                /* \"#utility.yul\":13939:14159   */\n            tag_179:\n                /* \"#utility.yul\":14079:14113   */\n              0x4f7065726174696f6e20726573657276656420666f72206f776e6572206f6e6c\n                /* \"#utility.yul\":14075:14076   */\n              0x00\n                /* \"#utility.yul\":14067:14073   */\n              dup3\n                /* \"#utility.yul\":14063:14077   */\n              add\n                /* \"#utility.yul\":14056:14114   */\n              mstore\n                /* \"#utility.yul\":14148:14151   */\n              0x7900000000000000000000000000000000000000000000000000000000000000\n                /* \"#utility.yul\":14143:14145   */\n              0x20\n                /* \"#utility.yul\":14135:14141   */\n              dup3\n                /* \"#utility.yul\":14131:14146   */\n              add\n                /* \"#utility.yul\":14124:14152   */\n              mstore\n                /* \"#utility.yul\":14045:14159   */\n              pop\n              jump\t// out\n                /* \"#utility.yul\":14165:14410   */\n            tag_184:\n                /* \"#utility.yul\":14305:14339   */\n              0x596f75206e65656420746f20636f6e7472696275746520746f20746865206361\n                /* \"#utility.yul\":14301:14302   */\n              0x00\n                /* \"#utility.yul\":14293:14299   */\n              dup3\n                /* \"#utility.yul\":14289:14303   */\n              add\n                /* \"#utility.yul\":14282:14340   */\n              mstore\n                /* \"#utility.yul\":14374:14402   */\n              0x6d706169676e206265666f726520796f752063616e20766f7465000000000000\n                /* \"#utility.yul\":14369:14371   */\n              0x20\n                /* \"#utility.yul\":14361:14367   */\n              dup3\n                /* \"#utility.yul\":14357:14372   */\n              add\n                /* \"#utility.yul\":14350:14403   */\n              mstore\n                /* \"#utility.yul\":14271:14410   */\n              pop\n              jump\t// out\n                /* \"#utility.yul\":14416:14598   */\n            tag_189:\n                /* \"#utility.yul\":14556:14590   */\n              0x596f7520616c72656164792066756e64656420746869732063616d706169676e\n                /* \"#utility.yul\":14552:14553   */\n              0x00\n                /* \"#utility.yul\":14544:14550   */\n              dup3\n                /* \"#utility.yul\":14540:14554   */\n              add\n                /* \"#utility.yul\":14533:14591   */\n              mstore\n                /* \"#utility.yul\":14522:14598   */\n              pop\n              jump\t// out\n                /* \"#utility.yul\":14604:14781   */\n            tag_194:\n                /* \"#utility.yul\":14744:14773   */\n              0x436f6e747269627574696f6e20616d6f756e7420746f6f206c6f770000000000\n                /* \"#utility.yul\":14740:14741   */\n              0x00\n                /* \"#utility.yul\":14732:14738   */\n              dup3\n                /* \"#utility.yul\":14728:14742   */\n              add\n                /* \"#utility.yul\":14721:14774   */\n              mstore\n                /* \"#utility.yul\":14710:14781   */\n              pop\n              jump\t// out\n                /* \"#utility.yul\":14787:14962   */\n            tag_199:\n                /* \"#utility.yul\":14927:14954   */\n              0x5265717565737420616c726561647920636f6d706c6574656400000000000000\n                /* \"#utility.yul\":14923:14924   */\n              0x00\n                /* \"#utility.yul\":14915:14921   */\n              dup3\n                /* \"#utility.yul\":14911:14925   */\n              add\n                /* \"#utility.yul\":14904:14955   */\n              mstore\n                /* \"#utility.yul\":14893:14962   */\n              pop\n              jump\t// out\n                /* \"#utility.yul\":14968:15188   */\n            tag_204:\n                /* \"#utility.yul\":15108:15142   */\n              0x596f7520616c726561647920617070726f766564207468697320726571756573\n                /* \"#utility.yul\":15104:15105   */\n              0x00\n                /* \"#utility.yul\":15096:15102   */\n              dup3\n                /* \"#utility.yul\":15092:15106   */\n              add\n                /* \"#utility.yul\":15085:15143   */\n              mstore\n                /* \"#utility.yul\":15177:15180   */\n              0x7400000000000000000000000000000000000000000000000000000000000000\n                /* \"#utility.yul\":15172:15174   */\n              0x20\n                /* \"#utility.yul\":15164:15170   */\n              dup3\n                /* \"#utility.yul\":15160:15175   */\n              add\n                /* \"#utility.yul\":15153:15181   */\n              mstore\n                /* \"#utility.yul\":15074:15188   */\n              pop\n              jump\t// out\n                /* \"#utility.yul\":15194:15364   */\n            tag_209:\n                /* \"#utility.yul\":15334:15356   */\n              0x4e6f7420656e6f75676820617070726f76616c73000000000000000000000000\n                /* \"#utility.yul\":15330:15331   */\n              0x00\n                /* \"#utility.yul\":15322:15328   */\n              dup3\n                /* \"#utility.yul\":15318:15332   */\n              add\n                /* \"#utility.yul\":15311:15357   */\n              mstore\n                /* \"#utility.yul\":15300:15364   */\n              pop\n              jump\t// out\n                /* \"#utility.yul\":15370:15492   */\n            tag_128:\n                /* \"#utility.yul\":15443:15467   */\n              tag_300\n                /* \"#utility.yul\":15461:15466   */\n              dup2\n                /* \"#utility.yul\":15443:15467   */\n              tag_160\n              jump\t// in\n            tag_300:\n                /* \"#utility.yul\":15436:15441   */\n              dup2\n                /* \"#utility.yul\":15433:15468   */\n              eq\n                /* \"#utility.yul\":15423:15425   */\n              tag_301\n              jumpi\n                /* \"#utility.yul\":15482:15483   */\n              0x00\n                /* \"#utility.yul\":15479:15480   */\n              dup1\n                /* \"#utility.yul\":15472:15484   */\n              revert\n                /* \"#utility.yul\":15423:15425   */\n            tag_301:\n                /* \"#utility.yul\":15413:15492   */\n              pop\n              jump\t// out\n                /* \"#utility.yul\":15498:15636   */\n            tag_132:\n                /* \"#utility.yul\":15579:15611   */\n              tag_303\n                /* \"#utility.yul\":15605:15610   */\n              dup2\n                /* \"#utility.yul\":15579:15611   */\n              tag_156\n              jump\t// in\n            tag_303:\n                /* \"#utility.yul\":15572:15577   */\n              dup2\n                /* \"#utility.yul\":15569:15612   */\n              eq\n                /* \"#utility.yul\":15559:15561   */\n              tag_304\n              jumpi\n                /* \"#utility.yul\":15626:15627   */\n              0x00\n                /* \"#utility.yul\":15623:15624   */\n              dup1\n                /* \"#utility.yul\":15616:15628   */\n              revert\n                /* \"#utility.yul\":15559:15561   */\n            tag_304:\n                /* \"#utility.yul\":15549:15636   */\n              pop\n              jump\t// out\n                /* \"#utility.yul\":15642:15764   */\n            tag_140:\n                /* \"#utility.yul\":15715:15739   */\n              tag_306\n                /* \"#utility.yul\":15733:15738   */\n              dup2\n                /* \"#utility.yul\":15715:15739   */\n              tag_213\n              jump\t// in\n            tag_306:\n                /* \"#utility.yul\":15708:15713   */\n              dup2\n                /* \"#utility.yul\":15705:15740   */\n              eq\n                /* \"#utility.yul\":15695:15697   */\n              tag_307\n              jumpi\n                /* \"#utility.yul\":15754:15755   */\n              0x00\n                /* \"#utility.yul\":15751:15752   */\n              dup1\n                /* \"#utility.yul\":15744:15756   */\n              revert\n                /* \"#utility.yul\":15695:15697   */\n            tag_307:\n                /* \"#utility.yul\":15685:15764   */\n              pop\n              jump\t// out\n\n            auxdata: 0xa26469706673582212206314926664975e8ff151bfdc1630dad5d41cb68119024d466926cd2d34c75c6064736f6c63430008030033\n        }\n    }\n\n    auxdata: 0xa264697066735822122065aaf011326f5212ff84358fdbd18b31779f44e5f3e0f61f6e0b9903e4faa3d764736f6c63430008030033\n}\n","bytecode":{"linkReferences":{},"object":"608060405234801561001057600080fd5b50611958806100206000396000f3fe608060405234801561001057600080fd5b50600436106100415760003560e01c8063141961bc14610046578063a3303a7514610076578063a6b0363314610092575b600080fd5b610060600480360381019061005b919061023a565b6100b0565b60405161006d9190610337565b60405180910390f35b610090600480360381019061008b919061023a565b6100ef565b005b61009a61018a565b6040516100a79190610315565b60405180910390f35b600081815481106100c057600080fd5b906000526020600020016000915054906101000a900473ffffffffffffffffffffffffffffffffffffffff1681565b600081336040516100ff90610218565b61010a929190610352565b604051809103906000f080158015610126573d6000803e3d6000fd5b509080600181540180825580915050600190039060005260206000200160009091909190916101000a81548173ffffffffffffffffffffffffffffffffffffffff021916908373ffffffffffffffffffffffffffffffffffffffff16021790555050565b6060600080548060200260200160405190810160405280929190818152602001828054801561020e57602002820191906000526020600020905b8160009054906101000a900473ffffffffffffffffffffffffffffffffffffffff1673ffffffffffffffffffffffffffffffffffffffff16815260200190600101908083116101c4575b5050505050905090565b6114f78061042c83390190565b60008135905061023481610414565b92915050565b60006020828403121561024c57600080fd5b600061025a84828501610225565b91505092915050565b600061026f83836102e8565b60208301905092915050565b610284816103b4565b82525050565b60006102958261038b565b61029f81856103a3565b93506102aa8361037b565b8060005b838110156102db5781516102c28882610263565b97506102cd83610396565b9250506001810190506102ae565b5085935050505092915050565b6102f1816103f0565b82525050565b610300816103f0565b82525050565b61030f816103e6565b82525050565b6000602082019050818103600083015261032f818461028a565b905092915050565b600060208201905061034c60008301846102f7565b92915050565b60006040820190506103676000830185610306565b610374602083018461027b565b9392505050565b6000819050602082019050919050565b600081519050919050565b6000602082019050919050565b600082825260208201905092915050565b60006103bf826103c6565b9050919050565b600073ffffffffffffffffffffffffffffffffffffffff82169050919050565b6000819050919050565b60006103fb82610402565b9050919050565b600061040d826103c6565b9050919050565b61041d816103e6565b811461042857600080fd5b5056fe60806040523480156200001157600080fd5b50604051620014f7380380620014f78339818101604052810190620000379190620000b4565b81600181905550806000806101000a81548173ffffffffffffffffffffffffffffffffffffffff021916908373ffffffffffffffffffffffffffffffffffffffff160217905550505062000167565b600081519050620000978162000133565b92915050565b600081519050620000ae816200014d565b92915050565b60008060408385031215620000c857600080fd5b6000620000d8858286016200009d565b9250506020620000eb8582860162000086565b9150509250929050565b6000620001028262000109565b9050919050565b600073ffffffffffffffffffffffffffffffffffffffff82169050919050565b6000819050919050565b6200013e81620000f5565b81146200014a57600080fd5b50565b620001588162000129565b81146200016457600080fd5b50565b61138080620001776000396000f3fe6080604052600436106100865760003560e01c80638a9cfd55116100595780638a9cfd55146101505780638da5cb5b14610179578063937e09b1146101a4578063d7bb99ba146101cf578063d7d1bbdb146101d957610086565b8063034410061461008b5780631f6d4942146100a75780637569b3d7146100e457806381d12c581461010f575b600080fd5b6100a560048036038101906100a09190610b9e565b610202565b005b3480156100b357600080fd5b506100ce60048036038101906100c99190610b0e565b610412565b6040516100db9190610d4c565b60405180910390f35b3480156100f057600080fd5b506100f9610432565b6040516101069190610ea1565b60405180910390f35b34801561011b57600080fd5b5061013660048036038101906101319190610b9e565b610438565b604051610147959493929190610d67565b60405180910390f35b34801561015c57600080fd5b5061017760048036038101906101729190610b37565b610533565b005b34801561018557600080fd5b5061018e610677565b60405161019b9190610d31565b60405180910390f35b3480156101b057600080fd5b506101b961069b565b6040516101c69190610ea1565b60405180910390f35b6101d76106a1565b005b3480156101e557600080fd5b5061020060048036038101906101fb9190610b9e565b6107e5565b005b60008054906101000a900473ffffffffffffffffffffffffffffffffffffffff1673ffffffffffffffffffffffffffffffffffffffff163373ffffffffffffffffffffffffffffffffffffffff1614610290576040517f08c379a000000000000000000000000000000000000000000000000000000000815260040161028790610dc1565b60405180910390fd5b6000600482815481106102cc577f4e487b7100000000000000000000000000000000000000000000000000000000600052603260045260246000fd5b9060005260206000209060060201905060026003546102eb9190610f2e565b816004015411610330576040517f08c379a000000000000000000000000000000000000000000000000000000000815260040161032790610e81565b60405180910390fd5b8060050160009054906101000a900460ff1615610382576040517f08c379a000000000000000000000000000000000000000000000000000000000815260040161037990610e41565b60405180910390fd5b8060020160009054906101000a900473ffffffffffffffffffffffffffffffffffffffff1673ffffffffffffffffffffffffffffffffffffffff166108fc82600101549081150290604051600060405180830381858888f193505050501580156103f0573d6000803e3d6000fd5b5060018160050160006101000a81548160ff0219169083151502179055505050565b60026020528060005260406000206000915054906101000a900460ff1681565b60035481565b6004818154811061044857600080fd5b906000526020600020906006020160009150905080600001805461046b90610ffb565b80601f016020809104026020016040519081016040528092919081815260200182805461049790610ffb565b80156104e45780601f106104b9576101008083540402835291602001916104e4565b820191906000526020600020905b8154815290600101906020018083116104c757829003601f168201915b5050505050908060010154908060020160009054906101000a900473ffffffffffffffffffffffffffffffffffffffff16908060040154908060050160009054906101000a900460ff16905085565b60008054906101000a900473ffffffffffffffffffffffffffffffffffffffff1673ffffffffffffffffffffffffffffffffffffffff163373ffffffffffffffffffffffffffffffffffffffff16146105c1576040517f08c379a00000000000000000000000000000000000000000000000000000000081526004016105b890610dc1565b60405180910390fd5b600060046001816001815401808255809150500390600052602060002090600602019050838160000190805190602001906105fd9291906109c4565b50828160010181905550818160020160006101000a81548173ffffffffffffffffffffffffffffffffffffffff021916908373ffffffffffffffffffffffffffffffffffffffff1602179055506000816004018190555060008160050160006101000a81548160ff02191690831515021790555050505050565b60008054906101000a900473ffffffffffffffffffffffffffffffffffffffff1681565b60015481565b6001543410156106e6576040517f08c379a00000000000000000000000000000000000000000000000000000000081526004016106dd90610e21565b60405180910390fd5b600260003373ffffffffffffffffffffffffffffffffffffffff1673ffffffffffffffffffffffffffffffffffffffff16815260200190815260200160002060009054906101000a900460ff1615610773576040517f08c379a000000000000000000000000000000000000000000000000000000000815260040161076a90610e01565b60405180910390fd5b6001600260003373ffffffffffffffffffffffffffffffffffffffff1673ffffffffffffffffffffffffffffffffffffffff16815260200190815260200160002060006101000a81548160ff021916908315150217905550600360008154809291906107de9061105e565b9190505550565b600060048281548110610821577f4e487b7100000000000000000000000000000000000000000000000000000000600052603260045260246000fd5b90600052602060002090600602019050600260003373ffffffffffffffffffffffffffffffffffffffff1673ffffffffffffffffffffffffffffffffffffffff16815260200190815260200160002060009054906101000a900460ff166108bd576040517f08c379a00000000000000000000000000000000000000000000000000000000081526004016108b490610de1565b60405180910390fd5b8060030160003373ffffffffffffffffffffffffffffffffffffffff1673ffffffffffffffffffffffffffffffffffffffff16815260200190815260200160002060009054906101000a900460ff161561094c576040517f08c379a000000000000000000000000000000000000000000000000000000000815260040161094390610e61565b60405180910390fd5b60018160030160003373ffffffffffffffffffffffffffffffffffffffff1673ffffffffffffffffffffffffffffffffffffffff16815260200190815260200160002060006101000a81548160ff0219169083151502179055508060040160008154809291906109bb9061105e565b91905055505050565b8280546109d090610ffb565b90600052602060002090601f0160209004810192826109f25760008555610a39565b82601f10610a0b57805160ff1916838001178555610a39565b82800160010185558215610a39579182015b82811115610a38578251825591602001919060010190610a1d565b5b509050610a469190610a4a565b5090565b5b80821115610a63576000816000905550600101610a4b565b5090565b6000610a7a610a7584610ee1565b610ebc565b905082815260208101848484011115610a9257600080fd5b610a9d848285610fb9565b509392505050565b600081359050610ab481611305565b92915050565b600081359050610ac98161131c565b92915050565b600082601f830112610ae057600080fd5b8135610af0848260208601610a67565b91505092915050565b600081359050610b0881611333565b92915050565b600060208284031215610b2057600080fd5b6000610b2e84828501610aa5565b91505092915050565b600080600060608486031215610b4c57600080fd5b600084013567ffffffffffffffff811115610b6657600080fd5b610b7286828701610acf565b9350506020610b8386828701610af9565b9250506040610b9486828701610aba565b9150509250925092565b600060208284031215610bb057600080fd5b6000610bbe84828501610af9565b91505092915050565b610bd081610f71565b82525050565b610bdf81610f5f565b82525050565b610bee81610f83565b82525050565b6000610bff82610f12565b610c098185610f1d565b9350610c19818560208601610fc8565b610c2281611163565b840191505092915050565b6000610c3a602183610f1d565b9150610c4582611174565b604082019050919050565b6000610c5d603a83610f1d565b9150610c68826111c3565b604082019050919050565b6000610c80602083610f1d565b9150610c8b82611212565b602082019050919050565b6000610ca3601b83610f1d565b9150610cae8261123b565b602082019050919050565b6000610cc6601983610f1d565b9150610cd182611264565b602082019050919050565b6000610ce9602183610f1d565b9150610cf48261128d565b604082019050919050565b6000610d0c601483610f1d565b9150610d17826112dc565b602082019050919050565b610d2b81610faf565b82525050565b6000602082019050610d466000830184610bd6565b92915050565b6000602082019050610d616000830184610be5565b92915050565b600060a0820190508181036000830152610d818188610bf4565b9050610d906020830187610d22565b610d9d6040830186610bc7565b610daa6060830185610d22565b610db76080830184610be5565b9695505050505050565b60006020820190508181036000830152610dda81610c2d565b9050919050565b60006020820190508181036000830152610dfa81610c50565b9050919050565b60006020820190508181036000830152610e1a81610c73565b9050919050565b60006020820190508181036000830152610e3a81610c96565b9050919050565b60006020820190508181036000830152610e5a81610cb9565b9050919050565b60006020820190508181036000830152610e7a81610cdc565b9050919050565b60006020820190508181036000830152610e9a81610cff565b9050919050565b6000602082019050610eb66000830184610d22565b92915050565b6000610ec6610ed7565b9050610ed2828261102d565b919050565b6000604051905090565b600067ffffffffffffffff821115610efc57610efb611134565b5b610f0582611163565b9050602081019050919050565b600081519050919050565b600082825260208201905092915050565b6000610f3982610faf565b9150610f4483610faf565b925082610f5457610f536110d6565b5b828204905092915050565b6000610f6a82610f8f565b9050919050565b6000610f7c82610f8f565b9050919050565b60008115159050919050565b600073ffffffffffffffffffffffffffffffffffffffff82169050919050565b6000819050919050565b82818337600083830152505050565b60005b83811015610fe6578082015181840152602081019050610fcb565b83811115610ff5576000848401525b50505050565b6000600282049050600182168061101357607f821691505b6020821081141561102757611026611105565b5b50919050565b61103682611163565b810181811067ffffffffffffffff8211171561105557611054611134565b5b80604052505050565b600061106982610faf565b91507fffffffffffffffffffffffffffffffffffffffffffffffffffffffffffffffff82141561109c5761109b6110a7565b5b600182019050919050565b7f4e487b7100000000000000000000000000000000000000000000000000000000600052601160045260246000fd5b7f4e487b7100000000000000000000000000000000000000000000000000000000600052601260045260246000fd5b7f4e487b7100000000000000000000000000000000000000000000000000000000600052602260045260246000fd5b7f4e487b7100000000000000000000000000000000000000000000000000000000600052604160045260246000fd5b6000601f19601f8301169050919050565b7f4f7065726174696f6e20726573657276656420666f72206f776e6572206f6e6c60008201527f7900000000000000000000000000000000000000000000000000000000000000602082015250565b7f596f75206e65656420746f20636f6e7472696275746520746f2074686520636160008201527f6d706169676e206265666f726520796f752063616e20766f7465000000000000602082015250565b7f596f7520616c72656164792066756e64656420746869732063616d706169676e600082015250565b7f436f6e747269627574696f6e20616d6f756e7420746f6f206c6f770000000000600082015250565b7f5265717565737420616c726561647920636f6d706c6574656400000000000000600082015250565b7f596f7520616c726561647920617070726f76656420746869732072657175657360008201527f7400000000000000000000000000000000000000000000000000000000000000602082015250565b7f4e6f7420656e6f75676820617070726f76616c73000000000000000000000000600082015250565b61130e81610f5f565b811461131957600080fd5b50565b61132581610f71565b811461133057600080fd5b50565b61133c81610faf565b811461134757600080fd5b5056fea26469706673582212206314926664975e8ff151bfdc1630dad5d41cb68119024d466926cd2d34c75c6064736f6c63430008030033a264697066735822122065aaf011326f5212ff84358fdbd18b31779f44e5f3e0f61f6e0b9903e4faa3d764736f6c63430008030033","opcodes":"PUSH1 0x80 PUSH1 0x40 MSTORE CALLVALUE DUP1 ISZERO PUSH2 0x10 JUMPI PUSH1 0x0 DUP1 REVERT JUMPDEST POP PUSH2 0x1958 DUP1 PUSH2 0x20 PUSH1 0x0 CODECOPY PUSH1 0x0 RETURN INVALID PUSH1 0x80 PUSH1 0x40 MSTORE CALLVALUE DUP1 ISZERO PUSH2 0x10 JUMPI PUSH1 0x0 DUP1 REVERT JUMPDEST POP PUSH1 0x4 CALLDATASIZE LT PUSH2 0x41 JUMPI PUSH1 0x0 CALLDATALOAD PUSH1 0xE0 SHR DUP1 PUSH4 0x141961BC EQ PUSH2 0x46 JUMPI DUP1 PUSH4 0xA3303A75 EQ PUSH2 0x76 JUMPI DUP1 PUSH4 0xA6B03633 EQ PUSH2 0x92 JUMPI JUMPDEST PUSH1 0x0 DUP1 REVERT JUMPDEST PUSH2 0x60 PUSH1 0x4 DUP1 CALLDATASIZE SUB DUP2 ADD SWAP1 PUSH2 0x5B SWAP2 SWAP1 PUSH2 0x23A JUMP JUMPDEST PUSH2 0xB0 JUMP JUMPDEST PUSH1 0x40 MLOAD PUSH2 0x6D SWAP2 SWAP1 PUSH2 0x337 JUMP JUMPDEST PUSH1 0x40 MLOAD DUP1 SWAP2 SUB SWAP1 RETURN JUMPDEST PUSH2 0x90 PUSH1 0x4 DUP1 CALLDATASIZE SUB DUP2 ADD SWAP1 PUSH2 0x8B SWAP2 SWAP1 PUSH2 0x23A JUMP JUMPDEST PUSH2 0xEF JUMP JUMPDEST STOP JUMPDEST PUSH2 0x9A PUSH2 0x18A JUMP JUMPDEST PUSH1 0x40 MLOAD PUSH2 0xA7 SWAP2 SWAP1 PUSH2 0x315 JUMP JUMPDEST PUSH1 0x40 MLOAD DUP1 SWAP2 SUB SWAP1 RETURN JUMPDEST PUSH1 0x0 DUP2 DUP2 SLOAD DUP2 LT PUSH2 0xC0 JUMPI PUSH1 0x0 DUP1 REVERT JUMPDEST SWAP1 PUSH1 0x0 MSTORE PUSH1 0x20 PUSH1 0x0 KECCAK256 ADD PUSH1 0x0 SWAP2 POP SLOAD SWAP1 PUSH2 0x100 EXP SWAP1 DIV PUSH20 0xFFFFFFFFFFFFFFFFFFFFFFFFFFFFFFFFFFFFFFFF AND DUP2 JUMP JUMPDEST PUSH1 0x0 DUP2 CALLER PUSH1 0x40 MLOAD PUSH2 0xFF SWAP1 PUSH2 0x218 JUMP JUMPDEST PUSH2 0x10A SWAP3 SWAP2 SWAP1 PUSH2 0x352 JUMP JUMPDEST PUSH1 0x40 MLOAD DUP1 SWAP2 SUB SWAP1 PUSH1 0x0 CREATE DUP1 ISZERO DUP1 ISZERO PUSH2 0x126 JUMPI RETURNDATASIZE PUSH1 0x0 DUP1 RETURNDATACOPY RETURNDATASIZE PUSH1 0x0 REVERT JUMPDEST POP SWAP1 DUP1 PUSH1 0x1 DUP2 SLOAD ADD DUP1 DUP3 SSTORE DUP1 SWAP2 POP POP PUSH1 0x1 SWAP1 SUB SWAP1 PUSH1 0x0 MSTORE PUSH1 0x20 PUSH1 0x0 KECCAK256 ADD PUSH1 0x0 SWAP1 SWAP2 SWAP1 SWAP2 SWAP1 SWAP2 PUSH2 0x100 EXP DUP2 SLOAD DUP2 PUSH20 0xFFFFFFFFFFFFFFFFFFFFFFFFFFFFFFFFFFFFFFFF MUL NOT AND SWAP1 DUP4 PUSH20 0xFFFFFFFFFFFFFFFFFFFFFFFFFFFFFFFFFFFFFFFF AND MUL OR SWAP1 SSTORE POP POP JUMP JUMPDEST PUSH1 0x60 PUSH1 0x0 DUP1 SLOAD DUP1 PUSH1 0x20 MUL PUSH1 0x20 ADD PUSH1 0x40 MLOAD SWAP1 DUP2 ADD PUSH1 0x40 MSTORE DUP1 SWAP3 SWAP2 SWAP1 DUP2 DUP2 MSTORE PUSH1 0x20 ADD DUP3 DUP1 SLOAD DUP1 ISZERO PUSH2 0x20E JUMPI PUSH1 0x20 MUL DUP3 ADD SWAP2 SWAP1 PUSH1 0x0 MSTORE PUSH1 0x20 PUSH1 0x0 KECCAK256 SWAP1 JUMPDEST DUP2 PUSH1 0x0 SWAP1 SLOAD SWAP1 PUSH2 0x100 EXP SWAP1 DIV PUSH20 0xFFFFFFFFFFFFFFFFFFFFFFFFFFFFFFFFFFFFFFFF AND PUSH20 0xFFFFFFFFFFFFFFFFFFFFFFFFFFFFFFFFFFFFFFFF AND DUP2 MSTORE PUSH1 0x20 ADD SWAP1 PUSH1 0x1 ADD SWAP1 DUP1 DUP4 GT PUSH2 0x1C4 JUMPI JUMPDEST POP POP POP POP POP SWAP1 POP SWAP1 JUMP JUMPDEST PUSH2 0x14F7 DUP1 PUSH2 0x42C DUP4 CODECOPY ADD SWAP1 JUMP JUMPDEST PUSH1 0x0 DUP2 CALLDATALOAD SWAP1 POP PUSH2 0x234 DUP2 PUSH2 0x414 JUMP JUMPDEST SWAP3 SWAP2 POP POP JUMP JUMPDEST PUSH1 0x0 PUSH1 0x20 DUP3 DUP5 SUB SLT ISZERO PUSH2 0x24C JUMPI PUSH1 0x0 DUP1 REVERT JUMPDEST PUSH1 0x0 PUSH2 0x25A DUP5 DUP3 DUP6 ADD PUSH2 0x225 JUMP JUMPDEST SWAP2 POP POP SWAP3 SWAP2 POP POP JUMP JUMPDEST PUSH1 0x0 PUSH2 0x26F DUP4 DUP4 PUSH2 0x2E8 JUMP JUMPDEST PUSH1 0x20 DUP4 ADD SWAP1 POP SWAP3 SWAP2 POP POP JUMP JUMPDEST PUSH2 0x284 DUP2 PUSH2 0x3B4 JUMP JUMPDEST DUP3 MSTORE POP POP JUMP JUMPDEST PUSH1 0x0 PUSH2 0x295 DUP3 PUSH2 0x38B JUMP JUMPDEST PUSH2 0x29F DUP2 DUP6 PUSH2 0x3A3 JUMP JUMPDEST SWAP4 POP PUSH2 0x2AA DUP4 PUSH2 0x37B JUMP JUMPDEST DUP1 PUSH1 0x0 JUMPDEST DUP4 DUP2 LT ISZERO PUSH2 0x2DB JUMPI DUP2 MLOAD PUSH2 0x2C2 DUP9 DUP3 PUSH2 0x263 JUMP JUMPDEST SWAP8 POP PUSH2 0x2CD DUP4 PUSH2 0x396 JUMP JUMPDEST SWAP3 POP POP PUSH1 0x1 DUP2 ADD SWAP1 POP PUSH2 0x2AE JUMP JUMPDEST POP DUP6 SWAP4 POP POP POP POP SWAP3 SWAP2 POP POP JUMP JUMPDEST PUSH2 0x2F1 DUP2 PUSH2 0x3F0 JUMP JUMPDEST DUP3 MSTORE POP POP JUMP JUMPDEST PUSH2 0x300 DUP2 PUSH2 0x3F0 JUMP JUMPDEST DUP3 MSTORE POP POP JUMP JUMPDEST PUSH2 0x30F DUP2 PUSH2 0x3E6 JUMP JUMPDEST DUP3 MSTORE POP POP JUMP JUMPDEST PUSH1 0x0 PUSH1 0x20 DUP3 ADD SWAP1 POP DUP2 DUP2 SUB PUSH1 0x0 DUP4 ADD MSTORE PUSH2 0x32F DUP2 DUP5 PUSH2 0x28A JUMP JUMPDEST SWAP1 POP SWAP3 SWAP2 POP POP JUMP JUMPDEST PUSH1 0x0 PUSH1 0x20 DUP3 ADD SWAP1 POP PUSH2 0x34C PUSH1 0x0 DUP4 ADD DUP5 PUSH2 0x2F7 JUMP JUMPDEST SWAP3 SWAP2 POP POP JUMP JUMPDEST PUSH1 0x0 PUSH1 0x40 DUP3 ADD SWAP1 POP PUSH2 0x367 PUSH1 0x0 DUP4 ADD DUP6 PUSH2 0x306 JUMP JUMPDEST PUSH2 0x374 PUSH1 0x20 DUP4 ADD DUP5 PUSH2 0x27B JUMP JUMPDEST SWAP4 SWAP3 POP POP POP JUMP JUMPDEST PUSH1 0x0 DUP2 SWAP1 POP PUSH1 0x20 DUP3 ADD SWAP1 POP SWAP2 SWAP1 POP JUMP JUMPDEST PUSH1 0x0 DUP2 MLOAD SWAP1 POP SWAP2 SWAP1 POP JUMP JUMPDEST PUSH1 0x0 PUSH1 0x20 DUP3 ADD SWAP1 POP SWAP2 SWAP1 POP JUMP JUMPDEST PUSH1 0x0 DUP3 DUP3 MSTORE PUSH1 0x20 DUP3 ADD SWAP1 POP SWAP3 SWAP2 POP POP JUMP JUMPDEST PUSH1 0x0 PUSH2 0x3BF DUP3 PUSH2 0x3C6 JUMP JUMPDEST SWAP1 POP SWAP2 SWAP1 POP JUMP JUMPDEST PUSH1 0x0 PUSH20 0xFFFFFFFFFFFFFFFFFFFFFFFFFFFFFFFFFFFFFFFF DUP3 AND SWAP1 POP SWAP2 SWAP1 POP JUMP JUMPDEST PUSH1 0x0 DUP2 SWAP1 POP SWAP2 SWAP1 POP JUMP JUMPDEST PUSH1 0x0 PUSH2 0x3FB DUP3 PUSH2 0x402 JUMP JUMPDEST SWAP1 POP SWAP2 SWAP1 POP JUMP JUMPDEST PUSH1 0x0 PUSH2 0x40D DUP3 PUSH2 0x3C6 JUMP JUMPDEST SWAP1 POP SWAP2 SWAP1 POP JUMP JUMPDEST PUSH2 0x41D DUP2 PUSH2 0x3E6 JUMP JUMPDEST DUP2 EQ PUSH2 0x428 JUMPI PUSH1 0x0 DUP1 REVERT JUMPDEST POP JUMP INVALID PUSH1 0x80 PUSH1 0x40 MSTORE CALLVALUE DUP1 ISZERO PUSH3 0x11 JUMPI PUSH1 0x0 DUP1 REVERT JUMPDEST POP PUSH1 0x40 MLOAD PUSH3 0x14F7 CODESIZE SUB DUP1 PUSH3 0x14F7 DUP4 CODECOPY DUP2 DUP2 ADD PUSH1 0x40 MSTORE DUP2 ADD SWAP1 PUSH3 0x37 SWAP2 SWAP1 PUSH3 0xB4 JUMP JUMPDEST DUP2 PUSH1 0x1 DUP2 SWAP1 SSTORE POP DUP1 PUSH1 0x0 DUP1 PUSH2 0x100 EXP DUP2 SLOAD DUP2 PUSH20 0xFFFFFFFFFFFFFFFFFFFFFFFFFFFFFFFFFFFFFFFF MUL NOT AND SWAP1 DUP4 PUSH20 0xFFFFFFFFFFFFFFFFFFFFFFFFFFFFFFFFFFFFFFFF AND MUL OR SWAP1 SSTORE POP POP POP PUSH3 0x167 JUMP JUMPDEST PUSH1 0x0 DUP2 MLOAD SWAP1 POP PUSH3 0x97 DUP2 PUSH3 0x133 JUMP JUMPDEST SWAP3 SWAP2 POP POP JUMP JUMPDEST PUSH1 0x0 DUP2 MLOAD SWAP1 POP PUSH3 0xAE DUP2 PUSH3 0x14D JUMP JUMPDEST SWAP3 SWAP2 POP POP JUMP JUMPDEST PUSH1 0x0 DUP1 PUSH1 0x40 DUP4 DUP6 SUB SLT ISZERO PUSH3 0xC8 JUMPI PUSH1 0x0 DUP1 REVERT JUMPDEST PUSH1 0x0 PUSH3 0xD8 DUP6 DUP3 DUP7 ADD PUSH3 0x9D JUMP JUMPDEST SWAP3 POP POP PUSH1 0x20 PUSH3 0xEB DUP6 DUP3 DUP7 ADD PUSH3 0x86 JUMP JUMPDEST SWAP2 POP POP SWAP3 POP SWAP3 SWAP1 POP JUMP JUMPDEST PUSH1 0x0 PUSH3 0x102 DUP3 PUSH3 0x109 JUMP JUMPDEST SWAP1 POP SWAP2 SWAP1 POP JUMP JUMPDEST PUSH1 0x0 PUSH20 0xFFFFFFFFFFFFFFFFFFFFFFFFFFFFFFFFFFFFFFFF DUP3 AND SWAP1 POP SWAP2 SWAP1 POP JUMP JUMPDEST PUSH1 0x0 DUP2 SWAP1 POP SWAP2 SWAP1 POP JUMP JUMPDEST PUSH3 0x13E DUP2 PUSH3 0xF5 JUMP JUMPDEST DUP2 EQ PUSH3 0x14A JUMPI PUSH1 0x0 DUP1 REVERT JUMPDEST POP JUMP JUMPDEST PUSH3 0x158 DUP2 PUSH3 0x129 JUMP JUMPDEST DUP2 EQ PUSH3 0x164 JUMPI PUSH1 0x0 DUP1 REVERT JUMPDEST POP JUMP JUMPDEST PUSH2 0x1380 DUP1 PUSH3 0x177 PUSH1 0x0 CODECOPY PUSH1 0x0 RETURN INVALID PUSH1 0x80 PUSH1 0x40 MSTORE PUSH1 0x4 CALLDATASIZE LT PUSH2 0x86 JUMPI PUSH1 0x0 CALLDATALOAD PUSH1 0xE0 SHR DUP1 PUSH4 0x8A9CFD55 GT PUSH2 0x59 JUMPI DUP1 PUSH4 0x8A9CFD55 EQ PUSH2 0x150 JUMPI DUP1 PUSH4 0x8DA5CB5B EQ PUSH2 0x179 JUMPI DUP1 PUSH4 0x937E09B1 EQ PUSH2 0x1A4 JUMPI DUP1 PUSH4 0xD7BB99BA EQ PUSH2 0x1CF JUMPI DUP1 PUSH4 0xD7D1BBDB EQ PUSH2 0x1D9 JUMPI PUSH2 0x86 JUMP JUMPDEST DUP1 PUSH4 0x3441006 EQ PUSH2 0x8B JUMPI DUP1 PUSH4 0x1F6D4942 EQ PUSH2 0xA7 JUMPI DUP1 PUSH4 0x7569B3D7 EQ PUSH2 0xE4 JUMPI DUP1 PUSH4 0x81D12C58 EQ PUSH2 0x10F JUMPI JUMPDEST PUSH1 0x0 DUP1 REVERT JUMPDEST PUSH2 0xA5 PUSH1 0x4 DUP1 CALLDATASIZE SUB DUP2 ADD SWAP1 PUSH2 0xA0 SWAP2 SWAP1 PUSH2 0xB9E JUMP JUMPDEST PUSH2 0x202 JUMP JUMPDEST STOP JUMPDEST CALLVALUE DUP1 ISZERO PUSH2 0xB3 JUMPI PUSH1 0x0 DUP1 REVERT JUMPDEST POP PUSH2 0xCE PUSH1 0x4 DUP1 CALLDATASIZE SUB DUP2 ADD SWAP1 PUSH2 0xC9 SWAP2 SWAP1 PUSH2 0xB0E JUMP JUMPDEST PUSH2 0x412 JUMP JUMPDEST PUSH1 0x40 MLOAD PUSH2 0xDB SWAP2 SWAP1 PUSH2 0xD4C JUMP JUMPDEST PUSH1 0x40 MLOAD DUP1 SWAP2 SUB SWAP1 RETURN JUMPDEST CALLVALUE DUP1 ISZERO PUSH2 0xF0 JUMPI PUSH1 0x0 DUP1 REVERT JUMPDEST POP PUSH2 0xF9 PUSH2 0x432 JUMP JUMPDEST PUSH1 0x40 MLOAD PUSH2 0x106 SWAP2 SWAP1 PUSH2 0xEA1 JUMP JUMPDEST PUSH1 0x40 MLOAD DUP1 SWAP2 SUB SWAP1 RETURN JUMPDEST CALLVALUE DUP1 ISZERO PUSH2 0x11B JUMPI PUSH1 0x0 DUP1 REVERT JUMPDEST POP PUSH2 0x136 PUSH1 0x4 DUP1 CALLDATASIZE SUB DUP2 ADD SWAP1 PUSH2 0x131 SWAP2 SWAP1 PUSH2 0xB9E JUMP JUMPDEST PUSH2 0x438 JUMP JUMPDEST PUSH1 0x40 MLOAD PUSH2 0x147 SWAP6 SWAP5 SWAP4 SWAP3 SWAP2 SWAP1 PUSH2 0xD67 JUMP JUMPDEST PUSH1 0x40 MLOAD DUP1 SWAP2 SUB SWAP1 RETURN JUMPDEST CALLVALUE DUP1 ISZERO PUSH2 0x15C JUMPI PUSH1 0x0 DUP1 REVERT JUMPDEST POP PUSH2 0x177 PUSH1 0x4 DUP1 CALLDATASIZE SUB DUP2 ADD SWAP1 PUSH2 0x172 SWAP2 SWAP1 PUSH2 0xB37 JUMP JUMPDEST PUSH2 0x533 JUMP JUMPDEST STOP JUMPDEST CALLVALUE DUP1 ISZERO PUSH2 0x185 JUMPI PUSH1 0x0 DUP1 REVERT JUMPDEST POP PUSH2 0x18E PUSH2 0x677 JUMP JUMPDEST PUSH1 0x40 MLOAD PUSH2 0x19B SWAP2 SWAP1 PUSH2 0xD31 JUMP JUMPDEST PUSH1 0x40 MLOAD DUP1 SWAP2 SUB SWAP1 RETURN JUMPDEST CALLVALUE DUP1 ISZERO PUSH2 0x1B0 JUMPI PUSH1 0x0 DUP1 REVERT JUMPDEST POP PUSH2 0x1B9 PUSH2 0x69B JUMP JUMPDEST PUSH1 0x40 MLOAD PUSH2 0x1C6 SWAP2 SWAP1 PUSH2 0xEA1 JUMP JUMPDEST PUSH1 0x40 MLOAD DUP1 SWAP2 SUB SWAP1 RETURN JUMPDEST PUSH2 0x1D7 PUSH2 0x6A1 JUMP JUMPDEST STOP JUMPDEST CALLVALUE DUP1 ISZERO PUSH2 0x1E5 JUMPI PUSH1 0x0 DUP1 REVERT JUMPDEST POP PUSH2 0x200 PUSH1 0x4 DUP1 CALLDATASIZE SUB DUP2 ADD SWAP1 PUSH2 0x1FB SWAP2 SWAP1 PUSH2 0xB9E JUMP JUMPDEST PUSH2 0x7E5 JUMP JUMPDEST STOP JUMPDEST PUSH1 0x0 DUP1 SLOAD SWAP1 PUSH2 0x100 EXP SWAP1 DIV PUSH20 0xFFFFFFFFFFFFFFFFFFFFFFFFFFFFFFFFFFFFFFFF AND PUSH20 0xFFFFFFFFFFFFFFFFFFFFFFFFFFFFFFFFFFFFFFFF AND CALLER PUSH20 0xFFFFFFFFFFFFFFFFFFFFFFFFFFFFFFFFFFFFFFFF AND EQ PUSH2 0x290 JUMPI PUSH1 0x40 MLOAD PUSH32 0x8C379A000000000000000000000000000000000000000000000000000000000 DUP2 MSTORE PUSH1 0x4 ADD PUSH2 0x287 SWAP1 PUSH2 0xDC1 JUMP JUMPDEST PUSH1 0x40 MLOAD DUP1 SWAP2 SUB SWAP1 REVERT JUMPDEST PUSH1 0x0 PUSH1 0x4 DUP3 DUP2 SLOAD DUP2 LT PUSH2 0x2CC JUMPI PUSH32 0x4E487B7100000000000000000000000000000000000000000000000000000000 PUSH1 0x0 MSTORE PUSH1 0x32 PUSH1 0x4 MSTORE PUSH1 0x24 PUSH1 0x0 REVERT JUMPDEST SWAP1 PUSH1 0x0 MSTORE PUSH1 0x20 PUSH1 0x0 KECCAK256 SWAP1 PUSH1 0x6 MUL ADD SWAP1 POP PUSH1 0x2 PUSH1 0x3 SLOAD PUSH2 0x2EB SWAP2 SWAP1 PUSH2 0xF2E JUMP JUMPDEST DUP2 PUSH1 0x4 ADD SLOAD GT PUSH2 0x330 JUMPI PUSH1 0x40 MLOAD PUSH32 0x8C379A000000000000000000000000000000000000000000000000000000000 DUP2 MSTORE PUSH1 0x4 ADD PUSH2 0x327 SWAP1 PUSH2 0xE81 JUMP JUMPDEST PUSH1 0x40 MLOAD DUP1 SWAP2 SUB SWAP1 REVERT JUMPDEST DUP1 PUSH1 0x5 ADD PUSH1 0x0 SWAP1 SLOAD SWAP1 PUSH2 0x100 EXP SWAP1 DIV PUSH1 0xFF AND ISZERO PUSH2 0x382 JUMPI PUSH1 0x40 MLOAD PUSH32 0x8C379A000000000000000000000000000000000000000000000000000000000 DUP2 MSTORE PUSH1 0x4 ADD PUSH2 0x379 SWAP1 PUSH2 0xE41 JUMP JUMPDEST PUSH1 0x40 MLOAD DUP1 SWAP2 SUB SWAP1 REVERT JUMPDEST DUP1 PUSH1 0x2 ADD PUSH1 0x0 SWAP1 SLOAD SWAP1 PUSH2 0x100 EXP SWAP1 DIV PUSH20 0xFFFFFFFFFFFFFFFFFFFFFFFFFFFFFFFFFFFFFFFF AND PUSH20 0xFFFFFFFFFFFFFFFFFFFFFFFFFFFFFFFFFFFFFFFF AND PUSH2 0x8FC DUP3 PUSH1 0x1 ADD SLOAD SWAP1 DUP2 ISZERO MUL SWAP1 PUSH1 0x40 MLOAD PUSH1 0x0 PUSH1 0x40 MLOAD DUP1 DUP4 SUB DUP2 DUP6 DUP9 DUP9 CALL SWAP4 POP POP POP POP ISZERO DUP1 ISZERO PUSH2 0x3F0 JUMPI RETURNDATASIZE PUSH1 0x0 DUP1 RETURNDATACOPY RETURNDATASIZE PUSH1 0x0 REVERT JUMPDEST POP PUSH1 0x1 DUP2 PUSH1 0x5 ADD PUSH1 0x0 PUSH2 0x100 EXP DUP2 SLOAD DUP2 PUSH1 0xFF MUL NOT AND SWAP1 DUP4 ISZERO ISZERO MUL OR SWAP1 SSTORE POP POP POP JUMP JUMPDEST PUSH1 0x2 PUSH1 0x20 MSTORE DUP1 PUSH1 0x0 MSTORE PUSH1 0x40 PUSH1 0x0 KECCAK256 PUSH1 0x0 SWAP2 POP SLOAD SWAP1 PUSH2 0x100 EXP SWAP1 DIV PUSH1 0xFF AND DUP2 JUMP JUMPDEST PUSH1 0x3 SLOAD DUP2 JUMP JUMPDEST PUSH1 0x4 DUP2 DUP2 SLOAD DUP2 LT PUSH2 0x448 JUMPI PUSH1 0x0 DUP1 REVERT JUMPDEST SWAP1 PUSH1 0x0 MSTORE PUSH1 0x20 PUSH1 0x0 KECCAK256 SWAP1 PUSH1 0x6 MUL ADD PUSH1 0x0 SWAP2 POP SWAP1 POP DUP1 PUSH1 0x0 ADD DUP1 SLOAD PUSH2 0x46B SWAP1 PUSH2 0xFFB JUMP JUMPDEST DUP1 PUSH1 0x1F ADD PUSH1 0x20 DUP1 SWAP2 DIV MUL PUSH1 0x20 ADD PUSH1 0x40 MLOAD SWAP1 DUP2 ADD PUSH1 0x40 MSTORE DUP1 SWAP3 SWAP2 SWAP1 DUP2 DUP2 MSTORE PUSH1 0x20 ADD DUP3 DUP1 SLOAD PUSH2 0x497 SWAP1 PUSH2 0xFFB JUMP JUMPDEST DUP1 ISZERO PUSH2 0x4E4 JUMPI DUP1 PUSH1 0x1F LT PUSH2 0x4B9 JUMPI PUSH2 0x100 DUP1 DUP4 SLOAD DIV MUL DUP4 MSTORE SWAP2 PUSH1 0x20 ADD SWAP2 PUSH2 0x4E4 JUMP JUMPDEST DUP3 ADD SWAP2 SWAP1 PUSH1 0x0 MSTORE PUSH1 0x20 PUSH1 0x0 KECCAK256 SWAP1 JUMPDEST DUP2 SLOAD DUP2 MSTORE SWAP1 PUSH1 0x1 ADD SWAP1 PUSH1 0x20 ADD DUP1 DUP4 GT PUSH2 0x4C7 JUMPI DUP3 SWAP1 SUB PUSH1 0x1F AND DUP3 ADD SWAP2 JUMPDEST POP POP POP POP POP SWAP1 DUP1 PUSH1 0x1 ADD SLOAD SWAP1 DUP1 PUSH1 0x2 ADD PUSH1 0x0 SWAP1 SLOAD SWAP1 PUSH2 0x100 EXP SWAP1 DIV PUSH20 0xFFFFFFFFFFFFFFFFFFFFFFFFFFFFFFFFFFFFFFFF AND SWAP1 DUP1 PUSH1 0x4 ADD SLOAD SWAP1 DUP1 PUSH1 0x5 ADD PUSH1 0x0 SWAP1 SLOAD SWAP1 PUSH2 0x100 EXP SWAP1 DIV PUSH1 0xFF AND SWAP1 POP DUP6 JUMP JUMPDEST PUSH1 0x0 DUP1 SLOAD SWAP1 PUSH2 0x100 EXP SWAP1 DIV PUSH20 0xFFFFFFFFFFFFFFFFFFFFFFFFFFFFFFFFFFFFFFFF AND PUSH20 0xFFFFFFFFFFFFFFFFFFFFFFFFFFFFFFFFFFFFFFFF AND CALLER PUSH20 0xFFFFFFFFFFFFFFFFFFFFFFFFFFFFFFFFFFFFFFFF AND EQ PUSH2 0x5C1 JUMPI PUSH1 0x40 MLOAD PUSH32 0x8C379A000000000000000000000000000000000000000000000000000000000 DUP2 MSTORE PUSH1 0x4 ADD PUSH2 0x5B8 SWAP1 PUSH2 0xDC1 JUMP JUMPDEST PUSH1 0x40 MLOAD DUP1 SWAP2 SUB SWAP1 REVERT JUMPDEST PUSH1 0x0 PUSH1 0x4 PUSH1 0x1 DUP2 PUSH1 0x1 DUP2 SLOAD ADD DUP1 DUP3 SSTORE DUP1 SWAP2 POP POP SUB SWAP1 PUSH1 0x0 MSTORE PUSH1 0x20 PUSH1 0x0 KECCAK256 SWAP1 PUSH1 0x6 MUL ADD SWAP1 POP DUP4 DUP2 PUSH1 0x0 ADD SWAP1 DUP1 MLOAD SWAP1 PUSH1 0x20 ADD SWAP1 PUSH2 0x5FD SWAP3 SWAP2 SWAP1 PUSH2 0x9C4 JUMP JUMPDEST POP DUP3 DUP2 PUSH1 0x1 ADD DUP2 SWAP1 SSTORE POP DUP2 DUP2 PUSH1 0x2 ADD PUSH1 0x0 PUSH2 0x100 EXP DUP2 SLOAD DUP2 PUSH20 0xFFFFFFFFFFFFFFFFFFFFFFFFFFFFFFFFFFFFFFFF MUL NOT AND SWAP1 DUP4 PUSH20 0xFFFFFFFFFFFFFFFFFFFFFFFFFFFFFFFFFFFFFFFF AND MUL OR SWAP1 SSTORE POP PUSH1 0x0 DUP2 PUSH1 0x4 ADD DUP2 SWAP1 SSTORE POP PUSH1 0x0 DUP2 PUSH1 0x5 ADD PUSH1 0x0 PUSH2 0x100 EXP DUP2 SLOAD DUP2 PUSH1 0xFF MUL NOT AND SWAP1 DUP4 ISZERO ISZERO MUL OR SWAP1 SSTORE POP POP POP POP POP JUMP JUMPDEST PUSH1 0x0 DUP1 SLOAD SWAP1 PUSH2 0x100 EXP SWAP1 DIV PUSH20 0xFFFFFFFFFFFFFFFFFFFFFFFFFFFFFFFFFFFFFFFF AND DUP2 JUMP JUMPDEST PUSH1 0x1 SLOAD DUP2 JUMP JUMPDEST PUSH1 0x1 SLOAD CALLVALUE LT ISZERO PUSH2 0x6E6 JUMPI PUSH1 0x40 MLOAD PUSH32 0x8C379A000000000000000000000000000000000000000000000000000000000 DUP2 MSTORE PUSH1 0x4 ADD PUSH2 0x6DD SWAP1 PUSH2 0xE21 JUMP JUMPDEST PUSH1 0x40 MLOAD DUP1 SWAP2 SUB SWAP1 REVERT JUMPDEST PUSH1 0x2 PUSH1 0x0 CALLER PUSH20 0xFFFFFFFFFFFFFFFFFFFFFFFFFFFFFFFFFFFFFFFF AND PUSH20 0xFFFFFFFFFFFFFFFFFFFFFFFFFFFFFFFFFFFFFFFF AND DUP2 MSTORE PUSH1 0x20 ADD SWAP1 DUP2 MSTORE PUSH1 0x20 ADD PUSH1 0x0 KECCAK256 PUSH1 0x0 SWAP1 SLOAD SWAP1 PUSH2 0x100 EXP SWAP1 DIV PUSH1 0xFF AND ISZERO PUSH2 0x773 JUMPI PUSH1 0x40 MLOAD PUSH32 0x8C379A000000000000000000000000000000000000000000000000000000000 DUP2 MSTORE PUSH1 0x4 ADD PUSH2 0x76A SWAP1 PUSH2 0xE01 JUMP JUMPDEST PUSH1 0x40 MLOAD DUP1 SWAP2 SUB SWAP1 REVERT JUMPDEST PUSH1 0x1 PUSH1 0x2 PUSH1 0x0 CALLER PUSH20 0xFFFFFFFFFFFFFFFFFFFFFFFFFFFFFFFFFFFFFFFF AND PUSH20 0xFFFFFFFFFFFFFFFFFFFFFFFFFFFFFFFFFFFFFFFF AND DUP2 MSTORE PUSH1 0x20 ADD SWAP1 DUP2 MSTORE PUSH1 0x20 ADD PUSH1 0x0 KECCAK256 PUSH1 0x0 PUSH2 0x100 EXP DUP2 SLOAD DUP2 PUSH1 0xFF MUL NOT AND SWAP1 DUP4 ISZERO ISZERO MUL OR SWAP1 SSTORE POP PUSH1 0x3 PUSH1 0x0 DUP2 SLOAD DUP1 SWAP3 SWAP2 SWAP1 PUSH2 0x7DE SWAP1 PUSH2 0x105E JUMP JUMPDEST SWAP2 SWAP1 POP SSTORE POP JUMP JUMPDEST PUSH1 0x0 PUSH1 0x4 DUP3 DUP2 SLOAD DUP2 LT PUSH2 0x821 JUMPI PUSH32 0x4E487B7100000000000000000000000000000000000000000000000000000000 PUSH1 0x0 MSTORE PUSH1 0x32 PUSH1 0x4 MSTORE PUSH1 0x24 PUSH1 0x0 REVERT JUMPDEST SWAP1 PUSH1 0x0 MSTORE PUSH1 0x20 PUSH1 0x0 KECCAK256 SWAP1 PUSH1 0x6 MUL ADD SWAP1 POP PUSH1 0x2 PUSH1 0x0 CALLER PUSH20 0xFFFFFFFFFFFFFFFFFFFFFFFFFFFFFFFFFFFFFFFF AND PUSH20 0xFFFFFFFFFFFFFFFFFFFFFFFFFFFFFFFFFFFFFFFF AND DUP2 MSTORE PUSH1 0x20 ADD SWAP1 DUP2 MSTORE PUSH1 0x20 ADD PUSH1 0x0 KECCAK256 PUSH1 0x0 SWAP1 SLOAD SWAP1 PUSH2 0x100 EXP SWAP1 DIV PUSH1 0xFF AND PUSH2 0x8BD JUMPI PUSH1 0x40 MLOAD PUSH32 0x8C379A000000000000000000000000000000000000000000000000000000000 DUP2 MSTORE PUSH1 0x4 ADD PUSH2 0x8B4 SWAP1 PUSH2 0xDE1 JUMP JUMPDEST PUSH1 0x40 MLOAD DUP1 SWAP2 SUB SWAP1 REVERT JUMPDEST DUP1 PUSH1 0x3 ADD PUSH1 0x0 CALLER PUSH20 0xFFFFFFFFFFFFFFFFFFFFFFFFFFFFFFFFFFFFFFFF AND PUSH20 0xFFFFFFFFFFFFFFFFFFFFFFFFFFFFFFFFFFFFFFFF AND DUP2 MSTORE PUSH1 0x20 ADD SWAP1 DUP2 MSTORE PUSH1 0x20 ADD PUSH1 0x0 KECCAK256 PUSH1 0x0 SWAP1 SLOAD SWAP1 PUSH2 0x100 EXP SWAP1 DIV PUSH1 0xFF AND ISZERO PUSH2 0x94C JUMPI PUSH1 0x40 MLOAD PUSH32 0x8C379A000000000000000000000000000000000000000000000000000000000 DUP2 MSTORE PUSH1 0x4 ADD PUSH2 0x943 SWAP1 PUSH2 0xE61 JUMP JUMPDEST PUSH1 0x40 MLOAD DUP1 SWAP2 SUB SWAP1 REVERT JUMPDEST PUSH1 0x1 DUP2 PUSH1 0x3 ADD PUSH1 0x0 CALLER PUSH20 0xFFFFFFFFFFFFFFFFFFFFFFFFFFFFFFFFFFFFFFFF AND PUSH20 0xFFFFFFFFFFFFFFFFFFFFFFFFFFFFFFFFFFFFFFFF AND DUP2 MSTORE PUSH1 0x20 ADD SWAP1 DUP2 MSTORE PUSH1 0x20 ADD PUSH1 0x0 KECCAK256 PUSH1 0x0 PUSH2 0x100 EXP DUP2 SLOAD DUP2 PUSH1 0xFF MUL NOT AND SWAP1 DUP4 ISZERO ISZERO MUL OR SWAP1 SSTORE POP DUP1 PUSH1 0x4 ADD PUSH1 0x0 DUP2 SLOAD DUP1 SWAP3 SWAP2 SWAP1 PUSH2 0x9BB SWAP1 PUSH2 0x105E JUMP JUMPDEST SWAP2 SWAP1 POP SSTORE POP POP POP JUMP JUMPDEST DUP3 DUP1 SLOAD PUSH2 0x9D0 SWAP1 PUSH2 0xFFB JUMP JUMPDEST SWAP1 PUSH1 0x0 MSTORE PUSH1 0x20 PUSH1 0x0 KECCAK256 SWAP1 PUSH1 0x1F ADD PUSH1 0x20 SWAP1 DIV DUP2 ADD SWAP3 DUP3 PUSH2 0x9F2 JUMPI PUSH1 0x0 DUP6 SSTORE PUSH2 0xA39 JUMP JUMPDEST DUP3 PUSH1 0x1F LT PUSH2 0xA0B JUMPI DUP1 MLOAD PUSH1 0xFF NOT AND DUP4 DUP1 ADD OR DUP6 SSTORE PUSH2 0xA39 JUMP JUMPDEST DUP3 DUP1 ADD PUSH1 0x1 ADD DUP6 SSTORE DUP3 ISZERO PUSH2 0xA39 JUMPI SWAP2 DUP3 ADD JUMPDEST DUP3 DUP2 GT ISZERO PUSH2 0xA38 JUMPI DUP3 MLOAD DUP3 SSTORE SWAP2 PUSH1 0x20 ADD SWAP2 SWAP1 PUSH1 0x1 ADD SWAP1 PUSH2 0xA1D JUMP JUMPDEST JUMPDEST POP SWAP1 POP PUSH2 0xA46 SWAP2 SWAP1 PUSH2 0xA4A JUMP JUMPDEST POP SWAP1 JUMP JUMPDEST JUMPDEST DUP1 DUP3 GT ISZERO PUSH2 0xA63 JUMPI PUSH1 0x0 DUP2 PUSH1 0x0 SWAP1 SSTORE POP PUSH1 0x1 ADD PUSH2 0xA4B JUMP JUMPDEST POP SWAP1 JUMP JUMPDEST PUSH1 0x0 PUSH2 0xA7A PUSH2 0xA75 DUP5 PUSH2 0xEE1 JUMP JUMPDEST PUSH2 0xEBC JUMP JUMPDEST SWAP1 POP DUP3 DUP2 MSTORE PUSH1 0x20 DUP2 ADD DUP5 DUP5 DUP5 ADD GT ISZERO PUSH2 0xA92 JUMPI PUSH1 0x0 DUP1 REVERT JUMPDEST PUSH2 0xA9D DUP5 DUP3 DUP6 PUSH2 0xFB9 JUMP JUMPDEST POP SWAP4 SWAP3 POP POP POP JUMP JUMPDEST PUSH1 0x0 DUP2 CALLDATALOAD SWAP1 POP PUSH2 0xAB4 DUP2 PUSH2 0x1305 JUMP JUMPDEST SWAP3 SWAP2 POP POP JUMP JUMPDEST PUSH1 0x0 DUP2 CALLDATALOAD SWAP1 POP PUSH2 0xAC9 DUP2 PUSH2 0x131C JUMP JUMPDEST SWAP3 SWAP2 POP POP JUMP JUMPDEST PUSH1 0x0 DUP3 PUSH1 0x1F DUP4 ADD SLT PUSH2 0xAE0 JUMPI PUSH1 0x0 DUP1 REVERT JUMPDEST DUP2 CALLDATALOAD PUSH2 0xAF0 DUP5 DUP3 PUSH1 0x20 DUP7 ADD PUSH2 0xA67 JUMP JUMPDEST SWAP2 POP POP SWAP3 SWAP2 POP POP JUMP JUMPDEST PUSH1 0x0 DUP2 CALLDATALOAD SWAP1 POP PUSH2 0xB08 DUP2 PUSH2 0x1333 JUMP JUMPDEST SWAP3 SWAP2 POP POP JUMP JUMPDEST PUSH1 0x0 PUSH1 0x20 DUP3 DUP5 SUB SLT ISZERO PUSH2 0xB20 JUMPI PUSH1 0x0 DUP1 REVERT JUMPDEST PUSH1 0x0 PUSH2 0xB2E DUP5 DUP3 DUP6 ADD PUSH2 0xAA5 JUMP JUMPDEST SWAP2 POP POP SWAP3 SWAP2 POP POP JUMP JUMPDEST PUSH1 0x0 DUP1 PUSH1 0x0 PUSH1 0x60 DUP5 DUP7 SUB SLT ISZERO PUSH2 0xB4C JUMPI PUSH1 0x0 DUP1 REVERT JUMPDEST PUSH1 0x0 DUP5 ADD CALLDATALOAD PUSH8 0xFFFFFFFFFFFFFFFF DUP2 GT ISZERO PUSH2 0xB66 JUMPI PUSH1 0x0 DUP1 REVERT JUMPDEST PUSH2 0xB72 DUP7 DUP3 DUP8 ADD PUSH2 0xACF JUMP JUMPDEST SWAP4 POP POP PUSH1 0x20 PUSH2 0xB83 DUP7 DUP3 DUP8 ADD PUSH2 0xAF9 JUMP JUMPDEST SWAP3 POP POP PUSH1 0x40 PUSH2 0xB94 DUP7 DUP3 DUP8 ADD PUSH2 0xABA JUMP JUMPDEST SWAP2 POP POP SWAP3 POP SWAP3 POP SWAP3 JUMP JUMPDEST PUSH1 0x0 PUSH1 0x20 DUP3 DUP5 SUB SLT ISZERO PUSH2 0xBB0 JUMPI PUSH1 0x0 DUP1 REVERT JUMPDEST PUSH1 0x0 PUSH2 0xBBE DUP5 DUP3 DUP6 ADD PUSH2 0xAF9 JUMP JUMPDEST SWAP2 POP POP SWAP3 SWAP2 POP POP JUMP JUMPDEST PUSH2 0xBD0 DUP2 PUSH2 0xF71 JUMP JUMPDEST DUP3 MSTORE POP POP JUMP JUMPDEST PUSH2 0xBDF DUP2 PUSH2 0xF5F JUMP JUMPDEST DUP3 MSTORE POP POP JUMP JUMPDEST PUSH2 0xBEE DUP2 PUSH2 0xF83 JUMP JUMPDEST DUP3 MSTORE POP POP JUMP JUMPDEST PUSH1 0x0 PUSH2 0xBFF DUP3 PUSH2 0xF12 JUMP JUMPDEST PUSH2 0xC09 DUP2 DUP6 PUSH2 0xF1D JUMP JUMPDEST SWAP4 POP PUSH2 0xC19 DUP2 DUP6 PUSH1 0x20 DUP7 ADD PUSH2 0xFC8 JUMP JUMPDEST PUSH2 0xC22 DUP2 PUSH2 0x1163 JUMP JUMPDEST DUP5 ADD SWAP2 POP POP SWAP3 SWAP2 POP POP JUMP JUMPDEST PUSH1 0x0 PUSH2 0xC3A PUSH1 0x21 DUP4 PUSH2 0xF1D JUMP JUMPDEST SWAP2 POP PUSH2 0xC45 DUP3 PUSH2 0x1174 JUMP JUMPDEST PUSH1 0x40 DUP3 ADD SWAP1 POP SWAP2 SWAP1 POP JUMP JUMPDEST PUSH1 0x0 PUSH2 0xC5D PUSH1 0x3A DUP4 PUSH2 0xF1D JUMP JUMPDEST SWAP2 POP PUSH2 0xC68 DUP3 PUSH2 0x11C3 JUMP JUMPDEST PUSH1 0x40 DUP3 ADD SWAP1 POP SWAP2 SWAP1 POP JUMP JUMPDEST PUSH1 0x0 PUSH2 0xC80 PUSH1 0x20 DUP4 PUSH2 0xF1D JUMP JUMPDEST SWAP2 POP PUSH2 0xC8B DUP3 PUSH2 0x1212 JUMP JUMPDEST PUSH1 0x20 DUP3 ADD SWAP1 POP SWAP2 SWAP1 POP JUMP JUMPDEST PUSH1 0x0 PUSH2 0xCA3 PUSH1 0x1B DUP4 PUSH2 0xF1D JUMP JUMPDEST SWAP2 POP PUSH2 0xCAE DUP3 PUSH2 0x123B JUMP JUMPDEST PUSH1 0x20 DUP3 ADD SWAP1 POP SWAP2 SWAP1 POP JUMP JUMPDEST PUSH1 0x0 PUSH2 0xCC6 PUSH1 0x19 DUP4 PUSH2 0xF1D JUMP JUMPDEST SWAP2 POP PUSH2 0xCD1 DUP3 PUSH2 0x1264 JUMP JUMPDEST PUSH1 0x20 DUP3 ADD SWAP1 POP SWAP2 SWAP1 POP JUMP JUMPDEST PUSH1 0x0 PUSH2 0xCE9 PUSH1 0x21 DUP4 PUSH2 0xF1D JUMP JUMPDEST SWAP2 POP PUSH2 0xCF4 DUP3 PUSH2 0x128D JUMP JUMPDEST PUSH1 0x40 DUP3 ADD SWAP1 POP SWAP2 SWAP1 POP JUMP JUMPDEST PUSH1 0x0 PUSH2 0xD0C PUSH1 0x14 DUP4 PUSH2 0xF1D JUMP JUMPDEST SWAP2 POP PUSH2 0xD17 DUP3 PUSH2 0x12DC JUMP JUMPDEST PUSH1 0x20 DUP3 ADD SWAP1 POP SWAP2 SWAP1 POP JUMP JUMPDEST PUSH2 0xD2B DUP2 PUSH2 0xFAF JUMP JUMPDEST DUP3 MSTORE POP POP JUMP JUMPDEST PUSH1 0x0 PUSH1 0x20 DUP3 ADD SWAP1 POP PUSH2 0xD46 PUSH1 0x0 DUP4 ADD DUP5 PUSH2 0xBD6 JUMP JUMPDEST SWAP3 SWAP2 POP POP JUMP JUMPDEST PUSH1 0x0 PUSH1 0x20 DUP3 ADD SWAP1 POP PUSH2 0xD61 PUSH1 0x0 DUP4 ADD DUP5 PUSH2 0xBE5 JUMP JUMPDEST SWAP3 SWAP2 POP POP JUMP JUMPDEST PUSH1 0x0 PUSH1 0xA0 DUP3 ADD SWAP1 POP DUP2 DUP2 SUB PUSH1 0x0 DUP4 ADD MSTORE PUSH2 0xD81 DUP2 DUP9 PUSH2 0xBF4 JUMP JUMPDEST SWAP1 POP PUSH2 0xD90 PUSH1 0x20 DUP4 ADD DUP8 PUSH2 0xD22 JUMP JUMPDEST PUSH2 0xD9D PUSH1 0x40 DUP4 ADD DUP7 PUSH2 0xBC7 JUMP JUMPDEST PUSH2 0xDAA PUSH1 0x60 DUP4 ADD DUP6 PUSH2 0xD22 JUMP JUMPDEST PUSH2 0xDB7 PUSH1 0x80 DUP4 ADD DUP5 PUSH2 0xBE5 JUMP JUMPDEST SWAP7 SWAP6 POP POP POP POP POP POP JUMP JUMPDEST PUSH1 0x0 PUSH1 0x20 DUP3 ADD SWAP1 POP DUP2 DUP2 SUB PUSH1 0x0 DUP4 ADD MSTORE PUSH2 0xDDA DUP2 PUSH2 0xC2D JUMP JUMPDEST SWAP1 POP SWAP2 SWAP1 POP JUMP JUMPDEST PUSH1 0x0 PUSH1 0x20 DUP3 ADD SWAP1 POP DUP2 DUP2 SUB PUSH1 0x0 DUP4 ADD MSTORE PUSH2 0xDFA DUP2 PUSH2 0xC50 JUMP JUMPDEST SWAP1 POP SWAP2 SWAP1 POP JUMP JUMPDEST PUSH1 0x0 PUSH1 0x20 DUP3 ADD SWAP1 POP DUP2 DUP2 SUB PUSH1 0x0 DUP4 ADD MSTORE PUSH2 0xE1A DUP2 PUSH2 0xC73 JUMP JUMPDEST SWAP1 POP SWAP2 SWAP1 POP JUMP JUMPDEST PUSH1 0x0 PUSH1 0x20 DUP3 ADD SWAP1 POP DUP2 DUP2 SUB PUSH1 0x0 DUP4 ADD MSTORE PUSH2 0xE3A DUP2 PUSH2 0xC96 JUMP JUMPDEST SWAP1 POP SWAP2 SWAP1 POP JUMP JUMPDEST PUSH1 0x0 PUSH1 0x20 DUP3 ADD SWAP1 POP DUP2 DUP2 SUB PUSH1 0x0 DUP4 ADD MSTORE PUSH2 0xE5A DUP2 PUSH2 0xCB9 JUMP JUMPDEST SWAP1 POP SWAP2 SWAP1 POP JUMP JUMPDEST PUSH1 0x0 PUSH1 0x20 DUP3 ADD SWAP1 POP DUP2 DUP2 SUB PUSH1 0x0 DUP4 ADD MSTORE PUSH2 0xE7A DUP2 PUSH2 0xCDC JUMP JUMPDEST SWAP1 POP SWAP2 SWAP1 POP JUMP JUMPDEST PUSH1 0x0 PUSH1 0x20 DUP3 ADD SWAP1 POP DUP2 DUP2 SUB PUSH1 0x0 DUP4 ADD MSTORE PUSH2 0xE9A DUP2 PUSH2 0xCFF JUMP JUMPDEST SWAP1 POP SWAP2 SWAP1 POP JUMP JUMPDEST PUSH1 0x0 PUSH1 0x20 DUP3 ADD SWAP1 POP PUSH2 0xEB6 PUSH1 0x0 DUP4 ADD DUP5 PUSH2 0xD22 JUMP JUMPDEST SWAP3 SWAP2 POP POP JUMP JUMPDEST PUSH1 0x0 PUSH2 0xEC6 PUSH2 0xED7 JUMP JUMPDEST SWAP1 POP PUSH2 0xED2 DUP3 DUP3 PUSH2 0x102D JUMP JUMPDEST SWAP2 SWAP1 POP JUMP JUMPDEST PUSH1 0x0 PUSH1 0x40 MLOAD SWAP1 POP SWAP1 JUMP JUMPDEST PUSH1 0x0 PUSH8 0xFFFFFFFFFFFFFFFF DUP3 GT ISZERO PUSH2 0xEFC JUMPI PUSH2 0xEFB PUSH2 0x1134 JUMP JUMPDEST JUMPDEST PUSH2 0xF05 DUP3 PUSH2 0x1163 JUMP JUMPDEST SWAP1 POP PUSH1 0x20 DUP2 ADD SWAP1 POP SWAP2 SWAP1 POP JUMP JUMPDEST PUSH1 0x0 DUP2 MLOAD SWAP1 POP SWAP2 SWAP1 POP JUMP JUMPDEST PUSH1 0x0 DUP3 DUP3 MSTORE PUSH1 0x20 DUP3 ADD SWAP1 POP SWAP3 SWAP2 POP POP JUMP JUMPDEST PUSH1 0x0 PUSH2 0xF39 DUP3 PUSH2 0xFAF JUMP JUMPDEST SWAP2 POP PUSH2 0xF44 DUP4 PUSH2 0xFAF JUMP JUMPDEST SWAP3 POP DUP3 PUSH2 0xF54 JUMPI PUSH2 0xF53 PUSH2 0x10D6 JUMP JUMPDEST JUMPDEST DUP3 DUP3 DIV SWAP1 POP SWAP3 SWAP2 POP POP JUMP JUMPDEST PUSH1 0x0 PUSH2 0xF6A DUP3 PUSH2 0xF8F JUMP JUMPDEST SWAP1 POP SWAP2 SWAP1 POP JUMP JUMPDEST PUSH1 0x0 PUSH2 0xF7C DUP3 PUSH2 0xF8F JUMP JUMPDEST SWAP1 POP SWAP2 SWAP1 POP JUMP JUMPDEST PUSH1 0x0 DUP2 ISZERO ISZERO SWAP1 POP SWAP2 SWAP1 POP JUMP JUMPDEST PUSH1 0x0 PUSH20 0xFFFFFFFFFFFFFFFFFFFFFFFFFFFFFFFFFFFFFFFF DUP3 AND SWAP1 POP SWAP2 SWAP1 POP JUMP JUMPDEST PUSH1 0x0 DUP2 SWAP1 POP SWAP2 SWAP1 POP JUMP JUMPDEST DUP3 DUP2 DUP4 CALLDATACOPY PUSH1 0x0 DUP4 DUP4 ADD MSTORE POP POP POP JUMP JUMPDEST PUSH1 0x0 JUMPDEST DUP4 DUP2 LT ISZERO PUSH2 0xFE6 JUMPI DUP1 DUP3 ADD MLOAD DUP2 DUP5 ADD MSTORE PUSH1 0x20 DUP2 ADD SWAP1 POP PUSH2 0xFCB JUMP JUMPDEST DUP4 DUP2 GT ISZERO PUSH2 0xFF5 JUMPI PUSH1 0x0 DUP5 DUP5 ADD MSTORE JUMPDEST POP POP POP POP JUMP JUMPDEST PUSH1 0x0 PUSH1 0x2 DUP3 DIV SWAP1 POP PUSH1 0x1 DUP3 AND DUP1 PUSH2 0x1013 JUMPI PUSH1 0x7F DUP3 AND SWAP2 POP JUMPDEST PUSH1 0x20 DUP3 LT DUP2 EQ ISZERO PUSH2 0x1027 JUMPI PUSH2 0x1026 PUSH2 0x1105 JUMP JUMPDEST JUMPDEST POP SWAP2 SWAP1 POP JUMP JUMPDEST PUSH2 0x1036 DUP3 PUSH2 0x1163 JUMP JUMPDEST DUP2 ADD DUP2 DUP2 LT PUSH8 0xFFFFFFFFFFFFFFFF DUP3 GT OR ISZERO PUSH2 0x1055 JUMPI PUSH2 0x1054 PUSH2 0x1134 JUMP JUMPDEST JUMPDEST DUP1 PUSH1 0x40 MSTORE POP POP POP JUMP JUMPDEST PUSH1 0x0 PUSH2 0x1069 DUP3 PUSH2 0xFAF JUMP JUMPDEST SWAP2 POP PUSH32 0xFFFFFFFFFFFFFFFFFFFFFFFFFFFFFFFFFFFFFFFFFFFFFFFFFFFFFFFFFFFFFFFF DUP3 EQ ISZERO PUSH2 0x109C JUMPI PUSH2 0x109B PUSH2 0x10A7 JUMP JUMPDEST JUMPDEST PUSH1 0x1 DUP3 ADD SWAP1 POP SWAP2 SWAP1 POP JUMP JUMPDEST PUSH32 0x4E487B7100000000000000000000000000000000000000000000000000000000 PUSH1 0x0 MSTORE PUSH1 0x11 PUSH1 0x4 MSTORE PUSH1 0x24 PUSH1 0x0 REVERT JUMPDEST PUSH32 0x4E487B7100000000000000000000000000000000000000000000000000000000 PUSH1 0x0 MSTORE PUSH1 0x12 PUSH1 0x4 MSTORE PUSH1 0x24 PUSH1 0x0 REVERT JUMPDEST PUSH32 0x4E487B7100000000000000000000000000000000000000000000000000000000 PUSH1 0x0 MSTORE PUSH1 0x22 PUSH1 0x4 MSTORE PUSH1 0x24 PUSH1 0x0 REVERT JUMPDEST PUSH32 0x4E487B7100000000000000000000000000000000000000000000000000000000 PUSH1 0x0 MSTORE PUSH1 0x41 PUSH1 0x4 MSTORE PUSH1 0x24 PUSH1 0x0 REVERT JUMPDEST PUSH1 0x0 PUSH1 0x1F NOT PUSH1 0x1F DUP4 ADD AND SWAP1 POP SWAP2 SWAP1 POP JUMP JUMPDEST PUSH32 0x4F7065726174696F6E20726573657276656420666F72206F776E6572206F6E6C PUSH1 0x0 DUP3 ADD MSTORE PUSH32 0x7900000000000000000000000000000000000000000000000000000000000000 PUSH1 0x20 DUP3 ADD MSTORE POP JUMP JUMPDEST PUSH32 0x596F75206E65656420746F20636F6E7472696275746520746F20746865206361 PUSH1 0x0 DUP3 ADD MSTORE PUSH32 0x6D706169676E206265666F726520796F752063616E20766F7465000000000000 PUSH1 0x20 DUP3 ADD MSTORE POP JUMP JUMPDEST PUSH32 0x596F7520616C72656164792066756E64656420746869732063616D706169676E PUSH1 0x0 DUP3 ADD MSTORE POP JUMP JUMPDEST PUSH32 0x436F6E747269627574696F6E20616D6F756E7420746F6F206C6F770000000000 PUSH1 0x0 DUP3 ADD MSTORE POP JUMP JUMPDEST PUSH32 0x5265717565737420616C726561647920636F6D706C6574656400000000000000 PUSH1 0x0 DUP3 ADD MSTORE POP JUMP JUMPDEST PUSH32 0x596F7520616C726561647920617070726F766564207468697320726571756573 PUSH1 0x0 DUP3 ADD MSTORE PUSH32 0x7400000000000000000000000000000000000000000000000000000000000000 PUSH1 0x20 DUP3 ADD MSTORE POP JUMP JUMPDEST PUSH32 0x4E6F7420656E6F75676820617070726F76616C73000000000000000000000000 PUSH1 0x0 DUP3 ADD MSTORE POP JUMP JUMPDEST PUSH2 0x130E DUP2 PUSH2 0xF5F JUMP JUMPDEST DUP2 EQ PUSH2 0x1319 JUMPI PUSH1 0x0 DUP1 REVERT JUMPDEST POP JUMP JUMPDEST PUSH2 0x1325 DUP2 PUSH2 0xF71 JUMP JUMPDEST DUP2 EQ PUSH2 0x1330 JUMPI PUSH1 0x0 DUP1 REVERT JUMPDEST POP JUMP JUMPDEST PUSH2 0x133C DUP2 PUSH2 0xFAF JUMP JUMPDEST DUP2 EQ PUSH2 0x1347 JUMPI PUSH1 0x0 DUP1 REVERT JUMPDEST POP JUMP INVALID LOG2 PUSH5 0x6970667358 0x22 SLT KECCAK256 PUSH4 0x14926664 SWAP8 0x5E DUP16 CALL MLOAD 0xBF 0xDC AND ADDRESS 0xDA 0xD5 0xD4 SHR 0xB6 DUP2 NOT MUL 0x4D CHAINID PUSH10 0x26CD2D34C75C6064736F PUSH13 0x63430008030033A26469706673 PC 0x22 SLT KECCAK256 PUSH6 0xAAF011326F52 SLT SELFDESTRUCT DUP5 CALLDATALOAD DUP16 0xDB 0xD1 DUP12 BALANCE PUSH24 0x9F44E5F3E0F61F6E0B9903E4FAA3D764736F6C6343000803 STOP CALLER "},"gasEstimates":{"creation":{"codeDepositCost":"1297600","executionCost":"1349","totalCost":"1298949"},"external":{"campaigns(uint256)":"2377","createCampaign(uint256)":"infinite","getCampaigns()":"infinite"}},"methodIdentifiers":{"campaigns(uint256)":"141961bc","createCampaign(uint256)":"a3303a75","getCampaigns()":"a6b03633"}},"storageLayout":{"storage":[{"astId":6,"contract":"/home/cuv/Work/blockchain/eth-crowdfund/ethereum/contracts/CampaignFactory.sol:CampaignFactory","label":"campaigns","offset":0,"slot":"0","type":"t_array(t_contract(CrowdfundCampaign)267)dyn_storage"}],"types":{"t_array(t_contract(CrowdfundCampaign)267)dyn_storage":{"base":"t_contract(CrowdfundCampaign)267","encoding":"dynamic_array","label":"contract CrowdfundCampaign[]","numberOfBytes":"32"},"t_contract(CrowdfundCampaign)267":{"encoding":"inplace","label":"contract CrowdfundCampaign","numberOfBytes":"20"}}},"userdoc":{"kind":"user","methods":{},"version":1}}